{
	"data": {
		"bytecode": {
			"linkReferences": {},
			"object": "6080604052348015600e575f5ffd5b506104478061001c5f395ff3fe608060405234801561000f575f5ffd5b5060043610610029575f3560e01c80635561e0fc1461002d575b5f5ffd5b6100476004803603810190610042919061026f565b61005d565b60405161005491906102db565b60405180910390f35b5f5f8484905003610090577fffffffffffffffffffffffffffffffffffffffffffffffffffffffffffffffff90506101cc565b5f5f90505f5f90505f6001878790506100a99190610321565b90505b808210156101a557848787848181106100c8576100c7610354565b5b90506020020135036100df578193505050506101cc565b6001600282856100ef9190610381565b6100f991906103e1565b6101039190610381565b91508487878481811061011957610118610354565b5b905060200201351115610154578190506001600282856101399190610381565b61014391906103e1565b61014d9190610381565b91506101a0565b8487878481811061016857610167610354565b5b90506020020135101561019f578192506001600282856101889190610381565b61019291906103e1565b61019c9190610381565b91505b5b6100ac565b7fffffffffffffffffffffffffffffffffffffffffffffffffffffffffffffffff93505050505b9392505050565b5f5ffd5b5f5ffd5b5f5ffd5b5f5ffd5b5f5ffd5b5f5f83601f8401126101fc576101fb6101db565b5b8235905067ffffffffffffffff811115610219576102186101df565b5b602083019150836020820283011115610235576102346101e3565b5b9250929050565b5f819050919050565b61024e8161023c565b8114610258575f5ffd5b50565b5f8135905061026981610245565b92915050565b5f5f5f60408486031215610286576102856101d3565b5b5f84013567ffffffffffffffff8111156102a3576102a26101d7565b5b6102af868287016101e7565b935093505060206102c28682870161025b565b9150509250925092565b6102d58161023c565b82525050565b5f6020820190506102ee5f8301846102cc565b92915050565b7f4e487b71000000000000000000000000000000000000000000000000000000005f52601160045260245ffd5b5f61032b8261023c565b91506103368361023c565b925082820390508181111561034e5761034d6102f4565b5b92915050565b7f4e487b71000000000000000000000000000000000000000000000000000000005f52603260045260245ffd5b5f61038b8261023c565b91506103968361023c565b92508282019050808211156103ae576103ad6102f4565b5b92915050565b7f4e487b71000000000000000000000000000000000000000000000000000000005f52601260045260245ffd5b5f6103eb8261023c565b91506103f68361023c565b925082610406576104056103b4565b5b82820490509291505056fea2646970667358221220e13b4726164e335e4e47564824dcb0fa737ae6d9a6acc77f86763c190edbc94564736f6c634300081e0033",
			"opcodes": "PUSH1 0x80 PUSH1 0x40 MSTORE CALLVALUE DUP1 ISZERO PUSH1 0xE JUMPI PUSH0 PUSH0 REVERT JUMPDEST POP PUSH2 0x447 DUP1 PUSH2 0x1C PUSH0 CODECOPY PUSH0 RETURN INVALID PUSH1 0x80 PUSH1 0x40 MSTORE CALLVALUE DUP1 ISZERO PUSH2 0xF JUMPI PUSH0 PUSH0 REVERT JUMPDEST POP PUSH1 0x4 CALLDATASIZE LT PUSH2 0x29 JUMPI PUSH0 CALLDATALOAD PUSH1 0xE0 SHR DUP1 PUSH4 0x5561E0FC EQ PUSH2 0x2D JUMPI JUMPDEST PUSH0 PUSH0 REVERT JUMPDEST PUSH2 0x47 PUSH1 0x4 DUP1 CALLDATASIZE SUB DUP2 ADD SWAP1 PUSH2 0x42 SWAP2 SWAP1 PUSH2 0x26F JUMP JUMPDEST PUSH2 0x5D JUMP JUMPDEST PUSH1 0x40 MLOAD PUSH2 0x54 SWAP2 SWAP1 PUSH2 0x2DB JUMP JUMPDEST PUSH1 0x40 MLOAD DUP1 SWAP2 SUB SWAP1 RETURN JUMPDEST PUSH0 PUSH0 DUP5 DUP5 SWAP1 POP SUB PUSH2 0x90 JUMPI PUSH32 0xFFFFFFFFFFFFFFFFFFFFFFFFFFFFFFFFFFFFFFFFFFFFFFFFFFFFFFFFFFFFFFFF SWAP1 POP PUSH2 0x1CC JUMP JUMPDEST PUSH0 PUSH0 SWAP1 POP PUSH0 PUSH0 SWAP1 POP PUSH0 PUSH1 0x1 DUP8 DUP8 SWAP1 POP PUSH2 0xA9 SWAP2 SWAP1 PUSH2 0x321 JUMP JUMPDEST SWAP1 POP JUMPDEST DUP1 DUP3 LT ISZERO PUSH2 0x1A5 JUMPI DUP5 DUP8 DUP8 DUP5 DUP2 DUP2 LT PUSH2 0xC8 JUMPI PUSH2 0xC7 PUSH2 0x354 JUMP JUMPDEST JUMPDEST SWAP1 POP PUSH1 0x20 MUL ADD CALLDATALOAD SUB PUSH2 0xDF JUMPI DUP2 SWAP4 POP POP POP POP PUSH2 0x1CC JUMP JUMPDEST PUSH1 0x1 PUSH1 0x2 DUP3 DUP6 PUSH2 0xEF SWAP2 SWAP1 PUSH2 0x381 JUMP JUMPDEST PUSH2 0xF9 SWAP2 SWAP1 PUSH2 0x3E1 JUMP JUMPDEST PUSH2 0x103 SWAP2 SWAP1 PUSH2 0x381 JUMP JUMPDEST SWAP2 POP DUP5 DUP8 DUP8 DUP5 DUP2 DUP2 LT PUSH2 0x119 JUMPI PUSH2 0x118 PUSH2 0x354 JUMP JUMPDEST JUMPDEST SWAP1 POP PUSH1 0x20 MUL ADD CALLDATALOAD GT ISZERO PUSH2 0x154 JUMPI DUP2 SWAP1 POP PUSH1 0x1 PUSH1 0x2 DUP3 DUP6 PUSH2 0x139 SWAP2 SWAP1 PUSH2 0x381 JUMP JUMPDEST PUSH2 0x143 SWAP2 SWAP1 PUSH2 0x3E1 JUMP JUMPDEST PUSH2 0x14D SWAP2 SWAP1 PUSH2 0x381 JUMP JUMPDEST SWAP2 POP PUSH2 0x1A0 JUMP JUMPDEST DUP5 DUP8 DUP8 DUP5 DUP2 DUP2 LT PUSH2 0x168 JUMPI PUSH2 0x167 PUSH2 0x354 JUMP JUMPDEST JUMPDEST SWAP1 POP PUSH1 0x20 MUL ADD CALLDATALOAD LT ISZERO PUSH2 0x19F JUMPI DUP2 SWAP3 POP PUSH1 0x1 PUSH1 0x2 DUP3 DUP6 PUSH2 0x188 SWAP2 SWAP1 PUSH2 0x381 JUMP JUMPDEST PUSH2 0x192 SWAP2 SWAP1 PUSH2 0x3E1 JUMP JUMPDEST PUSH2 0x19C SWAP2 SWAP1 PUSH2 0x381 JUMP JUMPDEST SWAP2 POP JUMPDEST JUMPDEST PUSH2 0xAC JUMP JUMPDEST PUSH32 0xFFFFFFFFFFFFFFFFFFFFFFFFFFFFFFFFFFFFFFFFFFFFFFFFFFFFFFFFFFFFFFFF SWAP4 POP POP POP POP JUMPDEST SWAP4 SWAP3 POP POP POP JUMP JUMPDEST PUSH0 PUSH0 REVERT JUMPDEST PUSH0 PUSH0 REVERT JUMPDEST PUSH0 PUSH0 REVERT JUMPDEST PUSH0 PUSH0 REVERT JUMPDEST PUSH0 PUSH0 REVERT JUMPDEST PUSH0 PUSH0 DUP4 PUSH1 0x1F DUP5 ADD SLT PUSH2 0x1FC JUMPI PUSH2 0x1FB PUSH2 0x1DB JUMP JUMPDEST JUMPDEST DUP3 CALLDATALOAD SWAP1 POP PUSH8 0xFFFFFFFFFFFFFFFF DUP2 GT ISZERO PUSH2 0x219 JUMPI PUSH2 0x218 PUSH2 0x1DF JUMP JUMPDEST JUMPDEST PUSH1 0x20 DUP4 ADD SWAP2 POP DUP4 PUSH1 0x20 DUP3 MUL DUP4 ADD GT ISZERO PUSH2 0x235 JUMPI PUSH2 0x234 PUSH2 0x1E3 JUMP JUMPDEST JUMPDEST SWAP3 POP SWAP3 SWAP1 POP JUMP JUMPDEST PUSH0 DUP2 SWAP1 POP SWAP2 SWAP1 POP JUMP JUMPDEST PUSH2 0x24E DUP2 PUSH2 0x23C JUMP JUMPDEST DUP2 EQ PUSH2 0x258 JUMPI PUSH0 PUSH0 REVERT JUMPDEST POP JUMP JUMPDEST PUSH0 DUP2 CALLDATALOAD SWAP1 POP PUSH2 0x269 DUP2 PUSH2 0x245 JUMP JUMPDEST SWAP3 SWAP2 POP POP JUMP JUMPDEST PUSH0 PUSH0 PUSH0 PUSH1 0x40 DUP5 DUP7 SUB SLT ISZERO PUSH2 0x286 JUMPI PUSH2 0x285 PUSH2 0x1D3 JUMP JUMPDEST JUMPDEST PUSH0 DUP5 ADD CALLDATALOAD PUSH8 0xFFFFFFFFFFFFFFFF DUP2 GT ISZERO PUSH2 0x2A3 JUMPI PUSH2 0x2A2 PUSH2 0x1D7 JUMP JUMPDEST JUMPDEST PUSH2 0x2AF DUP7 DUP3 DUP8 ADD PUSH2 0x1E7 JUMP JUMPDEST SWAP4 POP SWAP4 POP POP PUSH1 0x20 PUSH2 0x2C2 DUP7 DUP3 DUP8 ADD PUSH2 0x25B JUMP JUMPDEST SWAP2 POP POP SWAP3 POP SWAP3 POP SWAP3 JUMP JUMPDEST PUSH2 0x2D5 DUP2 PUSH2 0x23C JUMP JUMPDEST DUP3 MSTORE POP POP JUMP JUMPDEST PUSH0 PUSH1 0x20 DUP3 ADD SWAP1 POP PUSH2 0x2EE PUSH0 DUP4 ADD DUP5 PUSH2 0x2CC JUMP JUMPDEST SWAP3 SWAP2 POP POP JUMP JUMPDEST PUSH32 0x4E487B7100000000000000000000000000000000000000000000000000000000 PUSH0 MSTORE PUSH1 0x11 PUSH1 0x4 MSTORE PUSH1 0x24 PUSH0 REVERT JUMPDEST PUSH0 PUSH2 0x32B DUP3 PUSH2 0x23C JUMP JUMPDEST SWAP2 POP PUSH2 0x336 DUP4 PUSH2 0x23C JUMP JUMPDEST SWAP3 POP DUP3 DUP3 SUB SWAP1 POP DUP2 DUP2 GT ISZERO PUSH2 0x34E JUMPI PUSH2 0x34D PUSH2 0x2F4 JUMP JUMPDEST JUMPDEST SWAP3 SWAP2 POP POP JUMP JUMPDEST PUSH32 0x4E487B7100000000000000000000000000000000000000000000000000000000 PUSH0 MSTORE PUSH1 0x32 PUSH1 0x4 MSTORE PUSH1 0x24 PUSH0 REVERT JUMPDEST PUSH0 PUSH2 0x38B DUP3 PUSH2 0x23C JUMP JUMPDEST SWAP2 POP PUSH2 0x396 DUP4 PUSH2 0x23C JUMP JUMPDEST SWAP3 POP DUP3 DUP3 ADD SWAP1 POP DUP1 DUP3 GT ISZERO PUSH2 0x3AE JUMPI PUSH2 0x3AD PUSH2 0x2F4 JUMP JUMPDEST JUMPDEST SWAP3 SWAP2 POP POP JUMP JUMPDEST PUSH32 0x4E487B7100000000000000000000000000000000000000000000000000000000 PUSH0 MSTORE PUSH1 0x12 PUSH1 0x4 MSTORE PUSH1 0x24 PUSH0 REVERT JUMPDEST PUSH0 PUSH2 0x3EB DUP3 PUSH2 0x23C JUMP JUMPDEST SWAP2 POP PUSH2 0x3F6 DUP4 PUSH2 0x23C JUMP JUMPDEST SWAP3 POP DUP3 PUSH2 0x406 JUMPI PUSH2 0x405 PUSH2 0x3B4 JUMP JUMPDEST JUMPDEST DUP3 DUP3 DIV SWAP1 POP SWAP3 SWAP2 POP POP JUMP INVALID LOG2 PUSH5 0x6970667358 0x22 SLT KECCAK256 RJUMPI 0x3B47 0x26 AND 0x4E CALLER MCOPY 0x4E SELFBALANCE JUMP BASEFEE 0x24 0xDC 0xB0 STATICCALL PUSH20 0x7AE6D9A6ACC77F86763C190EDBC94564736F6C63 NUMBER STOP ADDMOD 0x1E STOP CALLER "
		},
		"gasEstimates": {
			"creation": {
				"codeDepositCost": "219000",
				"executionCost": "261",
				"totalCost": "219261"
			},
			"external": {
				"binarySortedSearch(uint256[],uint256)": "infinite"
			}
		},
		"methodIdentifiers": {
			"binarySortedSearch(uint256[],uint256)": "5561e0fc"
		}
	},
	"abi": [
		{
			"inputs": [
				{
					"internalType": "uint256[]",
					"name": "array",
					"type": "uint256[]"
				},
				{
					"internalType": "uint256",
					"name": "value",
					"type": "uint256"
				}
			],
			"name": "binarySortedSearch",
			"outputs": [
				{
					"internalType": "uint256",
					"name": "",
					"type": "uint256"
				}
			],
			"stateMutability": "pure",
			"type": "function"
		}
	]
}