{
	"contracts/05_DataStorage.sol": {
		"DataStorage": {
			"abi": [
				{
					"inputs": [
						{
							"internalType": "uint256[]",
							"name": "_x",
							"type": "uint256[]"
						}
					],
					"name": "fCalldata",
					"outputs": [
						{
							"internalType": "uint256[]",
							"name": "",
							"type": "uint256[]"
						}
					],
					"stateMutability": "pure",
					"type": "function"
				},
				{
					"inputs": [],
					"name": "fMemory",
					"outputs": [],
					"stateMutability": "view",
					"type": "function"
				},
				{
					"inputs": [],
					"name": "fStorage",
					"outputs": [],
					"stateMutability": "nonpayable",
					"type": "function"
				}
			],
			"devdoc": {
				"kind": "dev",
				"methods": {},
				"version": 1
			},
			"evm": {
				"assembly": "    /* \"contracts/05_DataStorage.sol\":58:2585  contract DataStorage {... */\n  mstore(0x40, 0x80)\n    /* \"contracts/05_DataStorage.sol\":1814:1834  uint[] x = [1, 2, 3] */\n  mload(0x40)\n  dup1\n  0x60\n  add\n  0x40\n  mstore\n  dup1\n    /* \"contracts/05_DataStorage.sol\":1826:1827  1 */\n  0x01\n    /* \"contracts/05_DataStorage.sol\":1814:1834  uint[] x = [1, 2, 3] */\n  0xff\n  and\n  dup2\n  mstore\n  0x20\n  add\n    /* \"contracts/05_DataStorage.sol\":1829:1830  2 */\n  0x02\n    /* \"contracts/05_DataStorage.sol\":1814:1834  uint[] x = [1, 2, 3] */\n  0xff\n  and\n  dup2\n  mstore\n  0x20\n  add\n    /* \"contracts/05_DataStorage.sol\":1832:1833  3 */\n  0x03\n    /* \"contracts/05_DataStorage.sol\":1814:1834  uint[] x = [1, 2, 3] */\n  0xff\n  and\n  dup2\n  mstore\n  pop\n  0x00\n  swap1\n  0x03\n  tag_1\n  swap3\n  swap2\n  swap1\n  tag_2\n  jump\t// in\ntag_1:\n  pop\n    /* \"contracts/05_DataStorage.sol\":58:2585  contract DataStorage {... */\n  callvalue\n  dup1\n  iszero\n  tag_3\n  jumpi\n  revert(0x00, 0x00)\ntag_3:\n  pop\n  jump(tag_4)\ntag_2:\n  dup3\n  dup1\n  sload\n  dup3\n  dup3\n  sstore\n  swap1\n  0x00\n  mstore\n  keccak256(0x00, 0x20)\n  swap1\n  dup2\n  add\n  swap3\n  dup3\n  iszero\n  tag_5\n  jumpi\n  swap2\n  0x20\n  mul\n  dup3\n  add\ntag_6:\n  dup3\n  dup2\n  gt\n  iszero\n  tag_7\n  jumpi\n  dup3\n  mload\n  dup3\n  swap1\n  0xff\n  and\n  swap1\n  sstore\n  swap2\n  0x20\n  add\n  swap2\n  swap1\n  0x01\n  add\n  swap1\n  jump(tag_6)\ntag_7:\ntag_5:\n  pop\n  swap1\n  pop\n  tag_8\n  swap2\n  swap1\n  tag_9\n  jump\t// in\ntag_8:\n  pop\n  swap1\n  jump\t// out\ntag_9:\ntag_10:\n  dup1\n  dup3\n  gt\n  iszero\n  tag_11\n  jumpi\n  0x00\n  dup2\n  0x00\n  swap1\n  sstore\n  pop\n  0x01\n  add\n  jump(tag_10)\ntag_11:\n  pop\n  swap1\n  jump\t// out\ntag_4:\n  dataSize(sub_0)\n  dup1\n  dataOffset(sub_0)\n  0x00\n  codecopy\n  0x00\n  return\nstop\n\nsub_0: assembly {\n        /* \"contracts/05_DataStorage.sol\":58:2585  contract DataStorage {... */\n      mstore(0x40, 0x80)\n      callvalue\n      dup1\n      iszero\n      tag_1\n      jumpi\n      revert(0x00, 0x00)\n    tag_1:\n      pop\n      jumpi(tag_2, lt(calldatasize, 0x04))\n      shr(0xe0, calldataload(0x00))\n      dup1\n      0x20028990\n      eq\n      tag_3\n      jumpi\n      dup1\n      0x6a8d1e08\n      eq\n      tag_4\n      jumpi\n      dup1\n      0x9b1a379c\n      eq\n      tag_5\n      jumpi\n    tag_2:\n      revert(0x00, 0x00)\n        /* \"contracts/05_DataStorage.sol\":2482:2582  function fMemory() public view  {... */\n    tag_3:\n      tag_6\n      tag_7\n      jump\t// in\n    tag_6:\n      stop\n        /* \"contracts/05_DataStorage.sol\":1840:2029  function fStorage() public {... */\n    tag_4:\n      tag_8\n      tag_9\n      jump\t// in\n    tag_8:\n      stop\n        /* \"contracts/05_DataStorage.sol\":1099:1299  function fCalldata(uint[] calldata _x) public pure returns (uint[] calldata) {... */\n    tag_5:\n      tag_10\n      0x04\n      dup1\n      calldatasize\n      sub\n      dup2\n      add\n      swap1\n      tag_11\n      swap2\n      swap1\n      tag_12\n      jump\t// in\n    tag_11:\n      tag_13\n      jump\t// in\n    tag_10:\n      mload(0x40)\n      tag_14\n      swap3\n      swap2\n      swap1\n      tag_15\n      jump\t// in\n    tag_14:\n      mload(0x40)\n      dup1\n      swap2\n      sub\n      swap1\n      return\n        /* \"contracts/05_DataStorage.sol\":2482:2582  function fMemory() public view  {... */\n    tag_7:\n        /* \"contracts/05_DataStorage.sol\":2524:2545  uint[] memory xMemory */\n      0x00\n        /* \"contracts/05_DataStorage.sol\":2548:2549  x */\n      0x00\n        /* \"contracts/05_DataStorage.sol\":2524:2549  uint[] memory xMemory = x */\n      dup1\n      sload\n      dup1\n      0x20\n      mul\n      0x20\n      add\n      mload(0x40)\n      swap1\n      dup2\n      add\n      0x40\n      mstore\n      dup1\n      swap3\n      swap2\n      swap1\n      dup2\n      dup2\n      mstore\n      0x20\n      add\n      dup3\n      dup1\n      sload\n      dup1\n      iszero\n      tag_17\n      jumpi\n      0x20\n      mul\n      dup3\n      add\n      swap2\n      swap1\n      0x00\n      mstore\n      keccak256(0x00, 0x20)\n      swap1\n    tag_18:\n      dup2\n      sload\n      dup2\n      mstore\n      0x20\n      add\n      swap1\n      0x01\n      add\n      swap1\n      dup1\n      dup4\n      gt\n      tag_18\n      jumpi\n    tag_17:\n      pop\n      pop\n      pop\n      pop\n      pop\n      swap1\n      pop\n        /* \"contracts/05_DataStorage.sol\":2572:2575  100 */\n      0x64\n        /* \"contracts/05_DataStorage.sol\":2559:2566  xMemory */\n      dup2\n        /* \"contracts/05_DataStorage.sol\":2567:2568  0 */\n      0x00\n        /* \"contracts/05_DataStorage.sol\":2559:2569  xMemory[0] */\n      dup2\n      mload\n      dup2\n      lt\n      tag_19\n      jumpi\n      tag_20\n      tag_21\n      jump\t// in\n    tag_20:\n    tag_19:\n      0x20\n      mul\n      0x20\n      add\n      add\n        /* \"contracts/05_DataStorage.sol\":2559:2575  xMemory[0] = 100 */\n      dup2\n      dup2\n      mstore\n      pop\n      pop\n        /* \"contracts/05_DataStorage.sol\":2514:2582  {... */\n      pop\n        /* \"contracts/05_DataStorage.sol\":2482:2582  function fMemory() public view  {... */\n      jump\t// out\n        /* \"contracts/05_DataStorage.sol\":1840:2029  function fStorage() public {... */\n    tag_9:\n        /* \"contracts/05_DataStorage.sol\":1968:1991  uint[] storage xStorage */\n      0x00\n        /* \"contracts/05_DataStorage.sol\":1994:1995  x */\n      0x00\n        /* \"contracts/05_DataStorage.sol\":1968:1995  uint[] storage xStorage = x */\n      swap1\n      pop\n        /* \"contracts/05_DataStorage.sol\":2019:2022  100 */\n      0x64\n        /* \"contracts/05_DataStorage.sol\":2005:2013  xStorage */\n      dup2\n        /* \"contracts/05_DataStorage.sol\":2014:2015  0 */\n      0x00\n        /* \"contracts/05_DataStorage.sol\":2005:2016  xStorage[0] */\n      dup2\n      sload\n      dup2\n      lt\n      tag_23\n      jumpi\n      tag_24\n      tag_21\n      jump\t// in\n    tag_24:\n    tag_23:\n      swap1\n      0x00\n      mstore\n      keccak256(0x00, 0x20)\n      add\n        /* \"contracts/05_DataStorage.sol\":2005:2022  xStorage[0] = 100 */\n      dup2\n      swap1\n      sstore\n      pop\n        /* \"contracts/05_DataStorage.sol\":1867:2029  {... */\n      pop\n        /* \"contracts/05_DataStorage.sol\":1840:2029  function fStorage() public {... */\n      jump\t// out\n        /* \"contracts/05_DataStorage.sol\":1099:1299  function fCalldata(uint[] calldata _x) public pure returns (uint[] calldata) {... */\n    tag_13:\n        /* \"contracts/05_DataStorage.sol\":1159:1174  uint[] calldata */\n      calldatasize\n      0x00\n        /* \"contracts/05_DataStorage.sol\":1289:1291  _x */\n      dup4\n      dup4\n        /* \"contracts/05_DataStorage.sol\":1282:1292  return(_x) */\n      swap2\n      pop\n      swap2\n      pop\n        /* \"contracts/05_DataStorage.sol\":1099:1299  function fCalldata(uint[] calldata _x) public pure returns (uint[] calldata) {... */\n      swap3\n      pop\n      swap3\n      swap1\n      pop\n      jump\t// out\n        /* \"#utility.yul\":88:205   */\n    tag_28:\n        /* \"#utility.yul\":197:198   */\n      0x00\n        /* \"#utility.yul\":194:195   */\n      0x00\n        /* \"#utility.yul\":187:199   */\n      revert\n        /* \"#utility.yul\":211:328   */\n    tag_29:\n        /* \"#utility.yul\":320:321   */\n      0x00\n        /* \"#utility.yul\":317:318   */\n      0x00\n        /* \"#utility.yul\":310:322   */\n      revert\n        /* \"#utility.yul\":334:451   */\n    tag_30:\n        /* \"#utility.yul\":443:444   */\n      0x00\n        /* \"#utility.yul\":440:441   */\n      0x00\n        /* \"#utility.yul\":433:445   */\n      revert\n        /* \"#utility.yul\":457:574   */\n    tag_31:\n        /* \"#utility.yul\":566:567   */\n      0x00\n        /* \"#utility.yul\":563:564   */\n      0x00\n        /* \"#utility.yul\":556:568   */\n      revert\n        /* \"#utility.yul\":580:697   */\n    tag_32:\n        /* \"#utility.yul\":689:690   */\n      0x00\n        /* \"#utility.yul\":686:687   */\n      0x00\n        /* \"#utility.yul\":679:691   */\n      revert\n        /* \"#utility.yul\":720:1288   */\n    tag_33:\n        /* \"#utility.yul\":793:801   */\n      0x00\n        /* \"#utility.yul\":803:809   */\n      0x00\n        /* \"#utility.yul\":853:856   */\n      dup4\n        /* \"#utility.yul\":846:850   */\n      0x1f\n        /* \"#utility.yul\":838:844   */\n      dup5\n        /* \"#utility.yul\":834:851   */\n      add\n        /* \"#utility.yul\":830:857   */\n      slt\n        /* \"#utility.yul\":820:942   */\n      tag_46\n      jumpi\n        /* \"#utility.yul\":861:940   */\n      tag_47\n      tag_30\n      jump\t// in\n    tag_47:\n        /* \"#utility.yul\":820:942   */\n    tag_46:\n        /* \"#utility.yul\":974:980   */\n      dup3\n        /* \"#utility.yul\":961:981   */\n      calldataload\n        /* \"#utility.yul\":951:981   */\n      swap1\n      pop\n        /* \"#utility.yul\":1004:1022   */\n      0xffffffffffffffff\n        /* \"#utility.yul\":996:1002   */\n      dup2\n        /* \"#utility.yul\":993:1023   */\n      gt\n        /* \"#utility.yul\":990:1107   */\n      iszero\n      tag_48\n      jumpi\n        /* \"#utility.yul\":1026:1105   */\n      tag_49\n      tag_31\n      jump\t// in\n    tag_49:\n        /* \"#utility.yul\":990:1107   */\n    tag_48:\n        /* \"#utility.yul\":1140:1144   */\n      0x20\n        /* \"#utility.yul\":1132:1138   */\n      dup4\n        /* \"#utility.yul\":1128:1145   */\n      add\n        /* \"#utility.yul\":1116:1145   */\n      swap2\n      pop\n        /* \"#utility.yul\":1194:1197   */\n      dup4\n        /* \"#utility.yul\":1186:1190   */\n      0x20\n        /* \"#utility.yul\":1178:1184   */\n      dup3\n        /* \"#utility.yul\":1174:1191   */\n      mul\n        /* \"#utility.yul\":1164:1172   */\n      dup4\n        /* \"#utility.yul\":1160:1192   */\n      add\n        /* \"#utility.yul\":1157:1198   */\n      gt\n        /* \"#utility.yul\":1154:1282   */\n      iszero\n      tag_50\n      jumpi\n        /* \"#utility.yul\":1201:1280   */\n      tag_51\n      tag_32\n      jump\t// in\n    tag_51:\n        /* \"#utility.yul\":1154:1282   */\n    tag_50:\n        /* \"#utility.yul\":720:1288   */\n      swap3\n      pop\n      swap3\n      swap1\n      pop\n      jump\t// out\n        /* \"#utility.yul\":1294:1853   */\n    tag_12:\n        /* \"#utility.yul\":1380:1386   */\n      0x00\n        /* \"#utility.yul\":1388:1394   */\n      0x00\n        /* \"#utility.yul\":1437:1439   */\n      0x20\n        /* \"#utility.yul\":1425:1434   */\n      dup4\n        /* \"#utility.yul\":1416:1423   */\n      dup6\n        /* \"#utility.yul\":1412:1435   */\n      sub\n        /* \"#utility.yul\":1408:1440   */\n      slt\n        /* \"#utility.yul\":1405:1524   */\n      iszero\n      tag_53\n      jumpi\n        /* \"#utility.yul\":1443:1522   */\n      tag_54\n      tag_28\n      jump\t// in\n    tag_54:\n        /* \"#utility.yul\":1405:1524   */\n    tag_53:\n        /* \"#utility.yul\":1591:1592   */\n      0x00\n        /* \"#utility.yul\":1580:1589   */\n      dup4\n        /* \"#utility.yul\":1576:1593   */\n      add\n        /* \"#utility.yul\":1563:1594   */\n      calldataload\n        /* \"#utility.yul\":1621:1639   */\n      0xffffffffffffffff\n        /* \"#utility.yul\":1613:1619   */\n      dup2\n        /* \"#utility.yul\":1610:1640   */\n      gt\n        /* \"#utility.yul\":1607:1724   */\n      iszero\n      tag_55\n      jumpi\n        /* \"#utility.yul\":1643:1722   */\n      tag_56\n      tag_29\n      jump\t// in\n    tag_56:\n        /* \"#utility.yul\":1607:1724   */\n    tag_55:\n        /* \"#utility.yul\":1756:1836   */\n      tag_57\n        /* \"#utility.yul\":1828:1835   */\n      dup6\n        /* \"#utility.yul\":1819:1825   */\n      dup3\n        /* \"#utility.yul\":1808:1817   */\n      dup7\n        /* \"#utility.yul\":1804:1826   */\n      add\n        /* \"#utility.yul\":1756:1836   */\n      tag_33\n      jump\t// in\n    tag_57:\n        /* \"#utility.yul\":1738:1836   */\n      swap3\n      pop\n      swap3\n      pop\n        /* \"#utility.yul\":1534:1846   */\n      pop\n        /* \"#utility.yul\":1294:1853   */\n      swap3\n      pop\n      swap3\n      swap1\n      pop\n      jump\t// out\n        /* \"#utility.yul\":1859:2043   */\n    tag_34:\n        /* \"#utility.yul\":1958:1969   */\n      0x00\n        /* \"#utility.yul\":1992:1998   */\n      dup3\n        /* \"#utility.yul\":1987:1990   */\n      dup3\n        /* \"#utility.yul\":1980:1999   */\n      mstore\n        /* \"#utility.yul\":2032:2036   */\n      0x20\n        /* \"#utility.yul\":2027:2030   */\n      dup3\n        /* \"#utility.yul\":2023:2037   */\n      add\n        /* \"#utility.yul\":2008:2037   */\n      swap1\n      pop\n        /* \"#utility.yul\":1859:2043   */\n      swap3\n      swap2\n      pop\n      pop\n      jump\t// out\n        /* \"#utility.yul\":2049:2166   */\n    tag_35:\n        /* \"#utility.yul\":2158:2159   */\n      0x00\n        /* \"#utility.yul\":2155:2156   */\n      0x00\n        /* \"#utility.yul\":2148:2160   */\n      revert\n        /* \"#utility.yul\":2172:2271   */\n    tag_36:\n        /* \"#utility.yul\":2257:2263   */\n      dup3\n        /* \"#utility.yul\":2252:2255   */\n      dup2\n        /* \"#utility.yul\":2247:2250   */\n      dup4\n        /* \"#utility.yul\":2234:2264   */\n      calldatacopy\n        /* \"#utility.yul\":2172:2271   */\n      pop\n      pop\n      pop\n      jump\t// out\n        /* \"#utility.yul\":2307:2844   */\n    tag_37:\n        /* \"#utility.yul\":2435:2438   */\n      0x00\n        /* \"#utility.yul\":2456:2542   */\n      tag_62\n        /* \"#utility.yul\":2535:2541   */\n      dup4\n        /* \"#utility.yul\":2530:2533   */\n      dup6\n        /* \"#utility.yul\":2456:2542   */\n      tag_34\n      jump\t// in\n    tag_62:\n        /* \"#utility.yul\":2449:2542   */\n      swap4\n      pop\n        /* \"#utility.yul\":2566:2632   */\n      0x07ffffffffffffffffffffffffffffffffffffffffffffffffffffffffffffff\n        /* \"#utility.yul\":2558:2564   */\n      dup4\n        /* \"#utility.yul\":2555:2633   */\n      gt\n        /* \"#utility.yul\":2552:2717   */\n      iszero\n      tag_63\n      jumpi\n        /* \"#utility.yul\":2636:2715   */\n      tag_64\n      tag_35\n      jump\t// in\n    tag_64:\n        /* \"#utility.yul\":2552:2717   */\n    tag_63:\n        /* \"#utility.yul\":2748:2752   */\n      0x20\n        /* \"#utility.yul\":2740:2746   */\n      dup4\n        /* \"#utility.yul\":2736:2753   */\n      mul\n        /* \"#utility.yul\":2726:2753   */\n      swap3\n      pop\n        /* \"#utility.yul\":2763:2806   */\n      tag_65\n        /* \"#utility.yul\":2799:2805   */\n      dup4\n        /* \"#utility.yul\":2794:2797   */\n      dup6\n        /* \"#utility.yul\":2787:2792   */\n      dup5\n        /* \"#utility.yul\":2763:2806   */\n      tag_36\n      jump\t// in\n    tag_65:\n        /* \"#utility.yul\":2831:2837   */\n      dup3\n        /* \"#utility.yul\":2826:2829   */\n      dup5\n        /* \"#utility.yul\":2822:2838   */\n      add\n        /* \"#utility.yul\":2815:2838   */\n      swap1\n      pop\n        /* \"#utility.yul\":2307:2844   */\n      swap4\n      swap3\n      pop\n      pop\n      pop\n      jump\t// out\n        /* \"#utility.yul\":2850:3243   */\n    tag_15:\n        /* \"#utility.yul\":3003:3007   */\n      0x00\n        /* \"#utility.yul\":3041:3043   */\n      0x20\n        /* \"#utility.yul\":3030:3039   */\n      dup3\n        /* \"#utility.yul\":3026:3044   */\n      add\n        /* \"#utility.yul\":3018:3044   */\n      swap1\n      pop\n        /* \"#utility.yul\":3090:3099   */\n      dup2\n        /* \"#utility.yul\":3084:3088   */\n      dup2\n        /* \"#utility.yul\":3080:3100   */\n      sub\n        /* \"#utility.yul\":3076:3077   */\n      0x00\n        /* \"#utility.yul\":3065:3074   */\n      dup4\n        /* \"#utility.yul\":3061:3078   */\n      add\n        /* \"#utility.yul\":3054:3101   */\n      mstore\n        /* \"#utility.yul\":3118:3236   */\n      tag_67\n        /* \"#utility.yul\":3231:3235   */\n      dup2\n        /* \"#utility.yul\":3222:3228   */\n      dup5\n        /* \"#utility.yul\":3214:3220   */\n      dup7\n        /* \"#utility.yul\":3118:3236   */\n      tag_37\n      jump\t// in\n    tag_67:\n        /* \"#utility.yul\":3110:3236   */\n      swap1\n      pop\n        /* \"#utility.yul\":2850:3243   */\n      swap4\n      swap3\n      pop\n      pop\n      pop\n      jump\t// out\n        /* \"#utility.yul\":3249:3429   */\n    tag_21:\n        /* \"#utility.yul\":3297:3374   */\n      0x4e487b7100000000000000000000000000000000000000000000000000000000\n        /* \"#utility.yul\":3294:3295   */\n      0x00\n        /* \"#utility.yul\":3287:3375   */\n      mstore\n        /* \"#utility.yul\":3394:3398   */\n      0x32\n        /* \"#utility.yul\":3391:3392   */\n      0x04\n        /* \"#utility.yul\":3384:3399   */\n      mstore\n        /* \"#utility.yul\":3418:3422   */\n      0x24\n        /* \"#utility.yul\":3415:3416   */\n      0x00\n        /* \"#utility.yul\":3408:3423   */\n      revert\n\n    auxdata: 0xa26469706673582212203bdb334b881da4930c0c239973e84c6baeeccaaba771c25eecbc07a090bed98e64736f6c634300081e0033\n}\n",
				"bytecode": {
					"linkReferences": {},
					"object": "60806040526040518060600160405280600160ff168152602001600260ff168152602001600360ff168152505f90600360389291906048565b503480156043575f5ffd5b5060ac565b828054828255905f5260205f209081019282156084579160200282015b828111156083578251829060ff169055916020019190600101906065565b5b509050608f91906093565b5090565b5b8082111560a8575f815f9055506001016094565b5090565b6102e5806100b95f395ff3fe608060405234801561000f575f5ffd5b506004361061003f575f3560e01c806320028990146100435780636a8d1e081461004d5780639b1a379c14610057575b5f5ffd5b61004b610088565b005b6100556100fd565b005b610071600480360381019061006c919061019d565b610125565b60405161007f929190610260565b60405180910390f35b5f5f8054806020026020016040519081016040528092919081815260200182805480156100d257602002820191905f5260205f20905b8154815260200190600101908083116100be575b505050505090506064815f815181106100ee576100ed610282565b5b60200260200101818152505050565b5f5f90506064815f8154811061011657610115610282565b5b905f5260205f20018190555050565b365f8383915091509250929050565b5f5ffd5b5f5ffd5b5f5ffd5b5f5ffd5b5f5ffd5b5f5f83601f84011261015d5761015c61013c565b5b8235905067ffffffffffffffff81111561017a57610179610140565b5b60208301915083602082028301111561019657610195610144565b5b9250929050565b5f5f602083850312156101b3576101b2610134565b5b5f83013567ffffffffffffffff8111156101d0576101cf610138565b5b6101dc85828601610148565b92509250509250929050565b5f82825260208201905092915050565b5f5ffd5b82818337505050565b5f61021083856101e8565b93507f07ffffffffffffffffffffffffffffffffffffffffffffffffffffffffffffff831115610243576102426101f8565b5b6020830292506102548385846101fc565b82840190509392505050565b5f6020820190508181035f830152610279818486610205565b90509392505050565b7f4e487b71000000000000000000000000000000000000000000000000000000005f52603260045260245ffdfea26469706673582212203bdb334b881da4930c0c239973e84c6baeeccaaba771c25eecbc07a090bed98e64736f6c634300081e0033",
					"opcodes": "PUSH1 0x80 PUSH1 0x40 MSTORE PUSH1 0x40 MLOAD DUP1 PUSH1 0x60 ADD PUSH1 0x40 MSTORE DUP1 PUSH1 0x1 PUSH1 0xFF AND DUP2 MSTORE PUSH1 0x20 ADD PUSH1 0x2 PUSH1 0xFF AND DUP2 MSTORE PUSH1 0x20 ADD PUSH1 0x3 PUSH1 0xFF AND DUP2 MSTORE POP PUSH0 SWAP1 PUSH1 0x3 PUSH1 0x38 SWAP3 SWAP2 SWAP1 PUSH1 0x48 JUMP JUMPDEST POP CALLVALUE DUP1 ISZERO PUSH1 0x43 JUMPI PUSH0 PUSH0 REVERT JUMPDEST POP PUSH1 0xAC JUMP JUMPDEST DUP3 DUP1 SLOAD DUP3 DUP3 SSTORE SWAP1 PUSH0 MSTORE PUSH1 0x20 PUSH0 KECCAK256 SWAP1 DUP2 ADD SWAP3 DUP3 ISZERO PUSH1 0x84 JUMPI SWAP2 PUSH1 0x20 MUL DUP3 ADD JUMPDEST DUP3 DUP2 GT ISZERO PUSH1 0x83 JUMPI DUP3 MLOAD DUP3 SWAP1 PUSH1 0xFF AND SWAP1 SSTORE SWAP2 PUSH1 0x20 ADD SWAP2 SWAP1 PUSH1 0x1 ADD SWAP1 PUSH1 0x65 JUMP JUMPDEST JUMPDEST POP SWAP1 POP PUSH1 0x8F SWAP2 SWAP1 PUSH1 0x93 JUMP JUMPDEST POP SWAP1 JUMP JUMPDEST JUMPDEST DUP1 DUP3 GT ISZERO PUSH1 0xA8 JUMPI PUSH0 DUP2 PUSH0 SWAP1 SSTORE POP PUSH1 0x1 ADD PUSH1 0x94 JUMP JUMPDEST POP SWAP1 JUMP JUMPDEST PUSH2 0x2E5 DUP1 PUSH2 0xB9 PUSH0 CODECOPY PUSH0 RETURN INVALID PUSH1 0x80 PUSH1 0x40 MSTORE CALLVALUE DUP1 ISZERO PUSH2 0xF JUMPI PUSH0 PUSH0 REVERT JUMPDEST POP PUSH1 0x4 CALLDATASIZE LT PUSH2 0x3F JUMPI PUSH0 CALLDATALOAD PUSH1 0xE0 SHR DUP1 PUSH4 0x20028990 EQ PUSH2 0x43 JUMPI DUP1 PUSH4 0x6A8D1E08 EQ PUSH2 0x4D JUMPI DUP1 PUSH4 0x9B1A379C EQ PUSH2 0x57 JUMPI JUMPDEST PUSH0 PUSH0 REVERT JUMPDEST PUSH2 0x4B PUSH2 0x88 JUMP JUMPDEST STOP JUMPDEST PUSH2 0x55 PUSH2 0xFD JUMP JUMPDEST STOP JUMPDEST PUSH2 0x71 PUSH1 0x4 DUP1 CALLDATASIZE SUB DUP2 ADD SWAP1 PUSH2 0x6C SWAP2 SWAP1 PUSH2 0x19D JUMP JUMPDEST PUSH2 0x125 JUMP JUMPDEST PUSH1 0x40 MLOAD PUSH2 0x7F SWAP3 SWAP2 SWAP1 PUSH2 0x260 JUMP JUMPDEST PUSH1 0x40 MLOAD DUP1 SWAP2 SUB SWAP1 RETURN JUMPDEST PUSH0 PUSH0 DUP1 SLOAD DUP1 PUSH1 0x20 MUL PUSH1 0x20 ADD PUSH1 0x40 MLOAD SWAP1 DUP2 ADD PUSH1 0x40 MSTORE DUP1 SWAP3 SWAP2 SWAP1 DUP2 DUP2 MSTORE PUSH1 0x20 ADD DUP3 DUP1 SLOAD DUP1 ISZERO PUSH2 0xD2 JUMPI PUSH1 0x20 MUL DUP3 ADD SWAP2 SWAP1 PUSH0 MSTORE PUSH1 0x20 PUSH0 KECCAK256 SWAP1 JUMPDEST DUP2 SLOAD DUP2 MSTORE PUSH1 0x20 ADD SWAP1 PUSH1 0x1 ADD SWAP1 DUP1 DUP4 GT PUSH2 0xBE JUMPI JUMPDEST POP POP POP POP POP SWAP1 POP PUSH1 0x64 DUP2 PUSH0 DUP2 MLOAD DUP2 LT PUSH2 0xEE JUMPI PUSH2 0xED PUSH2 0x282 JUMP JUMPDEST JUMPDEST PUSH1 0x20 MUL PUSH1 0x20 ADD ADD DUP2 DUP2 MSTORE POP POP POP JUMP JUMPDEST PUSH0 PUSH0 SWAP1 POP PUSH1 0x64 DUP2 PUSH0 DUP2 SLOAD DUP2 LT PUSH2 0x116 JUMPI PUSH2 0x115 PUSH2 0x282 JUMP JUMPDEST JUMPDEST SWAP1 PUSH0 MSTORE PUSH1 0x20 PUSH0 KECCAK256 ADD DUP2 SWAP1 SSTORE POP POP JUMP JUMPDEST CALLDATASIZE PUSH0 DUP4 DUP4 SWAP2 POP SWAP2 POP SWAP3 POP SWAP3 SWAP1 POP JUMP JUMPDEST PUSH0 PUSH0 REVERT JUMPDEST PUSH0 PUSH0 REVERT JUMPDEST PUSH0 PUSH0 REVERT JUMPDEST PUSH0 PUSH0 REVERT JUMPDEST PUSH0 PUSH0 REVERT JUMPDEST PUSH0 PUSH0 DUP4 PUSH1 0x1F DUP5 ADD SLT PUSH2 0x15D JUMPI PUSH2 0x15C PUSH2 0x13C JUMP JUMPDEST JUMPDEST DUP3 CALLDATALOAD SWAP1 POP PUSH8 0xFFFFFFFFFFFFFFFF DUP2 GT ISZERO PUSH2 0x17A JUMPI PUSH2 0x179 PUSH2 0x140 JUMP JUMPDEST JUMPDEST PUSH1 0x20 DUP4 ADD SWAP2 POP DUP4 PUSH1 0x20 DUP3 MUL DUP4 ADD GT ISZERO PUSH2 0x196 JUMPI PUSH2 0x195 PUSH2 0x144 JUMP JUMPDEST JUMPDEST SWAP3 POP SWAP3 SWAP1 POP JUMP JUMPDEST PUSH0 PUSH0 PUSH1 0x20 DUP4 DUP6 SUB SLT ISZERO PUSH2 0x1B3 JUMPI PUSH2 0x1B2 PUSH2 0x134 JUMP JUMPDEST JUMPDEST PUSH0 DUP4 ADD CALLDATALOAD PUSH8 0xFFFFFFFFFFFFFFFF DUP2 GT ISZERO PUSH2 0x1D0 JUMPI PUSH2 0x1CF PUSH2 0x138 JUMP JUMPDEST JUMPDEST PUSH2 0x1DC DUP6 DUP3 DUP7 ADD PUSH2 0x148 JUMP JUMPDEST SWAP3 POP SWAP3 POP POP SWAP3 POP SWAP3 SWAP1 POP JUMP JUMPDEST PUSH0 DUP3 DUP3 MSTORE PUSH1 0x20 DUP3 ADD SWAP1 POP SWAP3 SWAP2 POP POP JUMP JUMPDEST PUSH0 PUSH0 REVERT JUMPDEST DUP3 DUP2 DUP4 CALLDATACOPY POP POP POP JUMP JUMPDEST PUSH0 PUSH2 0x210 DUP4 DUP6 PUSH2 0x1E8 JUMP JUMPDEST SWAP4 POP PUSH32 0x7FFFFFFFFFFFFFFFFFFFFFFFFFFFFFFFFFFFFFFFFFFFFFFFFFFFFFFFFFFFFFF DUP4 GT ISZERO PUSH2 0x243 JUMPI PUSH2 0x242 PUSH2 0x1F8 JUMP JUMPDEST JUMPDEST PUSH1 0x20 DUP4 MUL SWAP3 POP PUSH2 0x254 DUP4 DUP6 DUP5 PUSH2 0x1FC JUMP JUMPDEST DUP3 DUP5 ADD SWAP1 POP SWAP4 SWAP3 POP POP POP JUMP JUMPDEST PUSH0 PUSH1 0x20 DUP3 ADD SWAP1 POP DUP2 DUP2 SUB PUSH0 DUP4 ADD MSTORE PUSH2 0x279 DUP2 DUP5 DUP7 PUSH2 0x205 JUMP JUMPDEST SWAP1 POP SWAP4 SWAP3 POP POP POP JUMP JUMPDEST PUSH32 0x4E487B7100000000000000000000000000000000000000000000000000000000 PUSH0 MSTORE PUSH1 0x32 PUSH1 0x4 MSTORE PUSH1 0x24 PUSH0 REVERT INVALID LOG2 PUSH5 0x6970667358 0x22 SLT KECCAK256 EXTCODESIZE 0xDB CALLER 0x4B DUP9 SAR LOG4 SWAP4 0xC 0xC 0x23 SWAP10 PUSH20 0xE84C6BAEECCAABA771C25EECBC07A090BED98E64 PUSH20 0x6F6C634300081E00330000000000000000000000 "
				},
				"gasEstimates": {
					"creation": {
						"codeDepositCost": "148200",
						"executionCost": "infinite",
						"totalCost": "infinite"
					},
					"external": {
						"fCalldata(uint256[])": "infinite",
						"fMemory()": "infinite",
						"fStorage()": "24445"
					}
				},
				"methodIdentifiers": {
					"fCalldata(uint256[])": "9b1a379c",
					"fMemory()": "20028990",
					"fStorage()": "6a8d1e08"
				}
			},
			"storageLayout": {
				"storage": [
					{
						"astId": 21,
						"contract": "contracts/05_DataStorage.sol:DataStorage",
						"label": "x",
						"offset": 0,
						"slot": "0",
						"type": "t_array(t_uint256)dyn_storage"
					}
				],
				"types": {
					"t_array(t_uint256)dyn_storage": {
						"base": "t_uint256",
						"encoding": "dynamic_array",
						"label": "uint256[]",
						"numberOfBytes": "32"
					},
					"t_uint256": {
						"encoding": "inplace",
						"label": "uint256",
						"numberOfBytes": "32"
					}
				}
			},
			"userdoc": {
				"kind": "user",
				"methods": {},
				"version": 1
			}
		}
	}
}