{
	"contracts/Task1/RomanToInt.sol": {
		"RomanToInt": {
			"abi": [
				{
					"inputs": [
						{
							"internalType": "string",
							"name": "roman",
							"type": "string"
						}
					],
					"name": "romanToInt",
					"outputs": [
						{
							"internalType": "uint256",
							"name": "",
							"type": "uint256"
						}
					],
					"stateMutability": "pure",
					"type": "function"
				}
			],
			"devdoc": {
				"kind": "dev",
				"methods": {},
				"version": 1
			},
			"evm": {
				"assembly": "    /* \"contracts/Task1/RomanToInt.sol\":58:2110  contract RomanToInt{... */\n  mstore(0x40, 0x80)\n  callvalue\n  dup1\n  iszero\n  tag_1\n  jumpi\n  revert(0x00, 0x00)\ntag_1:\n  pop\n  dataSize(sub_0)\n  dup1\n  dataOffset(sub_0)\n  0x00\n  codecopy\n  0x00\n  return\nstop\n\nsub_0: assembly {\n        /* \"contracts/Task1/RomanToInt.sol\":58:2110  contract RomanToInt{... */\n      mstore(0x40, 0x80)\n      callvalue\n      dup1\n      iszero\n      tag_1\n      jumpi\n      revert(0x00, 0x00)\n    tag_1:\n      pop\n      jumpi(tag_2, lt(calldatasize, 0x04))\n      shr(0xe0, calldataload(0x00))\n      dup1\n      0xcb159dfe\n      eq\n      tag_3\n      jumpi\n    tag_2:\n      revert(0x00, 0x00)\n        /* \"contracts/Task1/RomanToInt.sol\":980:1687  function romanToInt(string calldata roman) external pure returns (uint256) {... */\n    tag_3:\n      tag_4\n      0x04\n      dup1\n      calldatasize\n      sub\n      dup2\n      add\n      swap1\n      tag_5\n      swap2\n      swap1\n      tag_6\n      jump\t// in\n    tag_5:\n      tag_7\n      jump\t// in\n    tag_4:\n      mload(0x40)\n      tag_8\n      swap2\n      swap1\n      tag_9\n      jump\t// in\n    tag_8:\n      mload(0x40)\n      dup1\n      swap2\n      sub\n      swap1\n      return\n    tag_7:\n        /* \"contracts/Task1/RomanToInt.sol\":1046:1053  uint256 */\n      0x00\n        /* \"contracts/Task1/RomanToInt.sol\":1065:1088  bytes memory romanBytes */\n      0x00\n        /* \"contracts/Task1/RomanToInt.sol\":1097:1102  roman */\n      dup4\n      dup4\n        /* \"contracts/Task1/RomanToInt.sol\":1065:1103  bytes memory romanBytes = bytes(roman) */\n      dup1\n      dup1\n      0x1f\n      add\n      0x20\n      dup1\n      swap2\n      div\n      mul\n      0x20\n      add\n      mload(0x40)\n      swap1\n      dup2\n      add\n      0x40\n      mstore\n      dup1\n      swap4\n      swap3\n      swap2\n      swap1\n      dup2\n      dup2\n      mstore\n      0x20\n      add\n      dup4\n      dup4\n      dup1\n      dup3\n      dup5\n      calldatacopy\n      0x00\n      dup2\n      dup5\n      add\n      mstore\n      not(0x1f)\n      0x1f\n      dup3\n      add\n      and\n      swap1\n      pop\n      dup1\n      dup4\n      add\n      swap3\n      pop\n      pop\n      pop\n      pop\n      pop\n      pop\n      pop\n      swap1\n      pop\n        /* \"contracts/Task1/RomanToInt.sol\":1113:1127  uint256 result */\n      0x00\n        /* \"contracts/Task1/RomanToInt.sol\":1130:1131  0 */\n      0x00\n        /* \"contracts/Task1/RomanToInt.sol\":1113:1131  uint256 result = 0 */\n      swap1\n      pop\n        /* \"contracts/Task1/RomanToInt.sol\":1141:1150  uint256 n */\n      0x00\n        /* \"contracts/Task1/RomanToInt.sol\":1153:1163  romanBytes */\n      dup3\n        /* \"contracts/Task1/RomanToInt.sol\":1153:1170  romanBytes.length */\n      mload\n        /* \"contracts/Task1/RomanToInt.sol\":1141:1170  uint256 n = romanBytes.length */\n      swap1\n      pop\n        /* \"contracts/Task1/RomanToInt.sol\":1180:1197  uint256 prevValue */\n      0x00\n        /* \"contracts/Task1/RomanToInt.sol\":1200:1201  0 */\n      0x00\n        /* \"contracts/Task1/RomanToInt.sol\":1180:1201  uint256 prevValue = 0 */\n      swap1\n      pop\n        /* \"contracts/Task1/RomanToInt.sol\":1359:1368  uint256 i */\n      0x00\n        /* \"contracts/Task1/RomanToInt.sol\":1371:1372  n */\n      dup3\n        /* \"contracts/Task1/RomanToInt.sol\":1359:1372  uint256 i = n */\n      swap1\n      pop\n        /* \"contracts/Task1/RomanToInt.sol\":1354:1657  for (uint256 i = n; i > 0; i--) {... */\n    tag_11:\n        /* \"contracts/Task1/RomanToInt.sol\":1378:1379  0 */\n      0x00\n        /* \"contracts/Task1/RomanToInt.sol\":1374:1375  i */\n      dup2\n        /* \"contracts/Task1/RomanToInt.sol\":1374:1379  i > 0 */\n      gt\n        /* \"contracts/Task1/RomanToInt.sol\":1354:1657  for (uint256 i = n; i > 0; i--) {... */\n      iszero\n      tag_12\n      jumpi\n        /* \"contracts/Task1/RomanToInt.sol\":1400:1420  uint256 currentValue */\n      0x00\n        /* \"contracts/Task1/RomanToInt.sol\":1423:1450  getValue(romanBytes[i - 1]) */\n      tag_14\n        /* \"contracts/Task1/RomanToInt.sol\":1432:1442  romanBytes */\n      dup7\n        /* \"contracts/Task1/RomanToInt.sol\":1447:1448  1 */\n      0x01\n        /* \"contracts/Task1/RomanToInt.sol\":1443:1444  i */\n      dup5\n        /* \"contracts/Task1/RomanToInt.sol\":1443:1448  i - 1 */\n      tag_15\n      swap2\n      swap1\n      tag_16\n      jump\t// in\n    tag_15:\n        /* \"contracts/Task1/RomanToInt.sol\":1432:1449  romanBytes[i - 1] */\n      dup2\n      mload\n      dup2\n      lt\n      tag_17\n      jumpi\n      tag_18\n      tag_19\n      jump\t// in\n    tag_18:\n    tag_17:\n      0x20\n      add\n      add\n      mload\n      0xf8\n      shr\n      0xf8\n      shl\n        /* \"contracts/Task1/RomanToInt.sol\":1423:1431  getValue */\n      tag_20\n        /* \"contracts/Task1/RomanToInt.sol\":1423:1450  getValue(romanBytes[i - 1]) */\n      jump\t// in\n    tag_14:\n        /* \"contracts/Task1/RomanToInt.sol\":1400:1450  uint256 currentValue = getValue(romanBytes[i - 1]) */\n      swap1\n      pop\n        /* \"contracts/Task1/RomanToInt.sol\":1482:1491  prevValue */\n      dup3\n        /* \"contracts/Task1/RomanToInt.sol\":1467:1479  currentValue */\n      dup2\n        /* \"contracts/Task1/RomanToInt.sol\":1467:1491  currentValue < prevValue */\n      lt\n        /* \"contracts/Task1/RomanToInt.sol\":1464:1609  if(currentValue < prevValue) {... */\n      iszero\n      tag_21\n      jumpi\n        /* \"contracts/Task1/RomanToInt.sol\":1521:1533  currentValue */\n      dup1\n        /* \"contracts/Task1/RomanToInt.sol\":1511:1533  result -= currentValue */\n      dup6\n      tag_22\n      swap2\n      swap1\n      tag_16\n      jump\t// in\n    tag_22:\n      swap5\n      pop\n        /* \"contracts/Task1/RomanToInt.sol\":1464:1609  if(currentValue < prevValue) {... */\n      jump(tag_23)\n    tag_21:\n        /* \"contracts/Task1/RomanToInt.sol\":1582:1594  currentValue */\n      dup1\n        /* \"contracts/Task1/RomanToInt.sol\":1572:1594  result += currentValue */\n      dup6\n      tag_24\n      swap2\n      swap1\n      tag_25\n      jump\t// in\n    tag_24:\n      swap5\n      pop\n        /* \"contracts/Task1/RomanToInt.sol\":1464:1609  if(currentValue < prevValue) {... */\n    tag_23:\n        /* \"contracts/Task1/RomanToInt.sol\":1634:1646  currentValue */\n      dup1\n        /* \"contracts/Task1/RomanToInt.sol\":1622:1646  prevValue = currentValue */\n      swap3\n      pop\n        /* \"contracts/Task1/RomanToInt.sol\":1386:1657  {... */\n      pop\n        /* \"contracts/Task1/RomanToInt.sol\":1381:1384  i-- */\n      dup1\n      dup1\n      tag_26\n      swap1\n      tag_27\n      jump\t// in\n    tag_26:\n      swap2\n      pop\n      pop\n        /* \"contracts/Task1/RomanToInt.sol\":1354:1657  for (uint256 i = n; i > 0; i--) {... */\n      jump(tag_11)\n    tag_12:\n      pop\n        /* \"contracts/Task1/RomanToInt.sol\":1673:1679  result */\n      dup3\n        /* \"contracts/Task1/RomanToInt.sol\":1666:1679  return result */\n      swap5\n      pop\n      pop\n      pop\n      pop\n      pop\n        /* \"contracts/Task1/RomanToInt.sol\":980:1687  function romanToInt(string calldata roman) external pure returns (uint256) {... */\n      swap3\n      swap2\n      pop\n      pop\n      jump\t// out\n        /* \"contracts/Task1/RomanToInt.sol\":1694:2102  function getValue(bytes1 romanChar) internal pure returns (uint256) {... */\n    tag_20:\n        /* \"contracts/Task1/RomanToInt.sol\":1753:1760  uint256 */\n      0x00\n        /* \"contracts/Task1/RomanToInt.sol\":1776:1792  romanChar == 'I' */\n      0x4900000000000000000000000000000000000000000000000000000000000000\n        /* \"contracts/Task1/RomanToInt.sol\":1776:1785  romanChar */\n      dup3\n        /* \"contracts/Task1/RomanToInt.sol\":1776:1792  romanChar == 'I' */\n      not(0xffffffffffffffffffffffffffffffffffffffffffffffffffffffffffffff)\n      and\n      sub\n        /* \"contracts/Task1/RomanToInt.sol\":1772:1802  if (romanChar == 'I') return 1 */\n      tag_29\n      jumpi\n        /* \"contracts/Task1/RomanToInt.sol\":1801:1802  1 */\n      0x01\n        /* \"contracts/Task1/RomanToInt.sol\":1794:1802  return 1 */\n      swap1\n      pop\n      jump(tag_28)\n        /* \"contracts/Task1/RomanToInt.sol\":1772:1802  if (romanChar == 'I') return 1 */\n    tag_29:\n        /* \"contracts/Task1/RomanToInt.sol\":1816:1832  romanChar == 'V' */\n      0x5600000000000000000000000000000000000000000000000000000000000000\n        /* \"contracts/Task1/RomanToInt.sol\":1816:1825  romanChar */\n      dup3\n        /* \"contracts/Task1/RomanToInt.sol\":1816:1832  romanChar == 'V' */\n      not(0xffffffffffffffffffffffffffffffffffffffffffffffffffffffffffffff)\n      and\n      sub\n        /* \"contracts/Task1/RomanToInt.sol\":1812:1842  if (romanChar == 'V') return 5 */\n      tag_30\n      jumpi\n        /* \"contracts/Task1/RomanToInt.sol\":1841:1842  5 */\n      0x05\n        /* \"contracts/Task1/RomanToInt.sol\":1834:1842  return 5 */\n      swap1\n      pop\n      jump(tag_28)\n        /* \"contracts/Task1/RomanToInt.sol\":1812:1842  if (romanChar == 'V') return 5 */\n    tag_30:\n        /* \"contracts/Task1/RomanToInt.sol\":1856:1872  romanChar == 'X' */\n      0x5800000000000000000000000000000000000000000000000000000000000000\n        /* \"contracts/Task1/RomanToInt.sol\":1856:1865  romanChar */\n      dup3\n        /* \"contracts/Task1/RomanToInt.sol\":1856:1872  romanChar == 'X' */\n      not(0xffffffffffffffffffffffffffffffffffffffffffffffffffffffffffffff)\n      and\n      sub\n        /* \"contracts/Task1/RomanToInt.sol\":1852:1883  if (romanChar == 'X') return 10 */\n      tag_31\n      jumpi\n        /* \"contracts/Task1/RomanToInt.sol\":1881:1883  10 */\n      0x0a\n        /* \"contracts/Task1/RomanToInt.sol\":1874:1883  return 10 */\n      swap1\n      pop\n      jump(tag_28)\n        /* \"contracts/Task1/RomanToInt.sol\":1852:1883  if (romanChar == 'X') return 10 */\n    tag_31:\n        /* \"contracts/Task1/RomanToInt.sol\":1897:1913  romanChar == 'L' */\n      0x4c00000000000000000000000000000000000000000000000000000000000000\n        /* \"contracts/Task1/RomanToInt.sol\":1897:1906  romanChar */\n      dup3\n        /* \"contracts/Task1/RomanToInt.sol\":1897:1913  romanChar == 'L' */\n      not(0xffffffffffffffffffffffffffffffffffffffffffffffffffffffffffffff)\n      and\n      sub\n        /* \"contracts/Task1/RomanToInt.sol\":1893:1924  if (romanChar == 'L') return 50 */\n      tag_32\n      jumpi\n        /* \"contracts/Task1/RomanToInt.sol\":1922:1924  50 */\n      0x32\n        /* \"contracts/Task1/RomanToInt.sol\":1915:1924  return 50 */\n      swap1\n      pop\n      jump(tag_28)\n        /* \"contracts/Task1/RomanToInt.sol\":1893:1924  if (romanChar == 'L') return 50 */\n    tag_32:\n        /* \"contracts/Task1/RomanToInt.sol\":1938:1954  romanChar == 'C' */\n      0x4300000000000000000000000000000000000000000000000000000000000000\n        /* \"contracts/Task1/RomanToInt.sol\":1938:1947  romanChar */\n      dup3\n        /* \"contracts/Task1/RomanToInt.sol\":1938:1954  romanChar == 'C' */\n      not(0xffffffffffffffffffffffffffffffffffffffffffffffffffffffffffffff)\n      and\n      sub\n        /* \"contracts/Task1/RomanToInt.sol\":1934:1966  if (romanChar == 'C') return 100 */\n      tag_33\n      jumpi\n        /* \"contracts/Task1/RomanToInt.sol\":1963:1966  100 */\n      0x64\n        /* \"contracts/Task1/RomanToInt.sol\":1956:1966  return 100 */\n      swap1\n      pop\n      jump(tag_28)\n        /* \"contracts/Task1/RomanToInt.sol\":1934:1966  if (romanChar == 'C') return 100 */\n    tag_33:\n        /* \"contracts/Task1/RomanToInt.sol\":1980:1996  romanChar == 'D' */\n      0x4400000000000000000000000000000000000000000000000000000000000000\n        /* \"contracts/Task1/RomanToInt.sol\":1980:1989  romanChar */\n      dup3\n        /* \"contracts/Task1/RomanToInt.sol\":1980:1996  romanChar == 'D' */\n      not(0xffffffffffffffffffffffffffffffffffffffffffffffffffffffffffffff)\n      and\n      sub\n        /* \"contracts/Task1/RomanToInt.sol\":1976:2008  if (romanChar == 'D') return 500 */\n      tag_34\n      jumpi\n        /* \"contracts/Task1/RomanToInt.sol\":2005:2008  500 */\n      0x01f4\n        /* \"contracts/Task1/RomanToInt.sol\":1998:2008  return 500 */\n      swap1\n      pop\n      jump(tag_28)\n        /* \"contracts/Task1/RomanToInt.sol\":1976:2008  if (romanChar == 'D') return 500 */\n    tag_34:\n        /* \"contracts/Task1/RomanToInt.sol\":2022:2038  romanChar == 'M' */\n      0x4d00000000000000000000000000000000000000000000000000000000000000\n        /* \"contracts/Task1/RomanToInt.sol\":2022:2031  romanChar */\n      dup3\n        /* \"contracts/Task1/RomanToInt.sol\":2022:2038  romanChar == 'M' */\n      not(0xffffffffffffffffffffffffffffffffffffffffffffffffffffffffffffff)\n      and\n      sub\n        /* \"contracts/Task1/RomanToInt.sol\":2018:2051  if (romanChar == 'M') return 1000 */\n      tag_35\n      jumpi\n        /* \"contracts/Task1/RomanToInt.sol\":2047:2051  1000 */\n      0x03e8\n        /* \"contracts/Task1/RomanToInt.sol\":2040:2051  return 1000 */\n      swap1\n      pop\n      jump(tag_28)\n        /* \"contracts/Task1/RomanToInt.sol\":2018:2051  if (romanChar == 'M') return 1000 */\n    tag_35:\n        /* \"contracts/Task1/RomanToInt.sol\":2061:2095  revert(\"Invalid Roman character.\") */\n      mload(0x40)\n      0x08c379a000000000000000000000000000000000000000000000000000000000\n      dup2\n      mstore\n      0x04\n      add\n      tag_36\n      swap1\n      tag_37\n      jump\t// in\n    tag_36:\n      mload(0x40)\n      dup1\n      swap2\n      sub\n      swap1\n      revert\n        /* \"contracts/Task1/RomanToInt.sol\":1694:2102  function getValue(bytes1 romanChar) internal pure returns (uint256) {... */\n    tag_28:\n      swap2\n      swap1\n      pop\n      jump\t// out\n        /* \"#utility.yul\":88:205   */\n    tag_39:\n        /* \"#utility.yul\":197:198   */\n      0x00\n        /* \"#utility.yul\":194:195   */\n      0x00\n        /* \"#utility.yul\":187:199   */\n      revert\n        /* \"#utility.yul\":211:328   */\n    tag_40:\n        /* \"#utility.yul\":320:321   */\n      0x00\n        /* \"#utility.yul\":317:318   */\n      0x00\n        /* \"#utility.yul\":310:322   */\n      revert\n        /* \"#utility.yul\":334:451   */\n    tag_41:\n        /* \"#utility.yul\":443:444   */\n      0x00\n        /* \"#utility.yul\":440:441   */\n      0x00\n        /* \"#utility.yul\":433:445   */\n      revert\n        /* \"#utility.yul\":457:574   */\n    tag_42:\n        /* \"#utility.yul\":566:567   */\n      0x00\n        /* \"#utility.yul\":563:564   */\n      0x00\n        /* \"#utility.yul\":556:568   */\n      revert\n        /* \"#utility.yul\":580:697   */\n    tag_43:\n        /* \"#utility.yul\":689:690   */\n      0x00\n        /* \"#utility.yul\":686:687   */\n      0x00\n        /* \"#utility.yul\":679:691   */\n      revert\n        /* \"#utility.yul\":717:1270   */\n    tag_44:\n        /* \"#utility.yul\":775:783   */\n      0x00\n        /* \"#utility.yul\":785:791   */\n      0x00\n        /* \"#utility.yul\":835:838   */\n      dup4\n        /* \"#utility.yul\":828:832   */\n      0x1f\n        /* \"#utility.yul\":820:826   */\n      dup5\n        /* \"#utility.yul\":816:833   */\n      add\n        /* \"#utility.yul\":812:839   */\n      slt\n        /* \"#utility.yul\":802:924   */\n      tag_59\n      jumpi\n        /* \"#utility.yul\":843:922   */\n      tag_60\n      tag_41\n      jump\t// in\n    tag_60:\n        /* \"#utility.yul\":802:924   */\n    tag_59:\n        /* \"#utility.yul\":956:962   */\n      dup3\n        /* \"#utility.yul\":943:963   */\n      calldataload\n        /* \"#utility.yul\":933:963   */\n      swap1\n      pop\n        /* \"#utility.yul\":986:1004   */\n      0xffffffffffffffff\n        /* \"#utility.yul\":978:984   */\n      dup2\n        /* \"#utility.yul\":975:1005   */\n      gt\n        /* \"#utility.yul\":972:1089   */\n      iszero\n      tag_61\n      jumpi\n        /* \"#utility.yul\":1008:1087   */\n      tag_62\n      tag_42\n      jump\t// in\n    tag_62:\n        /* \"#utility.yul\":972:1089   */\n    tag_61:\n        /* \"#utility.yul\":1122:1126   */\n      0x20\n        /* \"#utility.yul\":1114:1120   */\n      dup4\n        /* \"#utility.yul\":1110:1127   */\n      add\n        /* \"#utility.yul\":1098:1127   */\n      swap2\n      pop\n        /* \"#utility.yul\":1176:1179   */\n      dup4\n        /* \"#utility.yul\":1168:1172   */\n      0x01\n        /* \"#utility.yul\":1160:1166   */\n      dup3\n        /* \"#utility.yul\":1156:1173   */\n      mul\n        /* \"#utility.yul\":1146:1154   */\n      dup4\n        /* \"#utility.yul\":1142:1174   */\n      add\n        /* \"#utility.yul\":1139:1180   */\n      gt\n        /* \"#utility.yul\":1136:1264   */\n      iszero\n      tag_63\n      jumpi\n        /* \"#utility.yul\":1183:1262   */\n      tag_64\n      tag_43\n      jump\t// in\n    tag_64:\n        /* \"#utility.yul\":1136:1264   */\n    tag_63:\n        /* \"#utility.yul\":717:1270   */\n      swap3\n      pop\n      swap3\n      swap1\n      pop\n      jump\t// out\n        /* \"#utility.yul\":1276:1805   */\n    tag_6:\n        /* \"#utility.yul\":1347:1353   */\n      0x00\n        /* \"#utility.yul\":1355:1361   */\n      0x00\n        /* \"#utility.yul\":1404:1406   */\n      0x20\n        /* \"#utility.yul\":1392:1401   */\n      dup4\n        /* \"#utility.yul\":1383:1390   */\n      dup6\n        /* \"#utility.yul\":1379:1402   */\n      sub\n        /* \"#utility.yul\":1375:1407   */\n      slt\n        /* \"#utility.yul\":1372:1491   */\n      iszero\n      tag_66\n      jumpi\n        /* \"#utility.yul\":1410:1489   */\n      tag_67\n      tag_39\n      jump\t// in\n    tag_67:\n        /* \"#utility.yul\":1372:1491   */\n    tag_66:\n        /* \"#utility.yul\":1558:1559   */\n      0x00\n        /* \"#utility.yul\":1547:1556   */\n      dup4\n        /* \"#utility.yul\":1543:1560   */\n      add\n        /* \"#utility.yul\":1530:1561   */\n      calldataload\n        /* \"#utility.yul\":1588:1606   */\n      0xffffffffffffffff\n        /* \"#utility.yul\":1580:1586   */\n      dup2\n        /* \"#utility.yul\":1577:1607   */\n      gt\n        /* \"#utility.yul\":1574:1691   */\n      iszero\n      tag_68\n      jumpi\n        /* \"#utility.yul\":1610:1689   */\n      tag_69\n      tag_40\n      jump\t// in\n    tag_69:\n        /* \"#utility.yul\":1574:1691   */\n    tag_68:\n        /* \"#utility.yul\":1723:1788   */\n      tag_70\n        /* \"#utility.yul\":1780:1787   */\n      dup6\n        /* \"#utility.yul\":1771:1777   */\n      dup3\n        /* \"#utility.yul\":1760:1769   */\n      dup7\n        /* \"#utility.yul\":1756:1778   */\n      add\n        /* \"#utility.yul\":1723:1788   */\n      tag_44\n      jump\t// in\n    tag_70:\n        /* \"#utility.yul\":1705:1788   */\n      swap3\n      pop\n      swap3\n      pop\n        /* \"#utility.yul\":1501:1798   */\n      pop\n        /* \"#utility.yul\":1276:1805   */\n      swap3\n      pop\n      swap3\n      swap1\n      pop\n      jump\t// out\n        /* \"#utility.yul\":1811:1888   */\n    tag_45:\n        /* \"#utility.yul\":1848:1855   */\n      0x00\n        /* \"#utility.yul\":1877:1882   */\n      dup2\n        /* \"#utility.yul\":1866:1882   */\n      swap1\n      pop\n        /* \"#utility.yul\":1811:1888   */\n      swap2\n      swap1\n      pop\n      jump\t// out\n        /* \"#utility.yul\":1894:2012   */\n    tag_46:\n        /* \"#utility.yul\":1981:2005   */\n      tag_73\n        /* \"#utility.yul\":1999:2004   */\n      dup2\n        /* \"#utility.yul\":1981:2005   */\n      tag_45\n      jump\t// in\n    tag_73:\n        /* \"#utility.yul\":1976:1979   */\n      dup3\n        /* \"#utility.yul\":1969:2006   */\n      mstore\n        /* \"#utility.yul\":1894:2012   */\n      pop\n      pop\n      jump\t// out\n        /* \"#utility.yul\":2018:2240   */\n    tag_9:\n        /* \"#utility.yul\":2111:2115   */\n      0x00\n        /* \"#utility.yul\":2149:2151   */\n      0x20\n        /* \"#utility.yul\":2138:2147   */\n      dup3\n        /* \"#utility.yul\":2134:2152   */\n      add\n        /* \"#utility.yul\":2126:2152   */\n      swap1\n      pop\n        /* \"#utility.yul\":2162:2233   */\n      tag_75\n        /* \"#utility.yul\":2230:2231   */\n      0x00\n        /* \"#utility.yul\":2219:2228   */\n      dup4\n        /* \"#utility.yul\":2215:2232   */\n      add\n        /* \"#utility.yul\":2206:2212   */\n      dup5\n        /* \"#utility.yul\":2162:2233   */\n      tag_46\n      jump\t// in\n    tag_75:\n        /* \"#utility.yul\":2018:2240   */\n      swap3\n      swap2\n      pop\n      pop\n      jump\t// out\n        /* \"#utility.yul\":2246:2426   */\n    tag_47:\n        /* \"#utility.yul\":2294:2371   */\n      0x4e487b7100000000000000000000000000000000000000000000000000000000\n        /* \"#utility.yul\":2291:2292   */\n      0x00\n        /* \"#utility.yul\":2284:2372   */\n      mstore\n        /* \"#utility.yul\":2391:2395   */\n      0x11\n        /* \"#utility.yul\":2388:2389   */\n      0x04\n        /* \"#utility.yul\":2381:2396   */\n      mstore\n        /* \"#utility.yul\":2415:2419   */\n      0x24\n        /* \"#utility.yul\":2412:2413   */\n      0x00\n        /* \"#utility.yul\":2405:2420   */\n      revert\n        /* \"#utility.yul\":2432:2626   */\n    tag_16:\n        /* \"#utility.yul\":2472:2476   */\n      0x00\n        /* \"#utility.yul\":2492:2512   */\n      tag_78\n        /* \"#utility.yul\":2510:2511   */\n      dup3\n        /* \"#utility.yul\":2492:2512   */\n      tag_45\n      jump\t// in\n    tag_78:\n        /* \"#utility.yul\":2487:2512   */\n      swap2\n      pop\n        /* \"#utility.yul\":2526:2546   */\n      tag_79\n        /* \"#utility.yul\":2544:2545   */\n      dup4\n        /* \"#utility.yul\":2526:2546   */\n      tag_45\n      jump\t// in\n    tag_79:\n        /* \"#utility.yul\":2521:2546   */\n      swap3\n      pop\n        /* \"#utility.yul\":2570:2571   */\n      dup3\n        /* \"#utility.yul\":2567:2568   */\n      dup3\n        /* \"#utility.yul\":2563:2572   */\n      sub\n        /* \"#utility.yul\":2555:2572   */\n      swap1\n      pop\n        /* \"#utility.yul\":2594:2595   */\n      dup2\n        /* \"#utility.yul\":2588:2592   */\n      dup2\n        /* \"#utility.yul\":2585:2596   */\n      gt\n        /* \"#utility.yul\":2582:2619   */\n      iszero\n      tag_80\n      jumpi\n        /* \"#utility.yul\":2599:2617   */\n      tag_81\n      tag_47\n      jump\t// in\n    tag_81:\n        /* \"#utility.yul\":2582:2619   */\n    tag_80:\n        /* \"#utility.yul\":2432:2626   */\n      swap3\n      swap2\n      pop\n      pop\n      jump\t// out\n        /* \"#utility.yul\":2632:2812   */\n    tag_19:\n        /* \"#utility.yul\":2680:2757   */\n      0x4e487b7100000000000000000000000000000000000000000000000000000000\n        /* \"#utility.yul\":2677:2678   */\n      0x00\n        /* \"#utility.yul\":2670:2758   */\n      mstore\n        /* \"#utility.yul\":2777:2781   */\n      0x32\n        /* \"#utility.yul\":2774:2775   */\n      0x04\n        /* \"#utility.yul\":2767:2782   */\n      mstore\n        /* \"#utility.yul\":2801:2805   */\n      0x24\n        /* \"#utility.yul\":2798:2799   */\n      0x00\n        /* \"#utility.yul\":2791:2806   */\n      revert\n        /* \"#utility.yul\":2818:3009   */\n    tag_25:\n        /* \"#utility.yul\":2858:2861   */\n      0x00\n        /* \"#utility.yul\":2877:2897   */\n      tag_84\n        /* \"#utility.yul\":2895:2896   */\n      dup3\n        /* \"#utility.yul\":2877:2897   */\n      tag_45\n      jump\t// in\n    tag_84:\n        /* \"#utility.yul\":2872:2897   */\n      swap2\n      pop\n        /* \"#utility.yul\":2911:2931   */\n      tag_85\n        /* \"#utility.yul\":2929:2930   */\n      dup4\n        /* \"#utility.yul\":2911:2931   */\n      tag_45\n      jump\t// in\n    tag_85:\n        /* \"#utility.yul\":2906:2931   */\n      swap3\n      pop\n        /* \"#utility.yul\":2954:2955   */\n      dup3\n        /* \"#utility.yul\":2951:2952   */\n      dup3\n        /* \"#utility.yul\":2947:2956   */\n      add\n        /* \"#utility.yul\":2940:2956   */\n      swap1\n      pop\n        /* \"#utility.yul\":2975:2978   */\n      dup1\n        /* \"#utility.yul\":2972:2973   */\n      dup3\n        /* \"#utility.yul\":2969:2979   */\n      gt\n        /* \"#utility.yul\":2966:3002   */\n      iszero\n      tag_86\n      jumpi\n        /* \"#utility.yul\":2982:3000   */\n      tag_87\n      tag_47\n      jump\t// in\n    tag_87:\n        /* \"#utility.yul\":2966:3002   */\n    tag_86:\n        /* \"#utility.yul\":2818:3009   */\n      swap3\n      swap2\n      pop\n      pop\n      jump\t// out\n        /* \"#utility.yul\":3015:3186   */\n    tag_27:\n        /* \"#utility.yul\":3054:3057   */\n      0x00\n        /* \"#utility.yul\":3077:3101   */\n      tag_89\n        /* \"#utility.yul\":3095:3100   */\n      dup3\n        /* \"#utility.yul\":3077:3101   */\n      tag_45\n      jump\t// in\n    tag_89:\n        /* \"#utility.yul\":3068:3101   */\n      swap2\n      pop\n        /* \"#utility.yul\":3123:3127   */\n      0x00\n        /* \"#utility.yul\":3116:3121   */\n      dup3\n        /* \"#utility.yul\":3113:3128   */\n      sub\n        /* \"#utility.yul\":3110:3151   */\n      tag_90\n      jumpi\n        /* \"#utility.yul\":3131:3149   */\n      tag_91\n      tag_47\n      jump\t// in\n    tag_91:\n        /* \"#utility.yul\":3110:3151   */\n    tag_90:\n        /* \"#utility.yul\":3178:3179   */\n      0x01\n        /* \"#utility.yul\":3171:3176   */\n      dup3\n        /* \"#utility.yul\":3167:3180   */\n      sub\n        /* \"#utility.yul\":3160:3180   */\n      swap1\n      pop\n        /* \"#utility.yul\":3015:3186   */\n      swap2\n      swap1\n      pop\n      jump\t// out\n        /* \"#utility.yul\":3192:3361   */\n    tag_48:\n        /* \"#utility.yul\":3276:3287   */\n      0x00\n        /* \"#utility.yul\":3310:3316   */\n      dup3\n        /* \"#utility.yul\":3305:3308   */\n      dup3\n        /* \"#utility.yul\":3298:3317   */\n      mstore\n        /* \"#utility.yul\":3350:3354   */\n      0x20\n        /* \"#utility.yul\":3345:3348   */\n      dup3\n        /* \"#utility.yul\":3341:3355   */\n      add\n        /* \"#utility.yul\":3326:3355   */\n      swap1\n      pop\n        /* \"#utility.yul\":3192:3361   */\n      swap3\n      swap2\n      pop\n      pop\n      jump\t// out\n        /* \"#utility.yul\":3367:3541   */\n    tag_49:\n        /* \"#utility.yul\":3507:3533   */\n      0x496e76616c696420526f6d616e206368617261637465722e0000000000000000\n        /* \"#utility.yul\":3503:3504   */\n      0x00\n        /* \"#utility.yul\":3495:3501   */\n      dup3\n        /* \"#utility.yul\":3491:3505   */\n      add\n        /* \"#utility.yul\":3484:3534   */\n      mstore\n        /* \"#utility.yul\":3367:3541   */\n      pop\n      jump\t// out\n        /* \"#utility.yul\":3547:3913   */\n    tag_50:\n        /* \"#utility.yul\":3689:3692   */\n      0x00\n        /* \"#utility.yul\":3710:3777   */\n      tag_95\n        /* \"#utility.yul\":3774:3776   */\n      0x18\n        /* \"#utility.yul\":3769:3772   */\n      dup4\n        /* \"#utility.yul\":3710:3777   */\n      tag_48\n      jump\t// in\n    tag_95:\n        /* \"#utility.yul\":3703:3777   */\n      swap2\n      pop\n        /* \"#utility.yul\":3786:3879   */\n      tag_96\n        /* \"#utility.yul\":3875:3878   */\n      dup3\n        /* \"#utility.yul\":3786:3879   */\n      tag_49\n      jump\t// in\n    tag_96:\n        /* \"#utility.yul\":3904:3906   */\n      0x20\n        /* \"#utility.yul\":3899:3902   */\n      dup3\n        /* \"#utility.yul\":3895:3907   */\n      add\n        /* \"#utility.yul\":3888:3907   */\n      swap1\n      pop\n        /* \"#utility.yul\":3547:3913   */\n      swap2\n      swap1\n      pop\n      jump\t// out\n        /* \"#utility.yul\":3919:4338   */\n    tag_37:\n        /* \"#utility.yul\":4085:4089   */\n      0x00\n        /* \"#utility.yul\":4123:4125   */\n      0x20\n        /* \"#utility.yul\":4112:4121   */\n      dup3\n        /* \"#utility.yul\":4108:4126   */\n      add\n        /* \"#utility.yul\":4100:4126   */\n      swap1\n      pop\n        /* \"#utility.yul\":4172:4181   */\n      dup2\n        /* \"#utility.yul\":4166:4170   */\n      dup2\n        /* \"#utility.yul\":4162:4182   */\n      sub\n        /* \"#utility.yul\":4158:4159   */\n      0x00\n        /* \"#utility.yul\":4147:4156   */\n      dup4\n        /* \"#utility.yul\":4143:4160   */\n      add\n        /* \"#utility.yul\":4136:4183   */\n      mstore\n        /* \"#utility.yul\":4200:4331   */\n      tag_98\n        /* \"#utility.yul\":4326:4330   */\n      dup2\n        /* \"#utility.yul\":4200:4331   */\n      tag_50\n      jump\t// in\n    tag_98:\n        /* \"#utility.yul\":4192:4331   */\n      swap1\n      pop\n        /* \"#utility.yul\":3919:4338   */\n      swap2\n      swap1\n      pop\n      jump\t// out\n\n    auxdata: 0xa2646970667358221220509ee32a20deac790b409af9f518abd2aa25d80b76537d7c452c48da03eb9e7864736f6c634300081e0033\n}\n",
				"bytecode": {
					"linkReferences": {},
					"object": "6080604052348015600e575f5ffd5b5061063e8061001c5f395ff3fe608060405234801561000f575f5ffd5b5060043610610029575f3560e01c8063cb159dfe1461002d575b5f5ffd5b6100476004803603810190610042919061042d565b61005d565b6040516100549190610490565b60405180910390f35b5f5f83838080601f0160208091040260200160405190810160405280939291908181526020018383808284375f81840152601f19601f8201169050808301925050505050505090505f5f90505f825190505f5f90505f8290505b5f811115610135575f6100f2866001846100d191906104d6565b815181106100e2576100e1610509565b5b602001015160f81c60f81b610143565b90508281101561010f57808561010891906104d6565b945061011e565b808561011b9190610536565b94505b80925050808061012d90610569565b9150506100b7565b508294505050505092915050565b5f7f4900000000000000000000000000000000000000000000000000000000000000827effffffffffffffffffffffffffffffffffffffffffffffffffffffffffffff19160361019657600190506103bf565b7f5600000000000000000000000000000000000000000000000000000000000000827effffffffffffffffffffffffffffffffffffffffffffffffffffffffffffff1916036101e857600590506103bf565b7f5800000000000000000000000000000000000000000000000000000000000000827effffffffffffffffffffffffffffffffffffffffffffffffffffffffffffff19160361023a57600a90506103bf565b7f4c00000000000000000000000000000000000000000000000000000000000000827effffffffffffffffffffffffffffffffffffffffffffffffffffffffffffff19160361028c57603290506103bf565b7f4300000000000000000000000000000000000000000000000000000000000000827effffffffffffffffffffffffffffffffffffffffffffffffffffffffffffff1916036102de57606490506103bf565b7f4400000000000000000000000000000000000000000000000000000000000000827effffffffffffffffffffffffffffffffffffffffffffffffffffffffffffff191603610331576101f490506103bf565b7f4d00000000000000000000000000000000000000000000000000000000000000827effffffffffffffffffffffffffffffffffffffffffffffffffffffffffffff191603610384576103e890506103bf565b6040517f08c379a00000000000000000000000000000000000000000000000000000000081526004016103b6906105ea565b60405180910390fd5b919050565b5f5ffd5b5f5ffd5b5f5ffd5b5f5ffd5b5f5ffd5b5f5f83601f8401126103ed576103ec6103cc565b5b8235905067ffffffffffffffff81111561040a576104096103d0565b5b602083019150836001820283011115610426576104256103d4565b5b9250929050565b5f5f60208385031215610443576104426103c4565b5b5f83013567ffffffffffffffff8111156104605761045f6103c8565b5b61046c858286016103d8565b92509250509250929050565b5f819050919050565b61048a81610478565b82525050565b5f6020820190506104a35f830184610481565b92915050565b7f4e487b71000000000000000000000000000000000000000000000000000000005f52601160045260245ffd5b5f6104e082610478565b91506104eb83610478565b9250828203905081811115610503576105026104a9565b5b92915050565b7f4e487b71000000000000000000000000000000000000000000000000000000005f52603260045260245ffd5b5f61054082610478565b915061054b83610478565b9250828201905080821115610563576105626104a9565b5b92915050565b5f61057382610478565b91505f8203610585576105846104a9565b5b600182039050919050565b5f82825260208201905092915050565b7f496e76616c696420526f6d616e206368617261637465722e00000000000000005f82015250565b5f6105d4601883610590565b91506105df826105a0565b602082019050919050565b5f6020820190508181035f830152610601816105c8565b905091905056fea2646970667358221220509ee32a20deac790b409af9f518abd2aa25d80b76537d7c452c48da03eb9e7864736f6c634300081e0033",
					"opcodes": "PUSH1 0x80 PUSH1 0x40 MSTORE CALLVALUE DUP1 ISZERO PUSH1 0xE JUMPI PUSH0 PUSH0 REVERT JUMPDEST POP PUSH2 0x63E DUP1 PUSH2 0x1C PUSH0 CODECOPY PUSH0 RETURN INVALID PUSH1 0x80 PUSH1 0x40 MSTORE CALLVALUE DUP1 ISZERO PUSH2 0xF JUMPI PUSH0 PUSH0 REVERT JUMPDEST POP PUSH1 0x4 CALLDATASIZE LT PUSH2 0x29 JUMPI PUSH0 CALLDATALOAD PUSH1 0xE0 SHR DUP1 PUSH4 0xCB159DFE EQ PUSH2 0x2D JUMPI JUMPDEST PUSH0 PUSH0 REVERT JUMPDEST PUSH2 0x47 PUSH1 0x4 DUP1 CALLDATASIZE SUB DUP2 ADD SWAP1 PUSH2 0x42 SWAP2 SWAP1 PUSH2 0x42D JUMP JUMPDEST PUSH2 0x5D JUMP JUMPDEST PUSH1 0x40 MLOAD PUSH2 0x54 SWAP2 SWAP1 PUSH2 0x490 JUMP JUMPDEST PUSH1 0x40 MLOAD DUP1 SWAP2 SUB SWAP1 RETURN JUMPDEST PUSH0 PUSH0 DUP4 DUP4 DUP1 DUP1 PUSH1 0x1F ADD PUSH1 0x20 DUP1 SWAP2 DIV MUL PUSH1 0x20 ADD PUSH1 0x40 MLOAD SWAP1 DUP2 ADD PUSH1 0x40 MSTORE DUP1 SWAP4 SWAP3 SWAP2 SWAP1 DUP2 DUP2 MSTORE PUSH1 0x20 ADD DUP4 DUP4 DUP1 DUP3 DUP5 CALLDATACOPY PUSH0 DUP2 DUP5 ADD MSTORE PUSH1 0x1F NOT PUSH1 0x1F DUP3 ADD AND SWAP1 POP DUP1 DUP4 ADD SWAP3 POP POP POP POP POP POP POP SWAP1 POP PUSH0 PUSH0 SWAP1 POP PUSH0 DUP3 MLOAD SWAP1 POP PUSH0 PUSH0 SWAP1 POP PUSH0 DUP3 SWAP1 POP JUMPDEST PUSH0 DUP2 GT ISZERO PUSH2 0x135 JUMPI PUSH0 PUSH2 0xF2 DUP7 PUSH1 0x1 DUP5 PUSH2 0xD1 SWAP2 SWAP1 PUSH2 0x4D6 JUMP JUMPDEST DUP2 MLOAD DUP2 LT PUSH2 0xE2 JUMPI PUSH2 0xE1 PUSH2 0x509 JUMP JUMPDEST JUMPDEST PUSH1 0x20 ADD ADD MLOAD PUSH1 0xF8 SHR PUSH1 0xF8 SHL PUSH2 0x143 JUMP JUMPDEST SWAP1 POP DUP3 DUP2 LT ISZERO PUSH2 0x10F JUMPI DUP1 DUP6 PUSH2 0x108 SWAP2 SWAP1 PUSH2 0x4D6 JUMP JUMPDEST SWAP5 POP PUSH2 0x11E JUMP JUMPDEST DUP1 DUP6 PUSH2 0x11B SWAP2 SWAP1 PUSH2 0x536 JUMP JUMPDEST SWAP5 POP JUMPDEST DUP1 SWAP3 POP POP DUP1 DUP1 PUSH2 0x12D SWAP1 PUSH2 0x569 JUMP JUMPDEST SWAP2 POP POP PUSH2 0xB7 JUMP JUMPDEST POP DUP3 SWAP5 POP POP POP POP POP SWAP3 SWAP2 POP POP JUMP JUMPDEST PUSH0 PUSH32 0x4900000000000000000000000000000000000000000000000000000000000000 DUP3 PUSH31 0xFFFFFFFFFFFFFFFFFFFFFFFFFFFFFFFFFFFFFFFFFFFFFFFFFFFFFFFFFFFFFF NOT AND SUB PUSH2 0x196 JUMPI PUSH1 0x1 SWAP1 POP PUSH2 0x3BF JUMP JUMPDEST PUSH32 0x5600000000000000000000000000000000000000000000000000000000000000 DUP3 PUSH31 0xFFFFFFFFFFFFFFFFFFFFFFFFFFFFFFFFFFFFFFFFFFFFFFFFFFFFFFFFFFFFFF NOT AND SUB PUSH2 0x1E8 JUMPI PUSH1 0x5 SWAP1 POP PUSH2 0x3BF JUMP JUMPDEST PUSH32 0x5800000000000000000000000000000000000000000000000000000000000000 DUP3 PUSH31 0xFFFFFFFFFFFFFFFFFFFFFFFFFFFFFFFFFFFFFFFFFFFFFFFFFFFFFFFFFFFFFF NOT AND SUB PUSH2 0x23A JUMPI PUSH1 0xA SWAP1 POP PUSH2 0x3BF JUMP JUMPDEST PUSH32 0x4C00000000000000000000000000000000000000000000000000000000000000 DUP3 PUSH31 0xFFFFFFFFFFFFFFFFFFFFFFFFFFFFFFFFFFFFFFFFFFFFFFFFFFFFFFFFFFFFFF NOT AND SUB PUSH2 0x28C JUMPI PUSH1 0x32 SWAP1 POP PUSH2 0x3BF JUMP JUMPDEST PUSH32 0x4300000000000000000000000000000000000000000000000000000000000000 DUP3 PUSH31 0xFFFFFFFFFFFFFFFFFFFFFFFFFFFFFFFFFFFFFFFFFFFFFFFFFFFFFFFFFFFFFF NOT AND SUB PUSH2 0x2DE JUMPI PUSH1 0x64 SWAP1 POP PUSH2 0x3BF JUMP JUMPDEST PUSH32 0x4400000000000000000000000000000000000000000000000000000000000000 DUP3 PUSH31 0xFFFFFFFFFFFFFFFFFFFFFFFFFFFFFFFFFFFFFFFFFFFFFFFFFFFFFFFFFFFFFF NOT AND SUB PUSH2 0x331 JUMPI PUSH2 0x1F4 SWAP1 POP PUSH2 0x3BF JUMP JUMPDEST PUSH32 0x4D00000000000000000000000000000000000000000000000000000000000000 DUP3 PUSH31 0xFFFFFFFFFFFFFFFFFFFFFFFFFFFFFFFFFFFFFFFFFFFFFFFFFFFFFFFFFFFFFF NOT AND SUB PUSH2 0x384 JUMPI PUSH2 0x3E8 SWAP1 POP PUSH2 0x3BF JUMP JUMPDEST PUSH1 0x40 MLOAD PUSH32 0x8C379A000000000000000000000000000000000000000000000000000000000 DUP2 MSTORE PUSH1 0x4 ADD PUSH2 0x3B6 SWAP1 PUSH2 0x5EA JUMP JUMPDEST PUSH1 0x40 MLOAD DUP1 SWAP2 SUB SWAP1 REVERT JUMPDEST SWAP2 SWAP1 POP JUMP JUMPDEST PUSH0 PUSH0 REVERT JUMPDEST PUSH0 PUSH0 REVERT JUMPDEST PUSH0 PUSH0 REVERT JUMPDEST PUSH0 PUSH0 REVERT JUMPDEST PUSH0 PUSH0 REVERT JUMPDEST PUSH0 PUSH0 DUP4 PUSH1 0x1F DUP5 ADD SLT PUSH2 0x3ED JUMPI PUSH2 0x3EC PUSH2 0x3CC JUMP JUMPDEST JUMPDEST DUP3 CALLDATALOAD SWAP1 POP PUSH8 0xFFFFFFFFFFFFFFFF DUP2 GT ISZERO PUSH2 0x40A JUMPI PUSH2 0x409 PUSH2 0x3D0 JUMP JUMPDEST JUMPDEST PUSH1 0x20 DUP4 ADD SWAP2 POP DUP4 PUSH1 0x1 DUP3 MUL DUP4 ADD GT ISZERO PUSH2 0x426 JUMPI PUSH2 0x425 PUSH2 0x3D4 JUMP JUMPDEST JUMPDEST SWAP3 POP SWAP3 SWAP1 POP JUMP JUMPDEST PUSH0 PUSH0 PUSH1 0x20 DUP4 DUP6 SUB SLT ISZERO PUSH2 0x443 JUMPI PUSH2 0x442 PUSH2 0x3C4 JUMP JUMPDEST JUMPDEST PUSH0 DUP4 ADD CALLDATALOAD PUSH8 0xFFFFFFFFFFFFFFFF DUP2 GT ISZERO PUSH2 0x460 JUMPI PUSH2 0x45F PUSH2 0x3C8 JUMP JUMPDEST JUMPDEST PUSH2 0x46C DUP6 DUP3 DUP7 ADD PUSH2 0x3D8 JUMP JUMPDEST SWAP3 POP SWAP3 POP POP SWAP3 POP SWAP3 SWAP1 POP JUMP JUMPDEST PUSH0 DUP2 SWAP1 POP SWAP2 SWAP1 POP JUMP JUMPDEST PUSH2 0x48A DUP2 PUSH2 0x478 JUMP JUMPDEST DUP3 MSTORE POP POP JUMP JUMPDEST PUSH0 PUSH1 0x20 DUP3 ADD SWAP1 POP PUSH2 0x4A3 PUSH0 DUP4 ADD DUP5 PUSH2 0x481 JUMP JUMPDEST SWAP3 SWAP2 POP POP JUMP JUMPDEST PUSH32 0x4E487B7100000000000000000000000000000000000000000000000000000000 PUSH0 MSTORE PUSH1 0x11 PUSH1 0x4 MSTORE PUSH1 0x24 PUSH0 REVERT JUMPDEST PUSH0 PUSH2 0x4E0 DUP3 PUSH2 0x478 JUMP JUMPDEST SWAP2 POP PUSH2 0x4EB DUP4 PUSH2 0x478 JUMP JUMPDEST SWAP3 POP DUP3 DUP3 SUB SWAP1 POP DUP2 DUP2 GT ISZERO PUSH2 0x503 JUMPI PUSH2 0x502 PUSH2 0x4A9 JUMP JUMPDEST JUMPDEST SWAP3 SWAP2 POP POP JUMP JUMPDEST PUSH32 0x4E487B7100000000000000000000000000000000000000000000000000000000 PUSH0 MSTORE PUSH1 0x32 PUSH1 0x4 MSTORE PUSH1 0x24 PUSH0 REVERT JUMPDEST PUSH0 PUSH2 0x540 DUP3 PUSH2 0x478 JUMP JUMPDEST SWAP2 POP PUSH2 0x54B DUP4 PUSH2 0x478 JUMP JUMPDEST SWAP3 POP DUP3 DUP3 ADD SWAP1 POP DUP1 DUP3 GT ISZERO PUSH2 0x563 JUMPI PUSH2 0x562 PUSH2 0x4A9 JUMP JUMPDEST JUMPDEST SWAP3 SWAP2 POP POP JUMP JUMPDEST PUSH0 PUSH2 0x573 DUP3 PUSH2 0x478 JUMP JUMPDEST SWAP2 POP PUSH0 DUP3 SUB PUSH2 0x585 JUMPI PUSH2 0x584 PUSH2 0x4A9 JUMP JUMPDEST JUMPDEST PUSH1 0x1 DUP3 SUB SWAP1 POP SWAP2 SWAP1 POP JUMP JUMPDEST PUSH0 DUP3 DUP3 MSTORE PUSH1 0x20 DUP3 ADD SWAP1 POP SWAP3 SWAP2 POP POP JUMP JUMPDEST PUSH32 0x496E76616C696420526F6D616E206368617261637465722E0000000000000000 PUSH0 DUP3 ADD MSTORE POP JUMP JUMPDEST PUSH0 PUSH2 0x5D4 PUSH1 0x18 DUP4 PUSH2 0x590 JUMP JUMPDEST SWAP2 POP PUSH2 0x5DF DUP3 PUSH2 0x5A0 JUMP JUMPDEST PUSH1 0x20 DUP3 ADD SWAP1 POP SWAP2 SWAP1 POP JUMP JUMPDEST PUSH0 PUSH1 0x20 DUP3 ADD SWAP1 POP DUP2 DUP2 SUB PUSH0 DUP4 ADD MSTORE PUSH2 0x601 DUP2 PUSH2 0x5C8 JUMP JUMPDEST SWAP1 POP SWAP2 SWAP1 POP JUMP INVALID LOG2 PUSH5 0x6970667358 0x22 SLT KECCAK256 POP SWAP15 CALLF 0x2A20 0xDE 0xAC PUSH26 0xB409AF9F518ABD2AA25D80B76537D7C452C48DA03EB9E786473 PUSH16 0x6C634300081E00330000000000000000 "
				},
				"gasEstimates": {
					"creation": {
						"codeDepositCost": "319600",
						"executionCost": "353",
						"totalCost": "319953"
					},
					"external": {
						"romanToInt(string)": "infinite"
					},
					"internal": {
						"getValue(bytes1)": "infinite"
					}
				},
				"methodIdentifiers": {
					"romanToInt(string)": "cb159dfe"
				}
			},
			"storageLayout": {
				"storage": [],
				"types": null
			},
			"userdoc": {
				"kind": "user",
				"methods": {},
				"version": 1
			}
		}
	}
}