{
	"contracts/10_InsertionSort.sol": {
		"InsertionSort": {
			"abi": [
				{
					"inputs": [],
					"name": "doWhileTest",
					"outputs": [
						{
							"internalType": "uint256",
							"name": "",
							"type": "uint256"
						}
					],
					"stateMutability": "pure",
					"type": "function"
				},
				{
					"inputs": [],
					"name": "forLoopTest",
					"outputs": [
						{
							"internalType": "uint256",
							"name": "",
							"type": "uint256"
						}
					],
					"stateMutability": "pure",
					"type": "function"
				},
				{
					"inputs": [
						{
							"internalType": "uint256",
							"name": "_number",
							"type": "uint256"
						}
					],
					"name": "ifElseTest",
					"outputs": [
						{
							"internalType": "bool",
							"name": "",
							"type": "bool"
						}
					],
					"stateMutability": "pure",
					"type": "function"
				},
				{
					"inputs": [
						{
							"internalType": "uint256[]",
							"name": "a",
							"type": "uint256[]"
						}
					],
					"name": "insertionSort",
					"outputs": [
						{
							"internalType": "uint256[]",
							"name": "",
							"type": "uint256[]"
						}
					],
					"stateMutability": "pure",
					"type": "function"
				},
				{
					"inputs": [
						{
							"internalType": "uint256[]",
							"name": "a",
							"type": "uint256[]"
						}
					],
					"name": "insertionSort1",
					"outputs": [
						{
							"internalType": "uint256[]",
							"name": "",
							"type": "uint256[]"
						}
					],
					"stateMutability": "pure",
					"type": "function"
				},
				{
					"inputs": [
						{
							"internalType": "uint256",
							"name": "x",
							"type": "uint256"
						},
						{
							"internalType": "uint256",
							"name": "y",
							"type": "uint256"
						}
					],
					"name": "ternaryTest",
					"outputs": [
						{
							"internalType": "uint256",
							"name": "",
							"type": "uint256"
						}
					],
					"stateMutability": "pure",
					"type": "function"
				},
				{
					"inputs": [],
					"name": "whileTest",
					"outputs": [
						{
							"internalType": "uint256",
							"name": "",
							"type": "uint256"
						}
					],
					"stateMutability": "pure",
					"type": "function"
				}
			],
			"devdoc": {
				"kind": "dev",
				"methods": {},
				"version": 1
			},
			"evm": {
				"assembly": "    /* \"contracts/10_InsertionSort.sol\":58:2165  contract InsertionSort {... */\n  mstore(0x40, 0x80)\n  callvalue\n  dup1\n  iszero\n  tag_1\n  jumpi\n  revert(0x00, 0x00)\ntag_1:\n  pop\n  dataSize(sub_0)\n  dup1\n  dataOffset(sub_0)\n  0x00\n  codecopy\n  0x00\n  return\nstop\n\nsub_0: assembly {\n        /* \"contracts/10_InsertionSort.sol\":58:2165  contract InsertionSort {... */\n      mstore(0x40, 0x80)\n      callvalue\n      dup1\n      iszero\n      tag_1\n      jumpi\n      revert(0x00, 0x00)\n    tag_1:\n      pop\n      jumpi(tag_2, lt(calldatasize, 0x04))\n      shr(0xe0, calldataload(0x00))\n      dup1\n      0x6297206f\n      gt\n      tag_10\n      jumpi\n      dup1\n      0x6297206f\n      eq\n      tag_6\n      jumpi\n      dup1\n      0x7141fb00\n      eq\n      tag_7\n      jumpi\n      dup1\n      0xaf40994f\n      eq\n      tag_8\n      jumpi\n      dup1\n      0xb0cfa9fc\n      eq\n      tag_9\n      jumpi\n      jump(tag_2)\n    tag_10:\n      dup1\n      0x28766320\n      eq\n      tag_3\n      jumpi\n      dup1\n      0x2bbacaaa\n      eq\n      tag_4\n      jumpi\n      dup1\n      0x5d14639d\n      eq\n      tag_5\n      jumpi\n    tag_2:\n      revert(0x00, 0x00)\n        /* \"contracts/10_InsertionSort.sol\":900:1044  function ternaryTest(uint256 x, uint y) public pure returns(uint256) {... */\n    tag_3:\n      tag_11\n      0x04\n      dup1\n      calldatasize\n      sub\n      dup2\n      add\n      swap1\n      tag_12\n      swap2\n      swap1\n      tag_13\n      jump\t// in\n    tag_12:\n      tag_14\n      jump\t// in\n    tag_11:\n      mload(0x40)\n      tag_15\n      swap2\n      swap1\n      tag_16\n      jump\t// in\n    tag_15:\n      mload(0x40)\n      dup1\n      swap2\n      sub\n      swap1\n      return\n        /* \"contracts/10_InsertionSort.sol\":665:871  function doWhileTest() public pure returns(uint256) {... */\n    tag_4:\n      tag_17\n      tag_18\n      jump\t// in\n    tag_17:\n      mload(0x40)\n      tag_19\n      swap2\n      swap1\n      tag_16\n      jump\t// in\n    tag_19:\n      mload(0x40)\n      dup1\n      swap2\n      sub\n      swap1\n      return\n        /* \"contracts/10_InsertionSort.sol\":473:659  function whileTest() public pure returns(uint256) {... */\n    tag_5:\n      tag_20\n      tag_21\n      jump\t// in\n    tag_20:\n      mload(0x40)\n      tag_22\n      swap2\n      swap1\n      tag_16\n      jump\t// in\n    tag_22:\n      mload(0x40)\n      dup1\n      swap2\n      sub\n      swap1\n      return\n        /* \"contracts/10_InsertionSort.sol\":1051:1397  function insertionSort(uint[] memory a) public pure returns(uint[] memory) {... */\n    tag_6:\n      tag_23\n      0x04\n      dup1\n      calldatasize\n      sub\n      dup2\n      add\n      swap1\n      tag_24\n      swap2\n      swap1\n      tag_25\n      jump\t// in\n    tag_24:\n      tag_26\n      jump\t// in\n    tag_23:\n      mload(0x40)\n      tag_27\n      swap2\n      swap1\n      tag_28\n      jump\t// in\n    tag_27:\n      mload(0x40)\n      dup1\n      swap2\n      sub\n      swap1\n      return\n        /* \"contracts/10_InsertionSort.sol\":103:278  function ifElseTest(uint256 _number) public pure returns(bool) {... */\n    tag_7:\n      tag_29\n      0x04\n      dup1\n      calldatasize\n      sub\n      dup2\n      add\n      swap1\n      tag_30\n      swap2\n      swap1\n      tag_31\n      jump\t// in\n    tag_30:\n      tag_32\n      jump\t// in\n    tag_29:\n      mload(0x40)\n      tag_33\n      swap2\n      swap1\n      tag_34\n      jump\t// in\n    tag_33:\n      mload(0x40)\n      dup1\n      swap2\n      sub\n      swap1\n      return\n        /* \"contracts/10_InsertionSort.sol\":1402:2163  function insertionSort1(uint[] memory a) public pure returns(uint[] memory) {... */\n    tag_8:\n      tag_35\n      0x04\n      dup1\n      calldatasize\n      sub\n      dup2\n      add\n      swap1\n      tag_36\n      swap2\n      swap1\n      tag_25\n      jump\t// in\n    tag_36:\n      tag_37\n      jump\t// in\n    tag_35:\n      mload(0x40)\n      tag_38\n      swap2\n      swap1\n      tag_28\n      jump\t// in\n    tag_38:\n      mload(0x40)\n      dup1\n      swap2\n      sub\n      swap1\n      return\n        /* \"contracts/10_InsertionSort.sol\":299:467  function forLoopTest() public pure returns(uint256) {... */\n    tag_9:\n      tag_39\n      tag_40\n      jump\t// in\n    tag_39:\n      mload(0x40)\n      tag_41\n      swap2\n      swap1\n      tag_16\n      jump\t// in\n    tag_41:\n      mload(0x40)\n      dup1\n      swap2\n      sub\n      swap1\n      return\n        /* \"contracts/10_InsertionSort.sol\":900:1044  function ternaryTest(uint256 x, uint y) public pure returns(uint256) {... */\n    tag_14:\n        /* \"contracts/10_InsertionSort.sol\":960:967  uint256 */\n      0x00\n        /* \"contracts/10_InsertionSort.sol\":1028:1029  y */\n      dup2\n        /* \"contracts/10_InsertionSort.sol\":1023:1024  x */\n      dup4\n        /* \"contracts/10_InsertionSort.sol\":1023:1029  x >= y */\n      lt\n      iszero\n        /* \"contracts/10_InsertionSort.sol\":1023:1037  x >= y ? x : y */\n      tag_43\n      jumpi\n        /* \"contracts/10_InsertionSort.sol\":1036:1037  y */\n      dup2\n        /* \"contracts/10_InsertionSort.sol\":1023:1037  x >= y ? x : y */\n      jump(tag_44)\n    tag_43:\n        /* \"contracts/10_InsertionSort.sol\":1032:1033  x */\n      dup3\n        /* \"contracts/10_InsertionSort.sol\":1023:1037  x >= y ? x : y */\n    tag_44:\n        /* \"contracts/10_InsertionSort.sol\":1016:1037  return x >= y ? x : y */\n      swap1\n      pop\n        /* \"contracts/10_InsertionSort.sol\":900:1044  function ternaryTest(uint256 x, uint y) public pure returns(uint256) {... */\n      swap3\n      swap2\n      pop\n      pop\n      jump\t// out\n        /* \"contracts/10_InsertionSort.sol\":665:871  function doWhileTest() public pure returns(uint256) {... */\n    tag_18:\n        /* \"contracts/10_InsertionSort.sol\":708:715  uint256 */\n      0x00\n        /* \"contracts/10_InsertionSort.sol\":727:735  uint sum */\n      0x00\n        /* \"contracts/10_InsertionSort.sol\":738:739  0 */\n      0x00\n        /* \"contracts/10_InsertionSort.sol\":727:739  uint sum = 0 */\n      swap1\n      pop\n        /* \"contracts/10_InsertionSort.sol\":749:755  uint i */\n      0x00\n        /* \"contracts/10_InsertionSort.sol\":758:759  0 */\n      0x00\n        /* \"contracts/10_InsertionSort.sol\":749:759  uint i = 0 */\n      swap1\n      pop\n        /* \"contracts/10_InsertionSort.sol\":769:845  do {... */\n    tag_46:\n        /* \"contracts/10_InsertionSort.sol\":793:794  i */\n      dup1\n        /* \"contracts/10_InsertionSort.sol\":786:794  sum += i */\n      dup3\n      tag_49\n      swap2\n      swap1\n      tag_50\n      jump\t// in\n    tag_49:\n      swap2\n      pop\n        /* \"contracts/10_InsertionSort.sol\":808:811  i++ */\n      dup1\n      dup1\n      tag_51\n      swap1\n      tag_52\n      jump\t// in\n    tag_51:\n      swap2\n      pop\n      pop\n        /* \"contracts/10_InsertionSort.sol\":841:843  10 */\n      0x0a\n        /* \"contracts/10_InsertionSort.sol\":839:840  i */\n      dup2\n        /* \"contracts/10_InsertionSort.sol\":839:843  i<10 */\n      lt\n        /* \"contracts/10_InsertionSort.sol\":769:845  do {... */\n      tag_46\n      jumpi\n        /* \"contracts/10_InsertionSort.sol\":861:864  sum */\n      dup2\n        /* \"contracts/10_InsertionSort.sol\":854:864  return sum */\n      swap3\n      pop\n      pop\n      pop\n        /* \"contracts/10_InsertionSort.sol\":665:871  function doWhileTest() public pure returns(uint256) {... */\n      swap1\n      jump\t// out\n        /* \"contracts/10_InsertionSort.sol\":473:659  function whileTest() public pure returns(uint256) {... */\n    tag_21:\n        /* \"contracts/10_InsertionSort.sol\":514:521  uint256 */\n      0x00\n        /* \"contracts/10_InsertionSort.sol\":533:541  uint sum */\n      0x00\n        /* \"contracts/10_InsertionSort.sol\":544:545  0 */\n      0x00\n        /* \"contracts/10_InsertionSort.sol\":533:545  uint sum = 0 */\n      swap1\n      pop\n        /* \"contracts/10_InsertionSort.sol\":555:561  uint i */\n      0x00\n        /* \"contracts/10_InsertionSort.sol\":562:563  0 */\n      0x00\n        /* \"contracts/10_InsertionSort.sol\":555:563  uint i=0 */\n      swap1\n      pop\n        /* \"contracts/10_InsertionSort.sol\":573:633  while(i<10) {... */\n    tag_54:\n        /* \"contracts/10_InsertionSort.sol\":581:583  10 */\n      0x0a\n        /* \"contracts/10_InsertionSort.sol\":579:580  i */\n      dup2\n        /* \"contracts/10_InsertionSort.sol\":579:583  i<10 */\n      lt\n        /* \"contracts/10_InsertionSort.sol\":573:633  while(i<10) {... */\n      iszero\n      tag_55\n      jumpi\n        /* \"contracts/10_InsertionSort.sol\":604:605  i */\n      dup1\n        /* \"contracts/10_InsertionSort.sol\":599:605  sum+=i */\n      dup3\n      tag_56\n      swap2\n      swap1\n      tag_50\n      jump\t// in\n    tag_56:\n      swap2\n      pop\n        /* \"contracts/10_InsertionSort.sol\":619:622  i++ */\n      dup1\n      dup1\n      tag_57\n      swap1\n      tag_52\n      jump\t// in\n    tag_57:\n      swap2\n      pop\n      pop\n        /* \"contracts/10_InsertionSort.sol\":573:633  while(i<10) {... */\n      jump(tag_54)\n    tag_55:\n        /* \"contracts/10_InsertionSort.sol\":649:652  sum */\n      dup2\n        /* \"contracts/10_InsertionSort.sol\":642:652  return sum */\n      swap3\n      pop\n      pop\n      pop\n        /* \"contracts/10_InsertionSort.sol\":473:659  function whileTest() public pure returns(uint256) {... */\n      swap1\n      jump\t// out\n        /* \"contracts/10_InsertionSort.sol\":1051:1397  function insertionSort(uint[] memory a) public pure returns(uint[] memory) {... */\n    tag_26:\n        /* \"contracts/10_InsertionSort.sol\":1111:1124  uint[] memory */\n      0x60\n        /* \"contracts/10_InsertionSort.sol\":1140:1146  uint i */\n      0x00\n        /* \"contracts/10_InsertionSort.sol\":1149:1150  1 */\n      0x01\n        /* \"contracts/10_InsertionSort.sol\":1140:1150  uint i = 1 */\n      swap1\n      pop\n        /* \"contracts/10_InsertionSort.sol\":1136:1373  for(uint i = 1; i < a.length; i++) {... */\n    tag_59:\n        /* \"contracts/10_InsertionSort.sol\":1156:1157  a */\n      dup3\n        /* \"contracts/10_InsertionSort.sol\":1156:1164  a.length */\n      mload\n        /* \"contracts/10_InsertionSort.sol\":1152:1153  i */\n      dup2\n        /* \"contracts/10_InsertionSort.sol\":1152:1164  i < a.length */\n      lt\n        /* \"contracts/10_InsertionSort.sol\":1136:1373  for(uint i = 1; i < a.length; i++) {... */\n      iszero\n      tag_60\n      jumpi\n        /* \"contracts/10_InsertionSort.sol\":1185:1194  uint temp */\n      0x00\n        /* \"contracts/10_InsertionSort.sol\":1197:1198  a */\n      dup4\n        /* \"contracts/10_InsertionSort.sol\":1199:1200  i */\n      dup3\n        /* \"contracts/10_InsertionSort.sol\":1197:1201  a[i] */\n      dup2\n      mload\n      dup2\n      lt\n      tag_62\n      jumpi\n      tag_63\n      tag_64\n      jump\t// in\n    tag_63:\n    tag_62:\n      0x20\n      mul\n      0x20\n      add\n      add\n      mload\n        /* \"contracts/10_InsertionSort.sol\":1185:1201  uint temp = a[i] */\n      swap1\n      pop\n        /* \"contracts/10_InsertionSort.sol\":1215:1221  uint j */\n      0x00\n        /* \"contracts/10_InsertionSort.sol\":1224:1225  i */\n      dup3\n        /* \"contracts/10_InsertionSort.sol\":1215:1225  uint j = i */\n      swap1\n      pop\n        /* \"contracts/10_InsertionSort.sol\":1239:1338  while( (j>=1) && (temp<a[j-1])) {... */\n    tag_65:\n        /* \"contracts/10_InsertionSort.sol\":1250:1251  1 */\n      0x01\n        /* \"contracts/10_InsertionSort.sol\":1247:1248  j */\n      dup2\n        /* \"contracts/10_InsertionSort.sol\":1247:1251  j>=1 */\n      lt\n      iszero\n        /* \"contracts/10_InsertionSort.sol\":1246:1269  (j>=1) && (temp<a[j-1]) */\n      dup1\n      iszero\n      tag_67\n      jumpi\n      pop\n        /* \"contracts/10_InsertionSort.sol\":1262:1263  a */\n      dup5\n        /* \"contracts/10_InsertionSort.sol\":1266:1267  1 */\n      0x01\n        /* \"contracts/10_InsertionSort.sol\":1264:1265  j */\n      dup3\n        /* \"contracts/10_InsertionSort.sol\":1264:1267  j-1 */\n      tag_68\n      swap2\n      swap1\n      tag_69\n      jump\t// in\n    tag_68:\n        /* \"contracts/10_InsertionSort.sol\":1262:1268  a[j-1] */\n      dup2\n      mload\n      dup2\n      lt\n      tag_70\n      jumpi\n      tag_71\n      tag_64\n      jump\t// in\n    tag_71:\n    tag_70:\n      0x20\n      mul\n      0x20\n      add\n      add\n      mload\n        /* \"contracts/10_InsertionSort.sol\":1257:1261  temp */\n      dup3\n        /* \"contracts/10_InsertionSort.sol\":1257:1268  temp<a[j-1] */\n      lt\n        /* \"contracts/10_InsertionSort.sol\":1246:1269  (j>=1) && (temp<a[j-1]) */\n    tag_67:\n        /* \"contracts/10_InsertionSort.sol\":1239:1338  while( (j>=1) && (temp<a[j-1])) {... */\n      iszero\n      tag_66\n      jumpi\n        /* \"contracts/10_InsertionSort.sol\":1296:1297  a */\n      dup5\n        /* \"contracts/10_InsertionSort.sol\":1300:1301  1 */\n      0x01\n        /* \"contracts/10_InsertionSort.sol\":1298:1299  j */\n      dup3\n        /* \"contracts/10_InsertionSort.sol\":1298:1301  j-1 */\n      tag_72\n      swap2\n      swap1\n      tag_69\n      jump\t// in\n    tag_72:\n        /* \"contracts/10_InsertionSort.sol\":1296:1302  a[j-1] */\n      dup2\n      mload\n      dup2\n      lt\n      tag_73\n      jumpi\n      tag_74\n      tag_64\n      jump\t// in\n    tag_74:\n    tag_73:\n      0x20\n      mul\n      0x20\n      add\n      add\n      mload\n        /* \"contracts/10_InsertionSort.sol\":1289:1290  a */\n      dup6\n        /* \"contracts/10_InsertionSort.sol\":1291:1292  j */\n      dup3\n        /* \"contracts/10_InsertionSort.sol\":1289:1293  a[j] */\n      dup2\n      mload\n      dup2\n      lt\n      tag_75\n      jumpi\n      tag_76\n      tag_64\n      jump\t// in\n    tag_76:\n    tag_75:\n      0x20\n      mul\n      0x20\n      add\n      add\n        /* \"contracts/10_InsertionSort.sol\":1289:1302  a[j] = a[j-1] */\n      dup2\n      dup2\n      mstore\n      pop\n      pop\n        /* \"contracts/10_InsertionSort.sol\":1320:1323  j-- */\n      dup1\n      dup1\n      tag_77\n      swap1\n      tag_78\n      jump\t// in\n    tag_77:\n      swap2\n      pop\n      pop\n        /* \"contracts/10_InsertionSort.sol\":1239:1338  while( (j>=1) && (temp<a[j-1])) {... */\n      jump(tag_65)\n    tag_66:\n        /* \"contracts/10_InsertionSort.sol\":1358:1362  temp */\n      dup2\n        /* \"contracts/10_InsertionSort.sol\":1351:1352  a */\n      dup6\n        /* \"contracts/10_InsertionSort.sol\":1353:1354  j */\n      dup3\n        /* \"contracts/10_InsertionSort.sol\":1351:1355  a[j] */\n      dup2\n      mload\n      dup2\n      lt\n      tag_79\n      jumpi\n      tag_80\n      tag_64\n      jump\t// in\n    tag_80:\n    tag_79:\n      0x20\n      mul\n      0x20\n      add\n      add\n        /* \"contracts/10_InsertionSort.sol\":1351:1362  a[j] = temp */\n      dup2\n      dup2\n      mstore\n      pop\n      pop\n        /* \"contracts/10_InsertionSort.sol\":1171:1373  {... */\n      pop\n      pop\n        /* \"contracts/10_InsertionSort.sol\":1166:1169  i++ */\n      dup1\n      dup1\n      0x01\n      add\n      swap2\n      pop\n      pop\n        /* \"contracts/10_InsertionSort.sol\":1136:1373  for(uint i = 1; i < a.length; i++) {... */\n      jump(tag_59)\n    tag_60:\n      pop\n        /* \"contracts/10_InsertionSort.sol\":1389:1390  a */\n      dup2\n        /* \"contracts/10_InsertionSort.sol\":1382:1390  return a */\n      swap1\n      pop\n        /* \"contracts/10_InsertionSort.sol\":1051:1397  function insertionSort(uint[] memory a) public pure returns(uint[] memory) {... */\n      swap2\n      swap1\n      pop\n      jump\t// out\n        /* \"contracts/10_InsertionSort.sol\":103:278  function ifElseTest(uint256 _number) public pure returns(bool) {... */\n    tag_32:\n        /* \"contracts/10_InsertionSort.sol\":160:164  bool */\n      0x00\n        /* \"contracts/10_InsertionSort.sol\":190:191  0 */\n      0x00\n        /* \"contracts/10_InsertionSort.sol\":179:186  _number */\n      dup3\n        /* \"contracts/10_InsertionSort.sol\":179:191  _number == 0 */\n      sub\n        /* \"contracts/10_InsertionSort.sol\":176:272  if(_number == 0) {... */\n      tag_82\n      jumpi\n        /* \"contracts/10_InsertionSort.sol\":214:218  true */\n      0x01\n        /* \"contracts/10_InsertionSort.sol\":207:218  return true */\n      swap1\n      pop\n      jump(tag_81)\n        /* \"contracts/10_InsertionSort.sol\":176:272  if(_number == 0) {... */\n    tag_82:\n        /* \"contracts/10_InsertionSort.sol\":256:261  false */\n      0x00\n        /* \"contracts/10_InsertionSort.sol\":249:261  return false */\n      swap1\n      pop\n        /* \"contracts/10_InsertionSort.sol\":103:278  function ifElseTest(uint256 _number) public pure returns(bool) {... */\n    tag_81:\n      swap2\n      swap1\n      pop\n      jump\t// out\n        /* \"contracts/10_InsertionSort.sol\":1402:2163  function insertionSort1(uint[] memory a) public pure returns(uint[] memory) {... */\n    tag_37:\n        /* \"contracts/10_InsertionSort.sol\":1463:1476  uint[] memory */\n      0x60\n        /* \"contracts/10_InsertionSort.sol\":1492:1498  uint i */\n      0x00\n        /* \"contracts/10_InsertionSort.sol\":1501:1502  1 */\n      0x01\n        /* \"contracts/10_InsertionSort.sol\":1492:1502  uint i = 1 */\n      swap1\n      pop\n        /* \"contracts/10_InsertionSort.sol\":1488:2139  for(uint i = 1; i < a.length; i++) {... */\n    tag_85:\n        /* \"contracts/10_InsertionSort.sol\":1508:1509  a */\n      dup3\n        /* \"contracts/10_InsertionSort.sol\":1508:1516  a.length */\n      mload\n        /* \"contracts/10_InsertionSort.sol\":1504:1505  i */\n      dup2\n        /* \"contracts/10_InsertionSort.sol\":1504:1516  i < a.length */\n      lt\n        /* \"contracts/10_InsertionSort.sol\":1488:2139  for(uint i = 1; i < a.length; i++) {... */\n      iszero\n      tag_86\n      jumpi\n        /* \"contracts/10_InsertionSort.sol\":1537:1546  uint temp */\n      0x00\n        /* \"contracts/10_InsertionSort.sol\":1549:1550  a */\n      dup4\n        /* \"contracts/10_InsertionSort.sol\":1551:1552  i */\n      dup3\n        /* \"contracts/10_InsertionSort.sol\":1549:1553  a[i] */\n      dup2\n      mload\n      dup2\n      lt\n      tag_88\n      jumpi\n      tag_89\n      tag_64\n      jump\t// in\n    tag_89:\n    tag_88:\n      0x20\n      mul\n      0x20\n      add\n      add\n      mload\n        /* \"contracts/10_InsertionSort.sol\":1537:1553  uint temp = a[i] */\n      swap1\n      pop\n        /* \"contracts/10_InsertionSort.sol\":1567:1573  uint j */\n      0x00\n        /* \"contracts/10_InsertionSort.sol\":1576:1577  i */\n      dup3\n        /* \"contracts/10_InsertionSort.sol\":1567:1577  uint j = i */\n      swap1\n      pop\n        /* \"contracts/10_InsertionSort.sol\":1599:1600  i */\n      dup3\n        /* \"contracts/10_InsertionSort.sol\":1595:1600  j = i */\n      swap1\n      pop\n        /* \"contracts/10_InsertionSort.sol\":1591:1750  for(j = i; j >= 1; j--) {... */\n    tag_90:\n        /* \"contracts/10_InsertionSort.sol\":1607:1608  1 */\n      0x01\n        /* \"contracts/10_InsertionSort.sol\":1602:1603  j */\n      dup2\n        /* \"contracts/10_InsertionSort.sol\":1602:1608  j >= 1 */\n      lt\n        /* \"contracts/10_InsertionSort.sol\":1591:1750  for(j = i; j >= 1; j--) {... */\n      tag_91\n      jumpi\n        /* \"contracts/10_InsertionSort.sol\":1643:1644  a */\n      dup5\n        /* \"contracts/10_InsertionSort.sol\":1647:1648  1 */\n      0x01\n        /* \"contracts/10_InsertionSort.sol\":1645:1646  j */\n      dup3\n        /* \"contracts/10_InsertionSort.sol\":1645:1648  j-1 */\n      tag_93\n      swap2\n      swap1\n      tag_69\n      jump\t// in\n    tag_93:\n        /* \"contracts/10_InsertionSort.sol\":1643:1649  a[j-1] */\n      dup2\n      mload\n      dup2\n      lt\n      tag_94\n      jumpi\n      tag_95\n      tag_64\n      jump\t// in\n    tag_95:\n    tag_94:\n      0x20\n      mul\n      0x20\n      add\n      add\n      mload\n        /* \"contracts/10_InsertionSort.sol\":1636:1640  temp */\n      dup3\n        /* \"contracts/10_InsertionSort.sol\":1636:1649  temp < a[j-1] */\n      lt\n        /* \"contracts/10_InsertionSort.sol\":1633:1736  if(temp < a[j-1]) {... */\n      iszero\n      tag_96\n      jumpi\n        /* \"contracts/10_InsertionSort.sol\":1680:1681  a */\n      dup5\n        /* \"contracts/10_InsertionSort.sol\":1684:1685  1 */\n      0x01\n        /* \"contracts/10_InsertionSort.sol\":1682:1683  j */\n      dup3\n        /* \"contracts/10_InsertionSort.sol\":1682:1685  j-1 */\n      tag_97\n      swap2\n      swap1\n      tag_69\n      jump\t// in\n    tag_97:\n        /* \"contracts/10_InsertionSort.sol\":1680:1686  a[j-1] */\n      dup2\n      mload\n      dup2\n      lt\n      tag_98\n      jumpi\n      tag_99\n      tag_64\n      jump\t// in\n    tag_99:\n    tag_98:\n      0x20\n      mul\n      0x20\n      add\n      add\n      mload\n        /* \"contracts/10_InsertionSort.sol\":1673:1674  a */\n      dup6\n        /* \"contracts/10_InsertionSort.sol\":1675:1676  j */\n      dup3\n        /* \"contracts/10_InsertionSort.sol\":1673:1677  a[j] */\n      dup2\n      mload\n      dup2\n      lt\n      tag_100\n      jumpi\n      tag_101\n      tag_64\n      jump\t// in\n    tag_101:\n    tag_100:\n      0x20\n      mul\n      0x20\n      add\n      add\n        /* \"contracts/10_InsertionSort.sol\":1673:1686  a[j] = a[j-1] */\n      dup2\n      dup2\n      mstore\n      pop\n      pop\n        /* \"contracts/10_InsertionSort.sol\":1708:1716  continue */\n      jump(tag_92)\n        /* \"contracts/10_InsertionSort.sol\":1633:1736  if(temp < a[j-1]) {... */\n    tag_96:\n        /* \"contracts/10_InsertionSort.sol\":1591:1750  for(j = i; j >= 1; j--) {... */\n    tag_92:\n        /* \"contracts/10_InsertionSort.sol\":1610:1613  j-- */\n      dup1\n      dup1\n      tag_102\n      swap1\n      tag_78\n      jump\t// in\n    tag_102:\n      swap2\n      pop\n      pop\n        /* \"contracts/10_InsertionSort.sol\":1591:1750  for(j = i; j >= 1; j--) {... */\n      jump(tag_90)\n    tag_91:\n        /* \"contracts/10_InsertionSort.sol\":2029:2030  0 */\n      0x00\n        /* \"contracts/10_InsertionSort.sol\":2024:2025  j */\n      dup2\n        /* \"contracts/10_InsertionSort.sol\":2024:2030  j == 0 */\n      sub\n        /* \"contracts/10_InsertionSort.sol\":2021:2129  if(j == 0 ) {... */\n      tag_103\n      jumpi\n        /* \"contracts/10_InsertionSort.sol\":2058:2062  temp */\n      dup2\n        /* \"contracts/10_InsertionSort.sol\":2051:2052  a */\n      dup6\n        /* \"contracts/10_InsertionSort.sol\":2053:2054  j */\n      dup3\n        /* \"contracts/10_InsertionSort.sol\":2051:2055  a[j] */\n      dup2\n      mload\n      dup2\n      lt\n      tag_104\n      jumpi\n      tag_105\n      tag_64\n      jump\t// in\n    tag_105:\n    tag_104:\n      0x20\n      mul\n      0x20\n      add\n      add\n        /* \"contracts/10_InsertionSort.sol\":2051:2062  a[j] = temp */\n      dup2\n      dup2\n      mstore\n      pop\n      pop\n        /* \"contracts/10_InsertionSort.sol\":2021:2129  if(j == 0 ) {... */\n      jump(tag_106)\n    tag_103:\n        /* \"contracts/10_InsertionSort.sol\":2110:2114  temp */\n      dup2\n        /* \"contracts/10_InsertionSort.sol\":2101:2102  a */\n      dup6\n        /* \"contracts/10_InsertionSort.sol\":2105:2106  1 */\n      0x01\n        /* \"contracts/10_InsertionSort.sol\":2103:2104  j */\n      dup4\n        /* \"contracts/10_InsertionSort.sol\":2103:2106  j-1 */\n      tag_107\n      swap2\n      swap1\n      tag_69\n      jump\t// in\n    tag_107:\n        /* \"contracts/10_InsertionSort.sol\":2101:2107  a[j-1] */\n      dup2\n      mload\n      dup2\n      lt\n      tag_108\n      jumpi\n      tag_109\n      tag_64\n      jump\t// in\n    tag_109:\n    tag_108:\n      0x20\n      mul\n      0x20\n      add\n      add\n        /* \"contracts/10_InsertionSort.sol\":2101:2114  a[j-1] = temp */\n      dup2\n      dup2\n      mstore\n      pop\n      pop\n        /* \"contracts/10_InsertionSort.sol\":2021:2129  if(j == 0 ) {... */\n    tag_106:\n        /* \"contracts/10_InsertionSort.sol\":1523:2139  {... */\n      pop\n      pop\n        /* \"contracts/10_InsertionSort.sol\":1518:1521  i++ */\n      dup1\n      dup1\n      0x01\n      add\n      swap2\n      pop\n      pop\n        /* \"contracts/10_InsertionSort.sol\":1488:2139  for(uint i = 1; i < a.length; i++) {... */\n      jump(tag_85)\n    tag_86:\n      pop\n        /* \"contracts/10_InsertionSort.sol\":2155:2156  a */\n      dup2\n        /* \"contracts/10_InsertionSort.sol\":2148:2156  return a */\n      swap1\n      pop\n        /* \"contracts/10_InsertionSort.sol\":1402:2163  function insertionSort1(uint[] memory a) public pure returns(uint[] memory) {... */\n      swap2\n      swap1\n      pop\n      jump\t// out\n        /* \"contracts/10_InsertionSort.sol\":299:467  function forLoopTest() public pure returns(uint256) {... */\n    tag_40:\n        /* \"contracts/10_InsertionSort.sol\":342:349  uint256 */\n      0x00\n        /* \"contracts/10_InsertionSort.sol\":361:369  uint sum */\n      0x00\n        /* \"contracts/10_InsertionSort.sol\":372:373  0 */\n      0x00\n        /* \"contracts/10_InsertionSort.sol\":361:373  uint sum = 0 */\n      swap1\n      pop\n        /* \"contracts/10_InsertionSort.sol\":387:393  uint i */\n      0x00\n        /* \"contracts/10_InsertionSort.sol\":394:395  0 */\n      0x00\n        /* \"contracts/10_InsertionSort.sol\":387:395  uint i=0 */\n      swap1\n      pop\n        /* \"contracts/10_InsertionSort.sol\":383:441  for(uint i=0; i<10; i++) {... */\n    tag_111:\n        /* \"contracts/10_InsertionSort.sol\":399:401  10 */\n      0x0a\n        /* \"contracts/10_InsertionSort.sol\":397:398  i */\n      dup2\n        /* \"contracts/10_InsertionSort.sol\":397:401  i<10 */\n      lt\n        /* \"contracts/10_InsertionSort.sol\":383:441  for(uint i=0; i<10; i++) {... */\n      iszero\n      tag_112\n      jumpi\n        /* \"contracts/10_InsertionSort.sol\":429:430  i */\n      dup1\n        /* \"contracts/10_InsertionSort.sol\":422:430  sum += i */\n      dup3\n      tag_114\n      swap2\n      swap1\n      tag_50\n      jump\t// in\n    tag_114:\n      swap2\n      pop\n        /* \"contracts/10_InsertionSort.sol\":403:406  i++ */\n      dup1\n      dup1\n      0x01\n      add\n      swap2\n      pop\n      pop\n        /* \"contracts/10_InsertionSort.sol\":383:441  for(uint i=0; i<10; i++) {... */\n      jump(tag_111)\n    tag_112:\n      pop\n        /* \"contracts/10_InsertionSort.sol\":457:460  sum */\n      dup1\n        /* \"contracts/10_InsertionSort.sol\":450:460  return sum */\n      swap2\n      pop\n      pop\n        /* \"contracts/10_InsertionSort.sol\":299:467  function forLoopTest() public pure returns(uint256) {... */\n      swap1\n      jump\t// out\n        /* \"#utility.yul\":7:82   */\n    tag_115:\n        /* \"#utility.yul\":40:46   */\n      0x00\n        /* \"#utility.yul\":73:75   */\n      0x40\n        /* \"#utility.yul\":67:76   */\n      mload\n        /* \"#utility.yul\":57:76   */\n      swap1\n      pop\n        /* \"#utility.yul\":7:82   */\n      swap1\n      jump\t// out\n        /* \"#utility.yul\":88:205   */\n    tag_116:\n        /* \"#utility.yul\":197:198   */\n      0x00\n        /* \"#utility.yul\":194:195   */\n      0x00\n        /* \"#utility.yul\":187:199   */\n      revert\n        /* \"#utility.yul\":211:328   */\n    tag_117:\n        /* \"#utility.yul\":320:321   */\n      0x00\n        /* \"#utility.yul\":317:318   */\n      0x00\n        /* \"#utility.yul\":310:322   */\n      revert\n        /* \"#utility.yul\":334:411   */\n    tag_118:\n        /* \"#utility.yul\":371:378   */\n      0x00\n        /* \"#utility.yul\":400:405   */\n      dup2\n        /* \"#utility.yul\":389:405   */\n      swap1\n      pop\n        /* \"#utility.yul\":334:411   */\n      swap2\n      swap1\n      pop\n      jump\t// out\n        /* \"#utility.yul\":417:539   */\n    tag_119:\n        /* \"#utility.yul\":490:514   */\n      tag_147\n        /* \"#utility.yul\":508:513   */\n      dup2\n        /* \"#utility.yul\":490:514   */\n      tag_118\n      jump\t// in\n    tag_147:\n        /* \"#utility.yul\":483:488   */\n      dup2\n        /* \"#utility.yul\":480:515   */\n      eq\n        /* \"#utility.yul\":470:533   */\n      tag_148\n      jumpi\n        /* \"#utility.yul\":529:530   */\n      0x00\n        /* \"#utility.yul\":526:527   */\n      0x00\n        /* \"#utility.yul\":519:531   */\n      revert\n        /* \"#utility.yul\":470:533   */\n    tag_148:\n        /* \"#utility.yul\":417:539   */\n      pop\n      jump\t// out\n        /* \"#utility.yul\":545:684   */\n    tag_120:\n        /* \"#utility.yul\":591:596   */\n      0x00\n        /* \"#utility.yul\":629:635   */\n      dup2\n        /* \"#utility.yul\":616:636   */\n      calldataload\n        /* \"#utility.yul\":607:636   */\n      swap1\n      pop\n        /* \"#utility.yul\":645:678   */\n      tag_150\n        /* \"#utility.yul\":672:677   */\n      dup2\n        /* \"#utility.yul\":645:678   */\n      tag_119\n      jump\t// in\n    tag_150:\n        /* \"#utility.yul\":545:684   */\n      swap3\n      swap2\n      pop\n      pop\n      jump\t// out\n        /* \"#utility.yul\":690:1164   */\n    tag_13:\n        /* \"#utility.yul\":758:764   */\n      0x00\n        /* \"#utility.yul\":766:772   */\n      0x00\n        /* \"#utility.yul\":815:817   */\n      0x40\n        /* \"#utility.yul\":803:812   */\n      dup4\n        /* \"#utility.yul\":794:801   */\n      dup6\n        /* \"#utility.yul\":790:813   */\n      sub\n        /* \"#utility.yul\":786:818   */\n      slt\n        /* \"#utility.yul\":783:902   */\n      iszero\n      tag_152\n      jumpi\n        /* \"#utility.yul\":821:900   */\n      tag_153\n      tag_116\n      jump\t// in\n    tag_153:\n        /* \"#utility.yul\":783:902   */\n    tag_152:\n        /* \"#utility.yul\":941:942   */\n      0x00\n        /* \"#utility.yul\":966:1019   */\n      tag_154\n        /* \"#utility.yul\":1011:1018   */\n      dup6\n        /* \"#utility.yul\":1002:1008   */\n      dup3\n        /* \"#utility.yul\":991:1000   */\n      dup7\n        /* \"#utility.yul\":987:1009   */\n      add\n        /* \"#utility.yul\":966:1019   */\n      tag_120\n      jump\t// in\n    tag_154:\n        /* \"#utility.yul\":956:1019   */\n      swap3\n      pop\n        /* \"#utility.yul\":912:1029   */\n      pop\n        /* \"#utility.yul\":1068:1070   */\n      0x20\n        /* \"#utility.yul\":1094:1147   */\n      tag_155\n        /* \"#utility.yul\":1139:1146   */\n      dup6\n        /* \"#utility.yul\":1130:1136   */\n      dup3\n        /* \"#utility.yul\":1119:1128   */\n      dup7\n        /* \"#utility.yul\":1115:1137   */\n      add\n        /* \"#utility.yul\":1094:1147   */\n      tag_120\n      jump\t// in\n    tag_155:\n        /* \"#utility.yul\":1084:1147   */\n      swap2\n      pop\n        /* \"#utility.yul\":1039:1157   */\n      pop\n        /* \"#utility.yul\":690:1164   */\n      swap3\n      pop\n      swap3\n      swap1\n      pop\n      jump\t// out\n        /* \"#utility.yul\":1170:1288   */\n    tag_121:\n        /* \"#utility.yul\":1257:1281   */\n      tag_157\n        /* \"#utility.yul\":1275:1280   */\n      dup2\n        /* \"#utility.yul\":1257:1281   */\n      tag_118\n      jump\t// in\n    tag_157:\n        /* \"#utility.yul\":1252:1255   */\n      dup3\n        /* \"#utility.yul\":1245:1282   */\n      mstore\n        /* \"#utility.yul\":1170:1288   */\n      pop\n      pop\n      jump\t// out\n        /* \"#utility.yul\":1294:1516   */\n    tag_16:\n        /* \"#utility.yul\":1387:1391   */\n      0x00\n        /* \"#utility.yul\":1425:1427   */\n      0x20\n        /* \"#utility.yul\":1414:1423   */\n      dup3\n        /* \"#utility.yul\":1410:1428   */\n      add\n        /* \"#utility.yul\":1402:1428   */\n      swap1\n      pop\n        /* \"#utility.yul\":1438:1509   */\n      tag_159\n        /* \"#utility.yul\":1506:1507   */\n      0x00\n        /* \"#utility.yul\":1495:1504   */\n      dup4\n        /* \"#utility.yul\":1491:1508   */\n      add\n        /* \"#utility.yul\":1482:1488   */\n      dup5\n        /* \"#utility.yul\":1438:1509   */\n      tag_121\n      jump\t// in\n    tag_159:\n        /* \"#utility.yul\":1294:1516   */\n      swap3\n      swap2\n      pop\n      pop\n      jump\t// out\n        /* \"#utility.yul\":1522:1639   */\n    tag_122:\n        /* \"#utility.yul\":1631:1632   */\n      0x00\n        /* \"#utility.yul\":1628:1629   */\n      0x00\n        /* \"#utility.yul\":1621:1633   */\n      revert\n        /* \"#utility.yul\":1645:1747   */\n    tag_123:\n        /* \"#utility.yul\":1686:1692   */\n      0x00\n        /* \"#utility.yul\":1737:1739   */\n      0x1f\n        /* \"#utility.yul\":1733:1740   */\n      not\n        /* \"#utility.yul\":1728:1730   */\n      0x1f\n        /* \"#utility.yul\":1721:1726   */\n      dup4\n        /* \"#utility.yul\":1717:1731   */\n      add\n        /* \"#utility.yul\":1713:1741   */\n      and\n        /* \"#utility.yul\":1703:1741   */\n      swap1\n      pop\n        /* \"#utility.yul\":1645:1747   */\n      swap2\n      swap1\n      pop\n      jump\t// out\n        /* \"#utility.yul\":1753:1933   */\n    tag_124:\n        /* \"#utility.yul\":1801:1878   */\n      0x4e487b7100000000000000000000000000000000000000000000000000000000\n        /* \"#utility.yul\":1798:1799   */\n      0x00\n        /* \"#utility.yul\":1791:1879   */\n      mstore\n        /* \"#utility.yul\":1898:1902   */\n      0x41\n        /* \"#utility.yul\":1895:1896   */\n      0x04\n        /* \"#utility.yul\":1888:1903   */\n      mstore\n        /* \"#utility.yul\":1922:1926   */\n      0x24\n        /* \"#utility.yul\":1919:1920   */\n      0x00\n        /* \"#utility.yul\":1912:1927   */\n      revert\n        /* \"#utility.yul\":1939:2220   */\n    tag_125:\n        /* \"#utility.yul\":2022:2049   */\n      tag_164\n        /* \"#utility.yul\":2044:2048   */\n      dup3\n        /* \"#utility.yul\":2022:2049   */\n      tag_123\n      jump\t// in\n    tag_164:\n        /* \"#utility.yul\":2014:2020   */\n      dup2\n        /* \"#utility.yul\":2010:2050   */\n      add\n        /* \"#utility.yul\":2152:2158   */\n      dup2\n        /* \"#utility.yul\":2140:2150   */\n      dup2\n        /* \"#utility.yul\":2137:2159   */\n      lt\n        /* \"#utility.yul\":2116:2134   */\n      0xffffffffffffffff\n        /* \"#utility.yul\":2104:2114   */\n      dup3\n        /* \"#utility.yul\":2101:2135   */\n      gt\n        /* \"#utility.yul\":2098:2160   */\n      or\n        /* \"#utility.yul\":2095:2183   */\n      iszero\n      tag_165\n      jumpi\n        /* \"#utility.yul\":2163:2181   */\n      tag_166\n      tag_124\n      jump\t// in\n    tag_166:\n        /* \"#utility.yul\":2095:2183   */\n    tag_165:\n        /* \"#utility.yul\":2203:2213   */\n      dup1\n        /* \"#utility.yul\":2199:2201   */\n      0x40\n        /* \"#utility.yul\":2192:2214   */\n      mstore\n        /* \"#utility.yul\":1982:2220   */\n      pop\n        /* \"#utility.yul\":1939:2220   */\n      pop\n      pop\n      jump\t// out\n        /* \"#utility.yul\":2226:2355   */\n    tag_126:\n        /* \"#utility.yul\":2260:2266   */\n      0x00\n        /* \"#utility.yul\":2287:2307   */\n      tag_168\n      tag_115\n      jump\t// in\n    tag_168:\n        /* \"#utility.yul\":2277:2307   */\n      swap1\n      pop\n        /* \"#utility.yul\":2316:2349   */\n      tag_169\n        /* \"#utility.yul\":2344:2348   */\n      dup3\n        /* \"#utility.yul\":2336:2342   */\n      dup3\n        /* \"#utility.yul\":2316:2349   */\n      tag_125\n      jump\t// in\n    tag_169:\n        /* \"#utility.yul\":2226:2355   */\n      swap2\n      swap1\n      pop\n      jump\t// out\n        /* \"#utility.yul\":2361:2672   */\n    tag_127:\n        /* \"#utility.yul\":2438:2442   */\n      0x00\n        /* \"#utility.yul\":2528:2546   */\n      0xffffffffffffffff\n        /* \"#utility.yul\":2520:2526   */\n      dup3\n        /* \"#utility.yul\":2517:2547   */\n      gt\n        /* \"#utility.yul\":2514:2570   */\n      iszero\n      tag_171\n      jumpi\n        /* \"#utility.yul\":2550:2568   */\n      tag_172\n      tag_124\n      jump\t// in\n    tag_172:\n        /* \"#utility.yul\":2514:2570   */\n    tag_171:\n        /* \"#utility.yul\":2600:2604   */\n      0x20\n        /* \"#utility.yul\":2592:2598   */\n      dup3\n        /* \"#utility.yul\":2588:2605   */\n      mul\n        /* \"#utility.yul\":2580:2605   */\n      swap1\n      pop\n        /* \"#utility.yul\":2660:2664   */\n      0x20\n        /* \"#utility.yul\":2654:2658   */\n      dup2\n        /* \"#utility.yul\":2650:2665   */\n      add\n        /* \"#utility.yul\":2642:2665   */\n      swap1\n      pop\n        /* \"#utility.yul\":2361:2672   */\n      swap2\n      swap1\n      pop\n      jump\t// out\n        /* \"#utility.yul\":2678:2795   */\n    tag_128:\n        /* \"#utility.yul\":2787:2788   */\n      0x00\n        /* \"#utility.yul\":2784:2785   */\n      0x00\n        /* \"#utility.yul\":2777:2789   */\n      revert\n        /* \"#utility.yul\":2818:3528   */\n    tag_129:\n        /* \"#utility.yul\":2914:2919   */\n      0x00\n        /* \"#utility.yul\":2939:3020   */\n      tag_175\n        /* \"#utility.yul\":2955:3019   */\n      tag_176\n        /* \"#utility.yul\":3012:3018   */\n      dup5\n        /* \"#utility.yul\":2955:3019   */\n      tag_127\n      jump\t// in\n    tag_176:\n        /* \"#utility.yul\":2939:3020   */\n      tag_126\n      jump\t// in\n    tag_175:\n        /* \"#utility.yul\":2930:3020   */\n      swap1\n      pop\n        /* \"#utility.yul\":3040:3045   */\n      dup1\n        /* \"#utility.yul\":3069:3075   */\n      dup4\n        /* \"#utility.yul\":3062:3067   */\n      dup3\n        /* \"#utility.yul\":3055:3076   */\n      mstore\n        /* \"#utility.yul\":3103:3107   */\n      0x20\n        /* \"#utility.yul\":3096:3101   */\n      dup3\n        /* \"#utility.yul\":3092:3108   */\n      add\n        /* \"#utility.yul\":3085:3108   */\n      swap1\n      pop\n        /* \"#utility.yul\":3156:3160   */\n      0x20\n        /* \"#utility.yul\":3148:3154   */\n      dup5\n        /* \"#utility.yul\":3144:3161   */\n      mul\n        /* \"#utility.yul\":3136:3142   */\n      dup4\n        /* \"#utility.yul\":3132:3162   */\n      add\n        /* \"#utility.yul\":3185:3188   */\n      dup6\n        /* \"#utility.yul\":3177:3183   */\n      dup2\n        /* \"#utility.yul\":3174:3189   */\n      gt\n        /* \"#utility.yul\":3171:3293   */\n      iszero\n      tag_177\n      jumpi\n        /* \"#utility.yul\":3204:3283   */\n      tag_178\n      tag_128\n      jump\t// in\n    tag_178:\n        /* \"#utility.yul\":3171:3293   */\n    tag_177:\n        /* \"#utility.yul\":3319:3325   */\n      dup4\n        /* \"#utility.yul\":3302:3522   */\n    tag_179:\n        /* \"#utility.yul\":3336:3342   */\n      dup2\n        /* \"#utility.yul\":3331:3334   */\n      dup2\n        /* \"#utility.yul\":3328:3343   */\n      lt\n        /* \"#utility.yul\":3302:3522   */\n      iszero\n      tag_181\n      jumpi\n        /* \"#utility.yul\":3411:3414   */\n      dup1\n        /* \"#utility.yul\":3440:3477   */\n      tag_182\n        /* \"#utility.yul\":3473:3476   */\n      dup9\n        /* \"#utility.yul\":3461:3471   */\n      dup3\n        /* \"#utility.yul\":3440:3477   */\n      tag_120\n      jump\t// in\n    tag_182:\n        /* \"#utility.yul\":3435:3438   */\n      dup5\n        /* \"#utility.yul\":3428:3478   */\n      mstore\n        /* \"#utility.yul\":3507:3511   */\n      0x20\n        /* \"#utility.yul\":3502:3505   */\n      dup5\n        /* \"#utility.yul\":3498:3512   */\n      add\n        /* \"#utility.yul\":3491:3512   */\n      swap4\n      pop\n        /* \"#utility.yul\":3378:3522   */\n      pop\n        /* \"#utility.yul\":3362:3366   */\n      0x20\n        /* \"#utility.yul\":3357:3360   */\n      dup2\n        /* \"#utility.yul\":3353:3367   */\n      add\n        /* \"#utility.yul\":3346:3367   */\n      swap1\n      pop\n        /* \"#utility.yul\":3302:3522   */\n      jump(tag_179)\n    tag_181:\n        /* \"#utility.yul\":3306:3327   */\n      pop\n        /* \"#utility.yul\":2920:3528   */\n      pop\n      pop\n        /* \"#utility.yul\":2818:3528   */\n      swap4\n      swap3\n      pop\n      pop\n      pop\n      jump\t// out\n        /* \"#utility.yul\":3551:3921   */\n    tag_130:\n        /* \"#utility.yul\":3622:3627   */\n      0x00\n        /* \"#utility.yul\":3671:3674   */\n      dup3\n        /* \"#utility.yul\":3664:3668   */\n      0x1f\n        /* \"#utility.yul\":3656:3662   */\n      dup4\n        /* \"#utility.yul\":3652:3669   */\n      add\n        /* \"#utility.yul\":3648:3675   */\n      slt\n        /* \"#utility.yul\":3638:3760   */\n      tag_184\n      jumpi\n        /* \"#utility.yul\":3679:3758   */\n      tag_185\n      tag_122\n      jump\t// in\n    tag_185:\n        /* \"#utility.yul\":3638:3760   */\n    tag_184:\n        /* \"#utility.yul\":3796:3802   */\n      dup2\n        /* \"#utility.yul\":3783:3803   */\n      calldataload\n        /* \"#utility.yul\":3821:3915   */\n      tag_186\n        /* \"#utility.yul\":3911:3914   */\n      dup5\n        /* \"#utility.yul\":3903:3909   */\n      dup3\n        /* \"#utility.yul\":3896:3900   */\n      0x20\n        /* \"#utility.yul\":3888:3894   */\n      dup7\n        /* \"#utility.yul\":3884:3901   */\n      add\n        /* \"#utility.yul\":3821:3915   */\n      tag_129\n      jump\t// in\n    tag_186:\n        /* \"#utility.yul\":3812:3915   */\n      swap2\n      pop\n        /* \"#utility.yul\":3628:3921   */\n      pop\n        /* \"#utility.yul\":3551:3921   */\n      swap3\n      swap2\n      pop\n      pop\n      jump\t// out\n        /* \"#utility.yul\":3927:4466   */\n    tag_25:\n        /* \"#utility.yul\":4011:4017   */\n      0x00\n        /* \"#utility.yul\":4060:4062   */\n      0x20\n        /* \"#utility.yul\":4048:4057   */\n      dup3\n        /* \"#utility.yul\":4039:4046   */\n      dup5\n        /* \"#utility.yul\":4035:4058   */\n      sub\n        /* \"#utility.yul\":4031:4063   */\n      slt\n        /* \"#utility.yul\":4028:4147   */\n      iszero\n      tag_188\n      jumpi\n        /* \"#utility.yul\":4066:4145   */\n      tag_189\n      tag_116\n      jump\t// in\n    tag_189:\n        /* \"#utility.yul\":4028:4147   */\n    tag_188:\n        /* \"#utility.yul\":4214:4215   */\n      0x00\n        /* \"#utility.yul\":4203:4212   */\n      dup3\n        /* \"#utility.yul\":4199:4216   */\n      add\n        /* \"#utility.yul\":4186:4217   */\n      calldataload\n        /* \"#utility.yul\":4244:4262   */\n      0xffffffffffffffff\n        /* \"#utility.yul\":4236:4242   */\n      dup2\n        /* \"#utility.yul\":4233:4263   */\n      gt\n        /* \"#utility.yul\":4230:4347   */\n      iszero\n      tag_190\n      jumpi\n        /* \"#utility.yul\":4266:4345   */\n      tag_191\n      tag_117\n      jump\t// in\n    tag_191:\n        /* \"#utility.yul\":4230:4347   */\n    tag_190:\n        /* \"#utility.yul\":4371:4449   */\n      tag_192\n        /* \"#utility.yul\":4441:4448   */\n      dup5\n        /* \"#utility.yul\":4432:4438   */\n      dup3\n        /* \"#utility.yul\":4421:4430   */\n      dup6\n        /* \"#utility.yul\":4417:4439   */\n      add\n        /* \"#utility.yul\":4371:4449   */\n      tag_130\n      jump\t// in\n    tag_192:\n        /* \"#utility.yul\":4361:4449   */\n      swap2\n      pop\n        /* \"#utility.yul\":4157:4459   */\n      pop\n        /* \"#utility.yul\":3927:4466   */\n      swap3\n      swap2\n      pop\n      pop\n      jump\t// out\n        /* \"#utility.yul\":4472:4586   */\n    tag_131:\n        /* \"#utility.yul\":4539:4545   */\n      0x00\n        /* \"#utility.yul\":4573:4578   */\n      dup2\n        /* \"#utility.yul\":4567:4579   */\n      mload\n        /* \"#utility.yul\":4557:4579   */\n      swap1\n      pop\n        /* \"#utility.yul\":4472:4586   */\n      swap2\n      swap1\n      pop\n      jump\t// out\n        /* \"#utility.yul\":4592:4776   */\n    tag_132:\n        /* \"#utility.yul\":4691:4702   */\n      0x00\n        /* \"#utility.yul\":4725:4731   */\n      dup3\n        /* \"#utility.yul\":4720:4723   */\n      dup3\n        /* \"#utility.yul\":4713:4732   */\n      mstore\n        /* \"#utility.yul\":4765:4769   */\n      0x20\n        /* \"#utility.yul\":4760:4763   */\n      dup3\n        /* \"#utility.yul\":4756:4770   */\n      add\n        /* \"#utility.yul\":4741:4770   */\n      swap1\n      pop\n        /* \"#utility.yul\":4592:4776   */\n      swap3\n      swap2\n      pop\n      pop\n      jump\t// out\n        /* \"#utility.yul\":4782:4914   */\n    tag_133:\n        /* \"#utility.yul\":4849:4853   */\n      0x00\n        /* \"#utility.yul\":4872:4875   */\n      dup2\n        /* \"#utility.yul\":4864:4875   */\n      swap1\n      pop\n        /* \"#utility.yul\":4902:4906   */\n      0x20\n        /* \"#utility.yul\":4897:4900   */\n      dup3\n        /* \"#utility.yul\":4893:4907   */\n      add\n        /* \"#utility.yul\":4885:4907   */\n      swap1\n      pop\n        /* \"#utility.yul\":4782:4914   */\n      swap2\n      swap1\n      pop\n      jump\t// out\n        /* \"#utility.yul\":4920:5028   */\n    tag_134:\n        /* \"#utility.yul\":4997:5021   */\n      tag_197\n        /* \"#utility.yul\":5015:5020   */\n      dup2\n        /* \"#utility.yul\":4997:5021   */\n      tag_118\n      jump\t// in\n    tag_197:\n        /* \"#utility.yul\":4992:4995   */\n      dup3\n        /* \"#utility.yul\":4985:5022   */\n      mstore\n        /* \"#utility.yul\":4920:5028   */\n      pop\n      pop\n      jump\t// out\n        /* \"#utility.yul\":5034:5213   */\n    tag_135:\n        /* \"#utility.yul\":5103:5113   */\n      0x00\n        /* \"#utility.yul\":5124:5170   */\n      tag_199\n        /* \"#utility.yul\":5166:5169   */\n      dup4\n        /* \"#utility.yul\":5158:5164   */\n      dup4\n        /* \"#utility.yul\":5124:5170   */\n      tag_134\n      jump\t// in\n    tag_199:\n        /* \"#utility.yul\":5202:5206   */\n      0x20\n        /* \"#utility.yul\":5197:5200   */\n      dup4\n        /* \"#utility.yul\":5193:5207   */\n      add\n        /* \"#utility.yul\":5179:5207   */\n      swap1\n      pop\n        /* \"#utility.yul\":5034:5213   */\n      swap3\n      swap2\n      pop\n      pop\n      jump\t// out\n        /* \"#utility.yul\":5219:5332   */\n    tag_136:\n        /* \"#utility.yul\":5289:5293   */\n      0x00\n        /* \"#utility.yul\":5321:5325   */\n      0x20\n        /* \"#utility.yul\":5316:5319   */\n      dup3\n        /* \"#utility.yul\":5312:5326   */\n      add\n        /* \"#utility.yul\":5304:5326   */\n      swap1\n      pop\n        /* \"#utility.yul\":5219:5332   */\n      swap2\n      swap1\n      pop\n      jump\t// out\n        /* \"#utility.yul\":5368:6100   */\n    tag_137:\n        /* \"#utility.yul\":5487:5490   */\n      0x00\n        /* \"#utility.yul\":5516:5570   */\n      tag_202\n        /* \"#utility.yul\":5564:5569   */\n      dup3\n        /* \"#utility.yul\":5516:5570   */\n      tag_131\n      jump\t// in\n    tag_202:\n        /* \"#utility.yul\":5586:5672   */\n      tag_203\n        /* \"#utility.yul\":5665:5671   */\n      dup2\n        /* \"#utility.yul\":5660:5663   */\n      dup6\n        /* \"#utility.yul\":5586:5672   */\n      tag_132\n      jump\t// in\n    tag_203:\n        /* \"#utility.yul\":5579:5672   */\n      swap4\n      pop\n        /* \"#utility.yul\":5696:5752   */\n      tag_204\n        /* \"#utility.yul\":5746:5751   */\n      dup4\n        /* \"#utility.yul\":5696:5752   */\n      tag_133\n      jump\t// in\n    tag_204:\n        /* \"#utility.yul\":5775:5782   */\n      dup1\n        /* \"#utility.yul\":5806:5807   */\n      0x00\n        /* \"#utility.yul\":5791:6075   */\n    tag_205:\n        /* \"#utility.yul\":5816:5822   */\n      dup4\n        /* \"#utility.yul\":5813:5814   */\n      dup2\n        /* \"#utility.yul\":5810:5823   */\n      lt\n        /* \"#utility.yul\":5791:6075   */\n      iszero\n      tag_207\n      jumpi\n        /* \"#utility.yul\":5892:5898   */\n      dup2\n        /* \"#utility.yul\":5886:5899   */\n      mload\n        /* \"#utility.yul\":5919:5982   */\n      tag_208\n        /* \"#utility.yul\":5978:5981   */\n      dup9\n        /* \"#utility.yul\":5963:5976   */\n      dup3\n        /* \"#utility.yul\":5919:5982   */\n      tag_135\n      jump\t// in\n    tag_208:\n        /* \"#utility.yul\":5912:5982   */\n      swap8\n      pop\n        /* \"#utility.yul\":6005:6065   */\n      tag_209\n        /* \"#utility.yul\":6058:6064   */\n      dup4\n        /* \"#utility.yul\":6005:6065   */\n      tag_136\n      jump\t// in\n    tag_209:\n        /* \"#utility.yul\":5995:6065   */\n      swap3\n      pop\n        /* \"#utility.yul\":5851:6075   */\n      pop\n        /* \"#utility.yul\":5838:5839   */\n      0x01\n        /* \"#utility.yul\":5835:5836   */\n      dup2\n        /* \"#utility.yul\":5831:5840   */\n      add\n        /* \"#utility.yul\":5826:5840   */\n      swap1\n      pop\n        /* \"#utility.yul\":5791:6075   */\n      jump(tag_205)\n    tag_207:\n        /* \"#utility.yul\":5795:5809   */\n      pop\n        /* \"#utility.yul\":6091:6094   */\n      dup6\n        /* \"#utility.yul\":6084:6094   */\n      swap4\n      pop\n        /* \"#utility.yul\":5492:6100   */\n      pop\n      pop\n      pop\n        /* \"#utility.yul\":5368:6100   */\n      swap3\n      swap2\n      pop\n      pop\n      jump\t// out\n        /* \"#utility.yul\":6106:6479   */\n    tag_28:\n        /* \"#utility.yul\":6249:6253   */\n      0x00\n        /* \"#utility.yul\":6287:6289   */\n      0x20\n        /* \"#utility.yul\":6276:6285   */\n      dup3\n        /* \"#utility.yul\":6272:6290   */\n      add\n        /* \"#utility.yul\":6264:6290   */\n      swap1\n      pop\n        /* \"#utility.yul\":6336:6345   */\n      dup2\n        /* \"#utility.yul\":6330:6334   */\n      dup2\n        /* \"#utility.yul\":6326:6346   */\n      sub\n        /* \"#utility.yul\":6322:6323   */\n      0x00\n        /* \"#utility.yul\":6311:6320   */\n      dup4\n        /* \"#utility.yul\":6307:6324   */\n      add\n        /* \"#utility.yul\":6300:6347   */\n      mstore\n        /* \"#utility.yul\":6364:6472   */\n      tag_211\n        /* \"#utility.yul\":6467:6471   */\n      dup2\n        /* \"#utility.yul\":6458:6464   */\n      dup5\n        /* \"#utility.yul\":6364:6472   */\n      tag_137\n      jump\t// in\n    tag_211:\n        /* \"#utility.yul\":6356:6472   */\n      swap1\n      pop\n        /* \"#utility.yul\":6106:6479   */\n      swap3\n      swap2\n      pop\n      pop\n      jump\t// out\n        /* \"#utility.yul\":6485:6814   */\n    tag_31:\n        /* \"#utility.yul\":6544:6550   */\n      0x00\n        /* \"#utility.yul\":6593:6595   */\n      0x20\n        /* \"#utility.yul\":6581:6590   */\n      dup3\n        /* \"#utility.yul\":6572:6579   */\n      dup5\n        /* \"#utility.yul\":6568:6591   */\n      sub\n        /* \"#utility.yul\":6564:6596   */\n      slt\n        /* \"#utility.yul\":6561:6680   */\n      iszero\n      tag_213\n      jumpi\n        /* \"#utility.yul\":6599:6678   */\n      tag_214\n      tag_116\n      jump\t// in\n    tag_214:\n        /* \"#utility.yul\":6561:6680   */\n    tag_213:\n        /* \"#utility.yul\":6719:6720   */\n      0x00\n        /* \"#utility.yul\":6744:6797   */\n      tag_215\n        /* \"#utility.yul\":6789:6796   */\n      dup5\n        /* \"#utility.yul\":6780:6786   */\n      dup3\n        /* \"#utility.yul\":6769:6778   */\n      dup6\n        /* \"#utility.yul\":6765:6787   */\n      add\n        /* \"#utility.yul\":6744:6797   */\n      tag_120\n      jump\t// in\n    tag_215:\n        /* \"#utility.yul\":6734:6797   */\n      swap2\n      pop\n        /* \"#utility.yul\":6690:6807   */\n      pop\n        /* \"#utility.yul\":6485:6814   */\n      swap3\n      swap2\n      pop\n      pop\n      jump\t// out\n        /* \"#utility.yul\":6820:6910   */\n    tag_138:\n        /* \"#utility.yul\":6854:6861   */\n      0x00\n        /* \"#utility.yul\":6897:6902   */\n      dup2\n        /* \"#utility.yul\":6890:6903   */\n      iszero\n        /* \"#utility.yul\":6883:6904   */\n      iszero\n        /* \"#utility.yul\":6872:6904   */\n      swap1\n      pop\n        /* \"#utility.yul\":6820:6910   */\n      swap2\n      swap1\n      pop\n      jump\t// out\n        /* \"#utility.yul\":6916:7025   */\n    tag_139:\n        /* \"#utility.yul\":6997:7018   */\n      tag_218\n        /* \"#utility.yul\":7012:7017   */\n      dup2\n        /* \"#utility.yul\":6997:7018   */\n      tag_138\n      jump\t// in\n    tag_218:\n        /* \"#utility.yul\":6992:6995   */\n      dup3\n        /* \"#utility.yul\":6985:7019   */\n      mstore\n        /* \"#utility.yul\":6916:7025   */\n      pop\n      pop\n      jump\t// out\n        /* \"#utility.yul\":7031:7241   */\n    tag_34:\n        /* \"#utility.yul\":7118:7122   */\n      0x00\n        /* \"#utility.yul\":7156:7158   */\n      0x20\n        /* \"#utility.yul\":7145:7154   */\n      dup3\n        /* \"#utility.yul\":7141:7159   */\n      add\n        /* \"#utility.yul\":7133:7159   */\n      swap1\n      pop\n        /* \"#utility.yul\":7169:7234   */\n      tag_220\n        /* \"#utility.yul\":7231:7232   */\n      0x00\n        /* \"#utility.yul\":7220:7229   */\n      dup4\n        /* \"#utility.yul\":7216:7233   */\n      add\n        /* \"#utility.yul\":7207:7213   */\n      dup5\n        /* \"#utility.yul\":7169:7234   */\n      tag_139\n      jump\t// in\n    tag_220:\n        /* \"#utility.yul\":7031:7241   */\n      swap3\n      swap2\n      pop\n      pop\n      jump\t// out\n        /* \"#utility.yul\":7247:7427   */\n    tag_140:\n        /* \"#utility.yul\":7295:7372   */\n      0x4e487b7100000000000000000000000000000000000000000000000000000000\n        /* \"#utility.yul\":7292:7293   */\n      0x00\n        /* \"#utility.yul\":7285:7373   */\n      mstore\n        /* \"#utility.yul\":7392:7396   */\n      0x11\n        /* \"#utility.yul\":7389:7390   */\n      0x04\n        /* \"#utility.yul\":7382:7397   */\n      mstore\n        /* \"#utility.yul\":7416:7420   */\n      0x24\n        /* \"#utility.yul\":7413:7414   */\n      0x00\n        /* \"#utility.yul\":7406:7421   */\n      revert\n        /* \"#utility.yul\":7433:7624   */\n    tag_50:\n        /* \"#utility.yul\":7473:7476   */\n      0x00\n        /* \"#utility.yul\":7492:7512   */\n      tag_223\n        /* \"#utility.yul\":7510:7511   */\n      dup3\n        /* \"#utility.yul\":7492:7512   */\n      tag_118\n      jump\t// in\n    tag_223:\n        /* \"#utility.yul\":7487:7512   */\n      swap2\n      pop\n        /* \"#utility.yul\":7526:7546   */\n      tag_224\n        /* \"#utility.yul\":7544:7545   */\n      dup4\n        /* \"#utility.yul\":7526:7546   */\n      tag_118\n      jump\t// in\n    tag_224:\n        /* \"#utility.yul\":7521:7546   */\n      swap3\n      pop\n        /* \"#utility.yul\":7569:7570   */\n      dup3\n        /* \"#utility.yul\":7566:7567   */\n      dup3\n        /* \"#utility.yul\":7562:7571   */\n      add\n        /* \"#utility.yul\":7555:7571   */\n      swap1\n      pop\n        /* \"#utility.yul\":7590:7593   */\n      dup1\n        /* \"#utility.yul\":7587:7588   */\n      dup3\n        /* \"#utility.yul\":7584:7594   */\n      gt\n        /* \"#utility.yul\":7581:7617   */\n      iszero\n      tag_225\n      jumpi\n        /* \"#utility.yul\":7597:7615   */\n      tag_226\n      tag_140\n      jump\t// in\n    tag_226:\n        /* \"#utility.yul\":7581:7617   */\n    tag_225:\n        /* \"#utility.yul\":7433:7624   */\n      swap3\n      swap2\n      pop\n      pop\n      jump\t// out\n        /* \"#utility.yul\":7630:7863   */\n    tag_52:\n        /* \"#utility.yul\":7669:7672   */\n      0x00\n        /* \"#utility.yul\":7692:7716   */\n      tag_228\n        /* \"#utility.yul\":7710:7715   */\n      dup3\n        /* \"#utility.yul\":7692:7716   */\n      tag_118\n      jump\t// in\n    tag_228:\n        /* \"#utility.yul\":7683:7716   */\n      swap2\n      pop\n        /* \"#utility.yul\":7738:7804   */\n      0xffffffffffffffffffffffffffffffffffffffffffffffffffffffffffffffff\n        /* \"#utility.yul\":7731:7736   */\n      dup3\n        /* \"#utility.yul\":7728:7805   */\n      sub\n        /* \"#utility.yul\":7725:7828   */\n      tag_229\n      jumpi\n        /* \"#utility.yul\":7808:7826   */\n      tag_230\n      tag_140\n      jump\t// in\n    tag_230:\n        /* \"#utility.yul\":7725:7828   */\n    tag_229:\n        /* \"#utility.yul\":7855:7856   */\n      0x01\n        /* \"#utility.yul\":7848:7853   */\n      dup3\n        /* \"#utility.yul\":7844:7857   */\n      add\n        /* \"#utility.yul\":7837:7857   */\n      swap1\n      pop\n        /* \"#utility.yul\":7630:7863   */\n      swap2\n      swap1\n      pop\n      jump\t// out\n        /* \"#utility.yul\":7869:8049   */\n    tag_64:\n        /* \"#utility.yul\":7917:7994   */\n      0x4e487b7100000000000000000000000000000000000000000000000000000000\n        /* \"#utility.yul\":7914:7915   */\n      0x00\n        /* \"#utility.yul\":7907:7995   */\n      mstore\n        /* \"#utility.yul\":8014:8018   */\n      0x32\n        /* \"#utility.yul\":8011:8012   */\n      0x04\n        /* \"#utility.yul\":8004:8019   */\n      mstore\n        /* \"#utility.yul\":8038:8042   */\n      0x24\n        /* \"#utility.yul\":8035:8036   */\n      0x00\n        /* \"#utility.yul\":8028:8043   */\n      revert\n        /* \"#utility.yul\":8055:8249   */\n    tag_69:\n        /* \"#utility.yul\":8095:8099   */\n      0x00\n        /* \"#utility.yul\":8115:8135   */\n      tag_233\n        /* \"#utility.yul\":8133:8134   */\n      dup3\n        /* \"#utility.yul\":8115:8135   */\n      tag_118\n      jump\t// in\n    tag_233:\n        /* \"#utility.yul\":8110:8135   */\n      swap2\n      pop\n        /* \"#utility.yul\":8149:8169   */\n      tag_234\n        /* \"#utility.yul\":8167:8168   */\n      dup4\n        /* \"#utility.yul\":8149:8169   */\n      tag_118\n      jump\t// in\n    tag_234:\n        /* \"#utility.yul\":8144:8169   */\n      swap3\n      pop\n        /* \"#utility.yul\":8193:8194   */\n      dup3\n        /* \"#utility.yul\":8190:8191   */\n      dup3\n        /* \"#utility.yul\":8186:8195   */\n      sub\n        /* \"#utility.yul\":8178:8195   */\n      swap1\n      pop\n        /* \"#utility.yul\":8217:8218   */\n      dup2\n        /* \"#utility.yul\":8211:8215   */\n      dup2\n        /* \"#utility.yul\":8208:8219   */\n      gt\n        /* \"#utility.yul\":8205:8242   */\n      iszero\n      tag_235\n      jumpi\n        /* \"#utility.yul\":8222:8240   */\n      tag_236\n      tag_140\n      jump\t// in\n    tag_236:\n        /* \"#utility.yul\":8205:8242   */\n    tag_235:\n        /* \"#utility.yul\":8055:8249   */\n      swap3\n      swap2\n      pop\n      pop\n      jump\t// out\n        /* \"#utility.yul\":8255:8426   */\n    tag_78:\n        /* \"#utility.yul\":8294:8297   */\n      0x00\n        /* \"#utility.yul\":8317:8341   */\n      tag_238\n        /* \"#utility.yul\":8335:8340   */\n      dup3\n        /* \"#utility.yul\":8317:8341   */\n      tag_118\n      jump\t// in\n    tag_238:\n        /* \"#utility.yul\":8308:8341   */\n      swap2\n      pop\n        /* \"#utility.yul\":8363:8367   */\n      0x00\n        /* \"#utility.yul\":8356:8361   */\n      dup3\n        /* \"#utility.yul\":8353:8368   */\n      sub\n        /* \"#utility.yul\":8350:8391   */\n      tag_239\n      jumpi\n        /* \"#utility.yul\":8371:8389   */\n      tag_240\n      tag_140\n      jump\t// in\n    tag_240:\n        /* \"#utility.yul\":8350:8391   */\n    tag_239:\n        /* \"#utility.yul\":8418:8419   */\n      0x01\n        /* \"#utility.yul\":8411:8416   */\n      dup3\n        /* \"#utility.yul\":8407:8420   */\n      sub\n        /* \"#utility.yul\":8400:8420   */\n      swap1\n      pop\n        /* \"#utility.yul\":8255:8426   */\n      swap2\n      swap1\n      pop\n      jump\t// out\n\n    auxdata: 0xa2646970667358221220331fb95a1c32442f20c7f3443cc67cdca4e9e0fc92f54dfad7517167015f5a9e64736f6c634300081e0033\n}\n",
				"bytecode": {
					"linkReferences": {},
					"object": "6080604052348015600e575f5ffd5b5061098b8061001c5f395ff3fe608060405234801561000f575f5ffd5b506004361061007b575f3560e01c80636297206f116100595780636297206f146100eb5780637141fb001461011b578063af40994f1461014b578063b0cfa9fc1461017b5761007b565b8063287663201461007f5780632bbacaaa146100af5780635d14639d146100cd575b5f5ffd5b610099600480360381019061009491906104f5565b610199565b6040516100a69190610542565b60405180910390f35b6100b76101b2565b6040516100c49190610542565b60405180910390f35b6100d56101e8565b6040516100e29190610542565b60405180910390f35b610105600480360381019061010091906106ab565b610224565b60405161011291906107a9565b60405180910390f35b610135600480360381019061013091906107c9565b610324565b604051610142919061080e565b60405180910390f35b610165600480360381019061016091906106ab565b61033e565b60405161017291906107a9565b60405180910390f35b61018361047b565b6040516101909190610542565b60405180910390f35b5f818310156101a857816101aa565b825b905092915050565b5f5f5f90505f5f90505b80826101c89190610854565b915080806101d590610887565b915050600a81106101bc57819250505090565b5f5f5f90505f5f90505b600a81101561021c5780826102079190610854565b9150808061021490610887565b9150506101f2565b819250505090565b60605f600190505b825181101561031b575f838281518110610249576102486108ce565b5b602002602001015190505f8290505b6001811015801561028e57508460018261027291906108fb565b81518110610283576102826108ce565b5b602002602001015182105b156102ec57846001826102a191906108fb565b815181106102b2576102b16108ce565b5b60200260200101518582815181106102cd576102cc6108ce565b5b60200260200101818152505080806102e49061092e565b915050610258565b81858281518110610300576102ff6108ce565b5b6020026020010181815250505050808060010191505061022c565b50819050919050565b5f5f82036103355760019050610339565b5f90505b919050565b60605f600190505b8251811015610472575f838281518110610363576103626108ce565b5b602002602001015190505f8290508290505b6001811061040a578460018261038b91906108fb565b8151811061039c5761039b6108ce565b5b60200260200101518210156103f657846001826103b991906108fb565b815181106103ca576103c96108ce565b5b60200260200101518582815181106103e5576103e46108ce565b5b6020026020010181815250506103f7565b5b80806104029061092e565b915050610375565b5f81036104365781858281518110610425576104246108ce565b5b602002602001018181525050610463565b818560018361044591906108fb565b81518110610456576104556108ce565b5b6020026020010181815250505b50508080600101915050610346565b50819050919050565b5f5f5f90505f5f90505b600a8110156104a957808261049a9190610854565b91508080600101915050610485565b508091505090565b5f604051905090565b5f5ffd5b5f5ffd5b5f819050919050565b6104d4816104c2565b81146104de575f5ffd5b50565b5f813590506104ef816104cb565b92915050565b5f5f6040838503121561050b5761050a6104ba565b5b5f610518858286016104e1565b9250506020610529858286016104e1565b9150509250929050565b61053c816104c2565b82525050565b5f6020820190506105555f830184610533565b92915050565b5f5ffd5b5f601f19601f8301169050919050565b7f4e487b71000000000000000000000000000000000000000000000000000000005f52604160045260245ffd5b6105a58261055f565b810181811067ffffffffffffffff821117156105c4576105c361056f565b5b80604052505050565b5f6105d66104b1565b90506105e2828261059c565b919050565b5f67ffffffffffffffff8211156106015761060061056f565b5b602082029050602081019050919050565b5f5ffd5b5f610628610623846105e7565b6105cd565b9050808382526020820190506020840283018581111561064b5761064a610612565b5b835b81811015610674578061066088826104e1565b84526020840193505060208101905061064d565b5050509392505050565b5f82601f8301126106925761069161055b565b5b81356106a2848260208601610616565b91505092915050565b5f602082840312156106c0576106bf6104ba565b5b5f82013567ffffffffffffffff8111156106dd576106dc6104be565b5b6106e98482850161067e565b91505092915050565b5f81519050919050565b5f82825260208201905092915050565b5f819050602082019050919050565b610724816104c2565b82525050565b5f610735838361071b565b60208301905092915050565b5f602082019050919050565b5f610757826106f2565b61076181856106fc565b935061076c8361070c565b805f5b8381101561079c578151610783888261072a565b975061078e83610741565b92505060018101905061076f565b5085935050505092915050565b5f6020820190508181035f8301526107c1818461074d565b905092915050565b5f602082840312156107de576107dd6104ba565b5b5f6107eb848285016104e1565b91505092915050565b5f8115159050919050565b610808816107f4565b82525050565b5f6020820190506108215f8301846107ff565b92915050565b7f4e487b71000000000000000000000000000000000000000000000000000000005f52601160045260245ffd5b5f61085e826104c2565b9150610869836104c2565b925082820190508082111561088157610880610827565b5b92915050565b5f610891826104c2565b91507fffffffffffffffffffffffffffffffffffffffffffffffffffffffffffffffff82036108c3576108c2610827565b5b600182019050919050565b7f4e487b71000000000000000000000000000000000000000000000000000000005f52603260045260245ffd5b5f610905826104c2565b9150610910836104c2565b925082820390508181111561092857610927610827565b5b92915050565b5f610938826104c2565b91505f820361094a57610949610827565b5b60018203905091905056fea2646970667358221220331fb95a1c32442f20c7f3443cc67cdca4e9e0fc92f54dfad7517167015f5a9e64736f6c634300081e0033",
					"opcodes": "PUSH1 0x80 PUSH1 0x40 MSTORE CALLVALUE DUP1 ISZERO PUSH1 0xE JUMPI PUSH0 PUSH0 REVERT JUMPDEST POP PUSH2 0x98B DUP1 PUSH2 0x1C PUSH0 CODECOPY PUSH0 RETURN INVALID PUSH1 0x80 PUSH1 0x40 MSTORE CALLVALUE DUP1 ISZERO PUSH2 0xF JUMPI PUSH0 PUSH0 REVERT JUMPDEST POP PUSH1 0x4 CALLDATASIZE LT PUSH2 0x7B JUMPI PUSH0 CALLDATALOAD PUSH1 0xE0 SHR DUP1 PUSH4 0x6297206F GT PUSH2 0x59 JUMPI DUP1 PUSH4 0x6297206F EQ PUSH2 0xEB JUMPI DUP1 PUSH4 0x7141FB00 EQ PUSH2 0x11B JUMPI DUP1 PUSH4 0xAF40994F EQ PUSH2 0x14B JUMPI DUP1 PUSH4 0xB0CFA9FC EQ PUSH2 0x17B JUMPI PUSH2 0x7B JUMP JUMPDEST DUP1 PUSH4 0x28766320 EQ PUSH2 0x7F JUMPI DUP1 PUSH4 0x2BBACAAA EQ PUSH2 0xAF JUMPI DUP1 PUSH4 0x5D14639D EQ PUSH2 0xCD JUMPI JUMPDEST PUSH0 PUSH0 REVERT JUMPDEST PUSH2 0x99 PUSH1 0x4 DUP1 CALLDATASIZE SUB DUP2 ADD SWAP1 PUSH2 0x94 SWAP2 SWAP1 PUSH2 0x4F5 JUMP JUMPDEST PUSH2 0x199 JUMP JUMPDEST PUSH1 0x40 MLOAD PUSH2 0xA6 SWAP2 SWAP1 PUSH2 0x542 JUMP JUMPDEST PUSH1 0x40 MLOAD DUP1 SWAP2 SUB SWAP1 RETURN JUMPDEST PUSH2 0xB7 PUSH2 0x1B2 JUMP JUMPDEST PUSH1 0x40 MLOAD PUSH2 0xC4 SWAP2 SWAP1 PUSH2 0x542 JUMP JUMPDEST PUSH1 0x40 MLOAD DUP1 SWAP2 SUB SWAP1 RETURN JUMPDEST PUSH2 0xD5 PUSH2 0x1E8 JUMP JUMPDEST PUSH1 0x40 MLOAD PUSH2 0xE2 SWAP2 SWAP1 PUSH2 0x542 JUMP JUMPDEST PUSH1 0x40 MLOAD DUP1 SWAP2 SUB SWAP1 RETURN JUMPDEST PUSH2 0x105 PUSH1 0x4 DUP1 CALLDATASIZE SUB DUP2 ADD SWAP1 PUSH2 0x100 SWAP2 SWAP1 PUSH2 0x6AB JUMP JUMPDEST PUSH2 0x224 JUMP JUMPDEST PUSH1 0x40 MLOAD PUSH2 0x112 SWAP2 SWAP1 PUSH2 0x7A9 JUMP JUMPDEST PUSH1 0x40 MLOAD DUP1 SWAP2 SUB SWAP1 RETURN JUMPDEST PUSH2 0x135 PUSH1 0x4 DUP1 CALLDATASIZE SUB DUP2 ADD SWAP1 PUSH2 0x130 SWAP2 SWAP1 PUSH2 0x7C9 JUMP JUMPDEST PUSH2 0x324 JUMP JUMPDEST PUSH1 0x40 MLOAD PUSH2 0x142 SWAP2 SWAP1 PUSH2 0x80E JUMP JUMPDEST PUSH1 0x40 MLOAD DUP1 SWAP2 SUB SWAP1 RETURN JUMPDEST PUSH2 0x165 PUSH1 0x4 DUP1 CALLDATASIZE SUB DUP2 ADD SWAP1 PUSH2 0x160 SWAP2 SWAP1 PUSH2 0x6AB JUMP JUMPDEST PUSH2 0x33E JUMP JUMPDEST PUSH1 0x40 MLOAD PUSH2 0x172 SWAP2 SWAP1 PUSH2 0x7A9 JUMP JUMPDEST PUSH1 0x40 MLOAD DUP1 SWAP2 SUB SWAP1 RETURN JUMPDEST PUSH2 0x183 PUSH2 0x47B JUMP JUMPDEST PUSH1 0x40 MLOAD PUSH2 0x190 SWAP2 SWAP1 PUSH2 0x542 JUMP JUMPDEST PUSH1 0x40 MLOAD DUP1 SWAP2 SUB SWAP1 RETURN JUMPDEST PUSH0 DUP2 DUP4 LT ISZERO PUSH2 0x1A8 JUMPI DUP2 PUSH2 0x1AA JUMP JUMPDEST DUP3 JUMPDEST SWAP1 POP SWAP3 SWAP2 POP POP JUMP JUMPDEST PUSH0 PUSH0 PUSH0 SWAP1 POP PUSH0 PUSH0 SWAP1 POP JUMPDEST DUP1 DUP3 PUSH2 0x1C8 SWAP2 SWAP1 PUSH2 0x854 JUMP JUMPDEST SWAP2 POP DUP1 DUP1 PUSH2 0x1D5 SWAP1 PUSH2 0x887 JUMP JUMPDEST SWAP2 POP POP PUSH1 0xA DUP2 LT PUSH2 0x1BC JUMPI DUP2 SWAP3 POP POP POP SWAP1 JUMP JUMPDEST PUSH0 PUSH0 PUSH0 SWAP1 POP PUSH0 PUSH0 SWAP1 POP JUMPDEST PUSH1 0xA DUP2 LT ISZERO PUSH2 0x21C JUMPI DUP1 DUP3 PUSH2 0x207 SWAP2 SWAP1 PUSH2 0x854 JUMP JUMPDEST SWAP2 POP DUP1 DUP1 PUSH2 0x214 SWAP1 PUSH2 0x887 JUMP JUMPDEST SWAP2 POP POP PUSH2 0x1F2 JUMP JUMPDEST DUP2 SWAP3 POP POP POP SWAP1 JUMP JUMPDEST PUSH1 0x60 PUSH0 PUSH1 0x1 SWAP1 POP JUMPDEST DUP3 MLOAD DUP2 LT ISZERO PUSH2 0x31B JUMPI PUSH0 DUP4 DUP3 DUP2 MLOAD DUP2 LT PUSH2 0x249 JUMPI PUSH2 0x248 PUSH2 0x8CE JUMP JUMPDEST JUMPDEST PUSH1 0x20 MUL PUSH1 0x20 ADD ADD MLOAD SWAP1 POP PUSH0 DUP3 SWAP1 POP JUMPDEST PUSH1 0x1 DUP2 LT ISZERO DUP1 ISZERO PUSH2 0x28E JUMPI POP DUP5 PUSH1 0x1 DUP3 PUSH2 0x272 SWAP2 SWAP1 PUSH2 0x8FB JUMP JUMPDEST DUP2 MLOAD DUP2 LT PUSH2 0x283 JUMPI PUSH2 0x282 PUSH2 0x8CE JUMP JUMPDEST JUMPDEST PUSH1 0x20 MUL PUSH1 0x20 ADD ADD MLOAD DUP3 LT JUMPDEST ISZERO PUSH2 0x2EC JUMPI DUP5 PUSH1 0x1 DUP3 PUSH2 0x2A1 SWAP2 SWAP1 PUSH2 0x8FB JUMP JUMPDEST DUP2 MLOAD DUP2 LT PUSH2 0x2B2 JUMPI PUSH2 0x2B1 PUSH2 0x8CE JUMP JUMPDEST JUMPDEST PUSH1 0x20 MUL PUSH1 0x20 ADD ADD MLOAD DUP6 DUP3 DUP2 MLOAD DUP2 LT PUSH2 0x2CD JUMPI PUSH2 0x2CC PUSH2 0x8CE JUMP JUMPDEST JUMPDEST PUSH1 0x20 MUL PUSH1 0x20 ADD ADD DUP2 DUP2 MSTORE POP POP DUP1 DUP1 PUSH2 0x2E4 SWAP1 PUSH2 0x92E JUMP JUMPDEST SWAP2 POP POP PUSH2 0x258 JUMP JUMPDEST DUP2 DUP6 DUP3 DUP2 MLOAD DUP2 LT PUSH2 0x300 JUMPI PUSH2 0x2FF PUSH2 0x8CE JUMP JUMPDEST JUMPDEST PUSH1 0x20 MUL PUSH1 0x20 ADD ADD DUP2 DUP2 MSTORE POP POP POP POP DUP1 DUP1 PUSH1 0x1 ADD SWAP2 POP POP PUSH2 0x22C JUMP JUMPDEST POP DUP2 SWAP1 POP SWAP2 SWAP1 POP JUMP JUMPDEST PUSH0 PUSH0 DUP3 SUB PUSH2 0x335 JUMPI PUSH1 0x1 SWAP1 POP PUSH2 0x339 JUMP JUMPDEST PUSH0 SWAP1 POP JUMPDEST SWAP2 SWAP1 POP JUMP JUMPDEST PUSH1 0x60 PUSH0 PUSH1 0x1 SWAP1 POP JUMPDEST DUP3 MLOAD DUP2 LT ISZERO PUSH2 0x472 JUMPI PUSH0 DUP4 DUP3 DUP2 MLOAD DUP2 LT PUSH2 0x363 JUMPI PUSH2 0x362 PUSH2 0x8CE JUMP JUMPDEST JUMPDEST PUSH1 0x20 MUL PUSH1 0x20 ADD ADD MLOAD SWAP1 POP PUSH0 DUP3 SWAP1 POP DUP3 SWAP1 POP JUMPDEST PUSH1 0x1 DUP2 LT PUSH2 0x40A JUMPI DUP5 PUSH1 0x1 DUP3 PUSH2 0x38B SWAP2 SWAP1 PUSH2 0x8FB JUMP JUMPDEST DUP2 MLOAD DUP2 LT PUSH2 0x39C JUMPI PUSH2 0x39B PUSH2 0x8CE JUMP JUMPDEST JUMPDEST PUSH1 0x20 MUL PUSH1 0x20 ADD ADD MLOAD DUP3 LT ISZERO PUSH2 0x3F6 JUMPI DUP5 PUSH1 0x1 DUP3 PUSH2 0x3B9 SWAP2 SWAP1 PUSH2 0x8FB JUMP JUMPDEST DUP2 MLOAD DUP2 LT PUSH2 0x3CA JUMPI PUSH2 0x3C9 PUSH2 0x8CE JUMP JUMPDEST JUMPDEST PUSH1 0x20 MUL PUSH1 0x20 ADD ADD MLOAD DUP6 DUP3 DUP2 MLOAD DUP2 LT PUSH2 0x3E5 JUMPI PUSH2 0x3E4 PUSH2 0x8CE JUMP JUMPDEST JUMPDEST PUSH1 0x20 MUL PUSH1 0x20 ADD ADD DUP2 DUP2 MSTORE POP POP PUSH2 0x3F7 JUMP JUMPDEST JUMPDEST DUP1 DUP1 PUSH2 0x402 SWAP1 PUSH2 0x92E JUMP JUMPDEST SWAP2 POP POP PUSH2 0x375 JUMP JUMPDEST PUSH0 DUP2 SUB PUSH2 0x436 JUMPI DUP2 DUP6 DUP3 DUP2 MLOAD DUP2 LT PUSH2 0x425 JUMPI PUSH2 0x424 PUSH2 0x8CE JUMP JUMPDEST JUMPDEST PUSH1 0x20 MUL PUSH1 0x20 ADD ADD DUP2 DUP2 MSTORE POP POP PUSH2 0x463 JUMP JUMPDEST DUP2 DUP6 PUSH1 0x1 DUP4 PUSH2 0x445 SWAP2 SWAP1 PUSH2 0x8FB JUMP JUMPDEST DUP2 MLOAD DUP2 LT PUSH2 0x456 JUMPI PUSH2 0x455 PUSH2 0x8CE JUMP JUMPDEST JUMPDEST PUSH1 0x20 MUL PUSH1 0x20 ADD ADD DUP2 DUP2 MSTORE POP POP JUMPDEST POP POP DUP1 DUP1 PUSH1 0x1 ADD SWAP2 POP POP PUSH2 0x346 JUMP JUMPDEST POP DUP2 SWAP1 POP SWAP2 SWAP1 POP JUMP JUMPDEST PUSH0 PUSH0 PUSH0 SWAP1 POP PUSH0 PUSH0 SWAP1 POP JUMPDEST PUSH1 0xA DUP2 LT ISZERO PUSH2 0x4A9 JUMPI DUP1 DUP3 PUSH2 0x49A SWAP2 SWAP1 PUSH2 0x854 JUMP JUMPDEST SWAP2 POP DUP1 DUP1 PUSH1 0x1 ADD SWAP2 POP POP PUSH2 0x485 JUMP JUMPDEST POP DUP1 SWAP2 POP POP SWAP1 JUMP JUMPDEST PUSH0 PUSH1 0x40 MLOAD SWAP1 POP SWAP1 JUMP JUMPDEST PUSH0 PUSH0 REVERT JUMPDEST PUSH0 PUSH0 REVERT JUMPDEST PUSH0 DUP2 SWAP1 POP SWAP2 SWAP1 POP JUMP JUMPDEST PUSH2 0x4D4 DUP2 PUSH2 0x4C2 JUMP JUMPDEST DUP2 EQ PUSH2 0x4DE JUMPI PUSH0 PUSH0 REVERT JUMPDEST POP JUMP JUMPDEST PUSH0 DUP2 CALLDATALOAD SWAP1 POP PUSH2 0x4EF DUP2 PUSH2 0x4CB JUMP JUMPDEST SWAP3 SWAP2 POP POP JUMP JUMPDEST PUSH0 PUSH0 PUSH1 0x40 DUP4 DUP6 SUB SLT ISZERO PUSH2 0x50B JUMPI PUSH2 0x50A PUSH2 0x4BA JUMP JUMPDEST JUMPDEST PUSH0 PUSH2 0x518 DUP6 DUP3 DUP7 ADD PUSH2 0x4E1 JUMP JUMPDEST SWAP3 POP POP PUSH1 0x20 PUSH2 0x529 DUP6 DUP3 DUP7 ADD PUSH2 0x4E1 JUMP JUMPDEST SWAP2 POP POP SWAP3 POP SWAP3 SWAP1 POP JUMP JUMPDEST PUSH2 0x53C DUP2 PUSH2 0x4C2 JUMP JUMPDEST DUP3 MSTORE POP POP JUMP JUMPDEST PUSH0 PUSH1 0x20 DUP3 ADD SWAP1 POP PUSH2 0x555 PUSH0 DUP4 ADD DUP5 PUSH2 0x533 JUMP JUMPDEST SWAP3 SWAP2 POP POP JUMP JUMPDEST PUSH0 PUSH0 REVERT JUMPDEST PUSH0 PUSH1 0x1F NOT PUSH1 0x1F DUP4 ADD AND SWAP1 POP SWAP2 SWAP1 POP JUMP JUMPDEST PUSH32 0x4E487B7100000000000000000000000000000000000000000000000000000000 PUSH0 MSTORE PUSH1 0x41 PUSH1 0x4 MSTORE PUSH1 0x24 PUSH0 REVERT JUMPDEST PUSH2 0x5A5 DUP3 PUSH2 0x55F JUMP JUMPDEST DUP2 ADD DUP2 DUP2 LT PUSH8 0xFFFFFFFFFFFFFFFF DUP3 GT OR ISZERO PUSH2 0x5C4 JUMPI PUSH2 0x5C3 PUSH2 0x56F JUMP JUMPDEST JUMPDEST DUP1 PUSH1 0x40 MSTORE POP POP POP JUMP JUMPDEST PUSH0 PUSH2 0x5D6 PUSH2 0x4B1 JUMP JUMPDEST SWAP1 POP PUSH2 0x5E2 DUP3 DUP3 PUSH2 0x59C JUMP JUMPDEST SWAP2 SWAP1 POP JUMP JUMPDEST PUSH0 PUSH8 0xFFFFFFFFFFFFFFFF DUP3 GT ISZERO PUSH2 0x601 JUMPI PUSH2 0x600 PUSH2 0x56F JUMP JUMPDEST JUMPDEST PUSH1 0x20 DUP3 MUL SWAP1 POP PUSH1 0x20 DUP2 ADD SWAP1 POP SWAP2 SWAP1 POP JUMP JUMPDEST PUSH0 PUSH0 REVERT JUMPDEST PUSH0 PUSH2 0x628 PUSH2 0x623 DUP5 PUSH2 0x5E7 JUMP JUMPDEST PUSH2 0x5CD JUMP JUMPDEST SWAP1 POP DUP1 DUP4 DUP3 MSTORE PUSH1 0x20 DUP3 ADD SWAP1 POP PUSH1 0x20 DUP5 MUL DUP4 ADD DUP6 DUP2 GT ISZERO PUSH2 0x64B JUMPI PUSH2 0x64A PUSH2 0x612 JUMP JUMPDEST JUMPDEST DUP4 JUMPDEST DUP2 DUP2 LT ISZERO PUSH2 0x674 JUMPI DUP1 PUSH2 0x660 DUP9 DUP3 PUSH2 0x4E1 JUMP JUMPDEST DUP5 MSTORE PUSH1 0x20 DUP5 ADD SWAP4 POP POP PUSH1 0x20 DUP2 ADD SWAP1 POP PUSH2 0x64D JUMP JUMPDEST POP POP POP SWAP4 SWAP3 POP POP POP JUMP JUMPDEST PUSH0 DUP3 PUSH1 0x1F DUP4 ADD SLT PUSH2 0x692 JUMPI PUSH2 0x691 PUSH2 0x55B JUMP JUMPDEST JUMPDEST DUP2 CALLDATALOAD PUSH2 0x6A2 DUP5 DUP3 PUSH1 0x20 DUP7 ADD PUSH2 0x616 JUMP JUMPDEST SWAP2 POP POP SWAP3 SWAP2 POP POP JUMP JUMPDEST PUSH0 PUSH1 0x20 DUP3 DUP5 SUB SLT ISZERO PUSH2 0x6C0 JUMPI PUSH2 0x6BF PUSH2 0x4BA JUMP JUMPDEST JUMPDEST PUSH0 DUP3 ADD CALLDATALOAD PUSH8 0xFFFFFFFFFFFFFFFF DUP2 GT ISZERO PUSH2 0x6DD JUMPI PUSH2 0x6DC PUSH2 0x4BE JUMP JUMPDEST JUMPDEST PUSH2 0x6E9 DUP5 DUP3 DUP6 ADD PUSH2 0x67E JUMP JUMPDEST SWAP2 POP POP SWAP3 SWAP2 POP POP JUMP JUMPDEST PUSH0 DUP2 MLOAD SWAP1 POP SWAP2 SWAP1 POP JUMP JUMPDEST PUSH0 DUP3 DUP3 MSTORE PUSH1 0x20 DUP3 ADD SWAP1 POP SWAP3 SWAP2 POP POP JUMP JUMPDEST PUSH0 DUP2 SWAP1 POP PUSH1 0x20 DUP3 ADD SWAP1 POP SWAP2 SWAP1 POP JUMP JUMPDEST PUSH2 0x724 DUP2 PUSH2 0x4C2 JUMP JUMPDEST DUP3 MSTORE POP POP JUMP JUMPDEST PUSH0 PUSH2 0x735 DUP4 DUP4 PUSH2 0x71B JUMP JUMPDEST PUSH1 0x20 DUP4 ADD SWAP1 POP SWAP3 SWAP2 POP POP JUMP JUMPDEST PUSH0 PUSH1 0x20 DUP3 ADD SWAP1 POP SWAP2 SWAP1 POP JUMP JUMPDEST PUSH0 PUSH2 0x757 DUP3 PUSH2 0x6F2 JUMP JUMPDEST PUSH2 0x761 DUP2 DUP6 PUSH2 0x6FC JUMP JUMPDEST SWAP4 POP PUSH2 0x76C DUP4 PUSH2 0x70C JUMP JUMPDEST DUP1 PUSH0 JUMPDEST DUP4 DUP2 LT ISZERO PUSH2 0x79C JUMPI DUP2 MLOAD PUSH2 0x783 DUP9 DUP3 PUSH2 0x72A JUMP JUMPDEST SWAP8 POP PUSH2 0x78E DUP4 PUSH2 0x741 JUMP JUMPDEST SWAP3 POP POP PUSH1 0x1 DUP2 ADD SWAP1 POP PUSH2 0x76F JUMP JUMPDEST POP DUP6 SWAP4 POP POP POP POP SWAP3 SWAP2 POP POP JUMP JUMPDEST PUSH0 PUSH1 0x20 DUP3 ADD SWAP1 POP DUP2 DUP2 SUB PUSH0 DUP4 ADD MSTORE PUSH2 0x7C1 DUP2 DUP5 PUSH2 0x74D JUMP JUMPDEST SWAP1 POP SWAP3 SWAP2 POP POP JUMP JUMPDEST PUSH0 PUSH1 0x20 DUP3 DUP5 SUB SLT ISZERO PUSH2 0x7DE JUMPI PUSH2 0x7DD PUSH2 0x4BA JUMP JUMPDEST JUMPDEST PUSH0 PUSH2 0x7EB DUP5 DUP3 DUP6 ADD PUSH2 0x4E1 JUMP JUMPDEST SWAP2 POP POP SWAP3 SWAP2 POP POP JUMP JUMPDEST PUSH0 DUP2 ISZERO ISZERO SWAP1 POP SWAP2 SWAP1 POP JUMP JUMPDEST PUSH2 0x808 DUP2 PUSH2 0x7F4 JUMP JUMPDEST DUP3 MSTORE POP POP JUMP JUMPDEST PUSH0 PUSH1 0x20 DUP3 ADD SWAP1 POP PUSH2 0x821 PUSH0 DUP4 ADD DUP5 PUSH2 0x7FF JUMP JUMPDEST SWAP3 SWAP2 POP POP JUMP JUMPDEST PUSH32 0x4E487B7100000000000000000000000000000000000000000000000000000000 PUSH0 MSTORE PUSH1 0x11 PUSH1 0x4 MSTORE PUSH1 0x24 PUSH0 REVERT JUMPDEST PUSH0 PUSH2 0x85E DUP3 PUSH2 0x4C2 JUMP JUMPDEST SWAP2 POP PUSH2 0x869 DUP4 PUSH2 0x4C2 JUMP JUMPDEST SWAP3 POP DUP3 DUP3 ADD SWAP1 POP DUP1 DUP3 GT ISZERO PUSH2 0x881 JUMPI PUSH2 0x880 PUSH2 0x827 JUMP JUMPDEST JUMPDEST SWAP3 SWAP2 POP POP JUMP JUMPDEST PUSH0 PUSH2 0x891 DUP3 PUSH2 0x4C2 JUMP JUMPDEST SWAP2 POP PUSH32 0xFFFFFFFFFFFFFFFFFFFFFFFFFFFFFFFFFFFFFFFFFFFFFFFFFFFFFFFFFFFFFFFF DUP3 SUB PUSH2 0x8C3 JUMPI PUSH2 0x8C2 PUSH2 0x827 JUMP JUMPDEST JUMPDEST PUSH1 0x1 DUP3 ADD SWAP1 POP SWAP2 SWAP1 POP JUMP JUMPDEST PUSH32 0x4E487B7100000000000000000000000000000000000000000000000000000000 PUSH0 MSTORE PUSH1 0x32 PUSH1 0x4 MSTORE PUSH1 0x24 PUSH0 REVERT JUMPDEST PUSH0 PUSH2 0x905 DUP3 PUSH2 0x4C2 JUMP JUMPDEST SWAP2 POP PUSH2 0x910 DUP4 PUSH2 0x4C2 JUMP JUMPDEST SWAP3 POP DUP3 DUP3 SUB SWAP1 POP DUP2 DUP2 GT ISZERO PUSH2 0x928 JUMPI PUSH2 0x927 PUSH2 0x827 JUMP JUMPDEST JUMPDEST SWAP3 SWAP2 POP POP JUMP JUMPDEST PUSH0 PUSH2 0x938 DUP3 PUSH2 0x4C2 JUMP JUMPDEST SWAP2 POP PUSH0 DUP3 SUB PUSH2 0x94A JUMPI PUSH2 0x949 PUSH2 0x827 JUMP JUMPDEST JUMPDEST PUSH1 0x1 DUP3 SUB SWAP1 POP SWAP2 SWAP1 POP JUMP INVALID LOG2 PUSH5 0x6970667358 0x22 SLT KECCAK256 CALLER 0x1F 0xB9 GAS SHR ORIGIN PREVRANDAO 0x2F KECCAK256 0xC7 RETURN PREVRANDAO EXTCODECOPY 0xC6 PUSH29 0xDCA4E9E0FC92F54DFAD7517167015F5A9E64736F6C634300081E003300 "
				},
				"gasEstimates": {
					"creation": {
						"codeDepositCost": "488600",
						"executionCost": "522",
						"totalCost": "489122"
					},
					"external": {
						"doWhileTest()": "infinite",
						"forLoopTest()": "infinite",
						"ifElseTest(uint256)": "654",
						"insertionSort(uint256[])": "infinite",
						"insertionSort1(uint256[])": "infinite",
						"ternaryTest(uint256,uint256)": "infinite",
						"whileTest()": "infinite"
					}
				},
				"methodIdentifiers": {
					"doWhileTest()": "2bbacaaa",
					"forLoopTest()": "b0cfa9fc",
					"ifElseTest(uint256)": "7141fb00",
					"insertionSort(uint256[])": "6297206f",
					"insertionSort1(uint256[])": "af40994f",
					"ternaryTest(uint256,uint256)": "28766320",
					"whileTest()": "5d14639d"
				}
			},
			"storageLayout": {
				"storage": [],
				"types": null
			},
			"userdoc": {
				"kind": "user",
				"methods": {},
				"version": 1
			}
		}
	}
}